:020000040800F2
:1000000074120020AD140008D1230008D523000885
:10001000D9230008DD230008E123000800000000C8
:10002000000000000000000000000000E5230008C0
:10003000E923000800000000ED230008F123000878
:10004000A9140008A9140008A9140008A91400089C
:10005000A9140008A9140008A9140008A91400088C
:10006000A9140008A9140008A9140008A91400087C
:10007000A9140008A9140008A9140008A91400086C
:10008000A9140008A9140008A9140008A91400085C
:10009000A9140008A9140008A9140008A91400084C
:1000A000A9140008A9140008A9140008A91400083C
:1000B000A9140008A9140008E91D0008A9140008E3
:1000C000A9140008A9140008A9140008A91400081C
:1000D000A9140008791D0008A9140008A914000833
:1000E000A9140008A9140008F5230008A9140008A1
:1000F000A9140008A9140008A9140008A9140008EC
:10010000A9140008A9140008A9140008A9140008DB
:10011000A9140008A9140008A9140008A9140008CB
:10012000A9140008A9140008A9140008A9140008BB
:10013000A9140008A9140008A9140008A9140008AB
:10014000A9140008A9140008A9140008292400080B
:10015000A9140008A9140008A9140008A91400088B
:10016000A9140008A9140008A9140008A91400087B
:10017000A9140008A9140008A9140008A91400086B
:10018000A9140008A914000808B501214FF4804003
:1001900002F08AF84FF480400021BDE8084002F0E8
:1001A00083B800BF4FF46053C4F201031860704776
:1001B0008A084FF46053C4F20103023201F00301D4
:1001C00030B4890053F822500F2404FA01F425EAD0
:1001D000040443F8224053F8224000FA01F004439B
:1001E00043F8224030BC7047DC23C4F22723186058
:1001F000704700BF4FF48063C4F227231860704734
:100200004FF46053C4F20103186AC0F30020704732
:1002100010B4C47814BB00EB820003339B10D0F8F9
:10022000D0001BD051F8042B026001225C1E043167
:10023000934204F0010411D034B151F8044C02226D
:1002400004319342046009D051F8044C046051F821
:10025000044B0232043193420460F5D1002010BCFB
:10026000704700BF033270B49510D0F8D0401ED054
:100270000B4620686A1E43F8040B02F001000122BD
:100280000433954211D030B12068022243F8040CA7
:100290000433954209D0266843F8046C266843F875
:1002A000046B023204339542F5D101EB8501084617
:1002B00070BC70472DE9F00F002301224024012972
:1002C00084B0C3708270848000F0BE80002900F08A
:1002D00098800178427800914FF40064C360046113
:1002E000002A00F0D3804FF460654FF488664FF425
:1002F00080610395029601919B464FEA421AAAF14A
:10030000200220230BF510650BF53066C2F3401474
:10031000021D5345856146651ED04CB10BF5126434
:100320000BF532614023946151650432534513D07B
:10033000814603F1200705EB030806EB030CE819DF
:100340004033F719C2F81880C2F854C0D0619765DD
:1003500008325345EDD14846019C44610099029C06
:10036000C0F8CC40002944D00BF5A06202EB411547
:10037000AC1A0BF5A463203CC0F89020021DAB42E0
:10038000C4F3401111D031B1C2F890300BF5A8631D
:100390000432AB4209D003F12004C2F8903040335C
:1003A000C2F894400832AB42F5D1009C0BF5805264
:1003B00002EB0435A91A0BF50053A1F58051C0F8E2
:1003C000D020021DAB42C1F3003112D031B1C2F8CE
:1003D000D03003F580530432AB420AD003F5805489
:1003E000C2F8D03003F50053C2F8D4400832AB4213
:1003F000F4D10399C0F80C11002004B0BDE8F00F4F
:1004000070470C254FF4A0660023C1720570C680AA
:100410004FF4606100954FF480664FF488650622C2
:100420004FF40064C4F20403C4F20401C4F20405EE
:10043000C4F204064270039102950196C4F20404CA
:100440009B46C360046158E708250226C1724FF439
:10045000A0710570C18006724FF4606100954FF481
:1004600080664FF4886504224FF400644FF0A04387
:10047000C5F20001C5F20005C5F200064270039105
:1004800002950196C5F200049B46DAE74FF46063DB
:100490004FF488614FF48064039302910194934672
:1004A0005BE700BF70B5027A0023012A044682B0E0
:1004B0001E46C0685ED0C16841F04005C56003209B
:1004C000019307F06DFEE3681A694FF454650192D9
:1004D000C0F2030510E007F063FEE3681A690192B9
:1004E0000199032000290DDB07F05AFEE368186923
:1004F000013D1946019025D001990320002905F1FD
:10050000FF35E8DA019840F0010201920199196182
:1005100018694FF454620190C0F2030208E01869B0
:1005200001900199C90709D51869013A019005D0D0
:10053000019911F0010F02F1FF32F0D1032007F011
:100540002FFEE168627A002A0CBF4FF434134FF497
:1005500074138B63142007F03FFEE178012906D164
:10056000E068826822F03E0343F02A0181600020A7
:1005700002B070BD816B657A63F310410DB141F437
:1005800080118163C2686FF386126FF396526FF326
:1005900051426FF3D342C26000230320009307F05F
:1005A000FFFDE36818694FF454650090C0F203053D
:1005B0000FE007F0F5FDE3681A6900920099032047
:1005C00000290CDB07F0ECFDE3681969013D00919F
:1005D00024D000990320002905F1FF35E9DA0098BD
:1005E00040F0010200920099196118694FF45462B9
:1005F0000090C0F2030208E0186900900099C80753
:1006000009D51869013A009005D0009911F0010F41
:1006100002F1FF32F0D1032007F0C2FDE07801289B
:10062000A5D1052262F34406E36846F020069E60E9
:1006300093E700BFC3689A6842F001009860002009
:10064000704700BFC3689A6822F0010098600020DC
:10065000704700BF00B583B000230193019A42F0B8
:1006600020030193019A61F38A1201920199C068F3
:10067000016102694FF454630192C0F2030308E080
:10068000026901920199890609D50269013B01922B
:1006900005D0019911F0200F03F1FF33F0D10320B1
:1006A00007F07EFD002003B000BD00BF00B583B0A1
:1006B00000230193019941F010020192019BC2684D
:1006C000136110694FF454630190C0F2030308E012
:1006D000106901900199C80609D51069013B019084
:1006E00005D0019911F0100F03F1FF33F0D1032071
:1006F00007F056FD002003B000BD00BFC26808B57A
:10070000D36801296FF35D736FF39E7308D009B945
:1007100043F080433220D36007F05EFD002008BD27
:1007200043F00053F6E700BFC368586900F00100CA
:10073000704700BFC368586900F0010181F00100F3
:10074000704700BFC368586900F00100704700BFE0
:10075000C3685A6998691040704700BFC3685868F9
:10076000704700BF03691A6861F301021A6070479D
:10077000F0B505460020D5F80C21296910600C68F9
:1007800060F3CC240C60EE7A012E83B0034600F0B7
:10079000B580EA6800230093009C44F0200000909C
:1007A000009E102161F38A160096009B1361146964
:1007B0004FF454630094C0F2030308E016690096F6
:1007C00000998E0609D51469013B009405D0009864
:1007D00010F0200F03F1FF33F0D1032007F0E0FC0D
:1007E000002201920198EE6840F010010191019CF5
:1007F000346132694FF454630192C0F2030308E09C
:1008000031690191019CE40609D53269013B0192ED
:1008100005D0019810F0100F03F1FF33F0D1032041
:1008200007F0BEFC2E6900224FF0FF30326172618A
:10083000B061F2616978002930D029462C4694468F
:10084000FF27A3691868C0F3076000F08000C0B2FA
:10085000002814BF4FF0904000201860C3F810C06B
:100860009F606B78013204349342EAD8B3B100221E
:100870001746FF244B6D1868C0F3076000F0800036
:10088000C0B2002814BF4FF09040002018601F61D4
:100890009C606B78013204319342EBD8346944F4A4
:1008A00080703061EB78012B07D103F58171C0F2C4
:1008B0000101402262F359413163EB684FF4006259
:1008C00000206FF08041C8F200024FF0FF349861C1
:1008D00059615C6059619A61EA78996982420CBFFA
:1008E0001022024642F4872242F0081242F44012DB
:1008F00021EA02011143996103B0F0BD0E68EA6874
:10090000C02780244FF4800067F30F0346F00306EE
:100910000E6064F31F4364F30F004FF4A071546240
:100920009062C2F8043161F30F036FF31F43C2F802
:100930000831C2F80C312DE730B4C3684FF40061C0
:1009400000226FF08044C8F200014FF0FF359A6139
:100950005C615D605C619961C1789869914214BF86
:100960001146102141F4872141F0081141F4401152
:1009700020EA010008439861104630BC704700BF70
:1009800003699868C0F341014B1E022B02D8024A4A
:10099000D05C70470320704794AD000803698269FA
:1009A00098681168C0F34100022808D06FF30A016B
:1009B00011605A6842F4807159600020704703202A
:1009C00060F30A01F4E700BF70B44B780022012BFA
:1009D00024D00B7800EB8304012505FA03F3646D42
:1009E00063F31F422368C3F3072505F08005EDB2CA
:1009F0006DB98E68CD78C98866F30A0365F39343B1
:100A000061F3995343F0805343F40041216000693E
:100A1000C3691A43C261002070BC70470C7800EBB8
:100A2000840503FA04F363F30F02AC69DAE700BF4D
:100A300030B44A780023012A1C4613D00A7800EB10
:100A40008201012505FA02F2496D62F31F44006933
:100A50006FF3CF330B60C36923EA0404C461002041
:100A600030BC7047097800EB810502FA01F262F3AD
:100A70000F04A969EBE700BFF0B44B78012B30D02D
:100A80000A784D698E6800EB8204636D1C681A69F0
:100A90000DB3AD19013DB5FBF6F5AD05AD0D06FB8A
:100AA00005F626F07F46ADB226F4780665F3DC4203
:100AB00066F312021A61C378012B77D0CB78012B31
:100AC0006FD0097800EB810044F00444436D1C6052
:100AD0000020F0BC704726F07F4525F478060125FC
:100AE000E4E70E784A6900EB8605AD692E682C694B
:100AF000002A62D08B68CF7802EB030C0CF1FF3C2C
:100B000062F31204BCFBF3F363F3DC44012F08BF70
:100B100067F35E742C61C478012C5DD0CB78012B17
:100B200053D052B103690C785D6B012707FA04F4C6
:100B30002C435C63CB78012B47D00C7800EB84030B
:100B400046F004469C692660CC78012CC0D1C5785B
:100B5000CB680978002DBBD192B200EB8100D11C8B
:100B60008A10D0F8D000B3D053F8041B551E0433BC
:100B7000012A016005F001052146A9D035B153F8DD
:100B8000044C022104338A420460A1D053F8044C7F
:100B9000046053F8044B023104338A420460F5D1F7
:100BA00096E74A7972B144F000548AE70A780B69F3
:100BB00000EB8202526D536180E762F3120463F32B
:100BC000DC44A7E744F080547BE70469A368DB05B5
:100BD00009D446F00056B0E70C780B6900EB8404AA
:100BE000A4696361A6E746F08056A6E7F0B44B78A7
:100BF000012B82B02AD00C784A698F6800EB8405FB
:100C00006B6D1D681E690096F2B99DF802409DF853
:100C1000002007F07F06012766F3060267F3C4048D
:100C20008DF802408DF80020009A1A61C378BB420B
:100C300040D0097800EB810045F00442436D1A6012
:100C4000002002B0F0BC70474F61DEE782694C695A
:100C5000166815690095002C33D08B689C4288BFBC
:100C60004B619DF800508CBF03F07F0404F07F04BB
:100C70009DF8023064F30605012464F3C4038DF883
:100C800000508DF80230009B1361C378012B25D0F2
:100C900046F004431360C278002AD1D14B69002B7F
:100CA000CED003690A78596B012000FA02F20A4398
:100CB0005A63C5E70A780B6900EB8202526D5361F3
:100CC000B7E79DF800709DF8025064F3060763F3E0
:100CD000C4058DF800708DF80250D4E70C780B69CC
:100CE00000EB8404A4696361D2E700BF4B78097804
:100CF000012B00EB810006D0436D1A6842F400110D
:100D000019600020704780690368C3F3076202F02E
:100D10008001CAB20AB143F0804343F4001101607C
:100D2000002070474B78012B0B78C97800EB8300CB
:100D30000CBF8269426D1368881E6FF355530128FA
:100D400098BF43F0805313600020704703699A698D
:100D5000D8691040000C704700EB810102694B6DAF
:100D6000996850690840704703699869D9690840D3
:100D700080B2704782B00122002362F3C4030021D5
:100D80000091C0228DF8023018238DF803208DF8D1
:100D90000030416D009A0A61C378012B06D100F240
:100DA000CC5048610A684FF080220A6002B0704758
:100DB000D0F8183110B50446D3B100698268D20763
:100DC00016D5A17A41B1D4F80C31D4F80C216FF3C7
:100DD00041036FF300031360416841F00103436076
:100DE000052007F0F9F92069426822F0010141600D
:100DF00010BD00BF837A63B101698A68D10708D545
:100E0000D0F80C31D0F80C016FF341036FF30003FD
:100E10000360704730B54378012283B0054680F8FF
:100E200012215BB103460022FF219C69A160586D2D
:100E300081606C78013204339442F6D82969EA68FB
:100E400000234FF0FF300B614B61CB618861009351
:100E5000009941F0100300930098106111694FF45C
:100E600054630091C0F2030308E0116900910098F7
:100E7000C10609D51169013B009105D0009810F019
:100E8000100F03F1FF33F0D1032007F089F900229E
:100E900001920198EA6840F020010191019B102025
:100EA00060F38A1301930199116110694FF454633F
:100EB0000190C0F2030308E01069019001998806CF
:100EC00009D51069013B019005D0019911F0200F5F
:100ED00003F1FF33F0D1032007F062F903B030BD16
:100EE0004B780978012B00EB810014D0426D136818
:100EF000C3F3074101F02000C2B24AB901F0020376
:100F0000D9B200290CBF4FF440504FF40050704745
:100F10004FF48050704780690268C2F3074101F0C6
:100F20002003D8B238B901F00202D1B200290CBFB7
:100F30003020202070471020704700BF70B44B78DD
:100F40000C78012B13D0143400EB8400B2F5805FD1
:100F5000446823681D461AD0B2F5005F12D0B2F57E
:100F6000405F1FD082B962F3CF352B460CE0251DC0
:100F700000EB8500102A85682B682C461E4635D06C
:100F8000202A07D143F00063236070BC704743F40C
:100F90000013F9E7302A10D0002AF5D162F3CF36DA
:100FA0003346F1E7C3F3074202F02002D2B2CAB9D6
:100FB00043F0806141F08023E6E7C3F3074202F08B
:100FC0002002D2B2002AF3D000244C718068CA7883
:100FD0000368911E64F35553012998BF43F0805371
:100FE0000360D2E700244C714068F0E72B68C3F33C
:100FF000076000F08002D1B209B143F0804343F4AE
:1010000000102860C1E700BF08B54FF48053C4F258
:101010000103984236D04FF48841C4F2000188425F
:101020003AD04FF49042C4F20002904240D04FF4C4
:101030009843C4F20003984246D04FF4A041C4F252
:10104000000188424CD04FF4A052C4F201029042F9
:1010500052D04FF4F043C4F20003984256D04FF4FC
:10106000F841C4F20001884200D008BD01214FF0D0
:10107000004001F00BF94FF000400021BDE80840AE
:1010800001F004B91020012101F00EF91020002117
:10109000BDE8084001F008B901214FF4003001F02B
:1010A000F5F84FF400300021BDE8084001F0EEB83B
:1010B00001214FF4802001F0E9F84FF48020002155
:1010C000BDE8084001F0E2B801214FF4002001F032
:1010D000DDF84FF400200021BDE8084001F0D6B84B
:1010E00001214FF4801001F0D1F84FF4801000215D
:1010F000BDE8084001F0CAB82020012101F0D4F871
:1011000020200021BDE8084001F0CEB801214FF0B9
:10111000804001F0BBF84FF080400021BDE808405E
:1011200001F0B4B8028ACB8822F440521204F0B520
:10113000120C04461A4348890F898E880D46898906
:101140002282A38923F4B05222F00C033E431A04F6
:101150000643B3B2100C43EA0006A681A28A22F429
:10116000407003041E0C0E4385B0A682684600F052
:101170008FFF4FF48051C4F201018C422CD04FF408
:10118000A052C4F20102944226D0A089029B06B26A
:10119000002E26DB2D6803EB830101EB8102AB00FF
:1011A000B2FBF3F148F21F53A089C5F2EB13A3FB86
:1011B0000156720900B264251601002802FB1511C0
:1011C00018DB0D013235A3FB0553C3F34312324341
:1011D00091B2218105B0F0BDA089039B06B2002E1B
:1011E000D8DA286803EB830606EB86054200B5FBD8
:1011F000F2F1D7E7C8003230A3FB0013C3F3421269
:101200003243E5E700234FF416520C21026083803D
:10121000C380038141818381704700BF0A88038AAC
:1012200030B44D888C88C9882A4323F470632243E4
:101230001B040A4392B2190C42EA0103038230BC38
:10124000704700BF0023038043808380C3807047C2
:10125000838929B923F400510A04130C8381704750
:1012600099B241F400528281704700BF038B03F4AE
:101270007F420283038B9AB211430183704700BF00
:10128000838919B959044A0C828170476FEA434334
:101290006FEA53418AB28281704700BF838A29B9BD
:1012A00023F400610A04130C8382704799B241F45D
:1012B00000628282704700BFC905CA0D82807047F4
:1012C0008088C105C80D7047038A23F00F021304FC
:1012D0001A0C0282038A9AB211430182704700BF3E
:1012E000838929B923F002010A04130C8381704712
:1012F00099B241F002028281704700BF838923F4D2
:10130000006213041A0C828183899AB2114381818D
:10131000704700BF038A23F0200213041A0C0282D4
:10132000038A9AB211430182704700BF038A29B928
:1013300023F480410A04130C0382704799B241F4EC
:1013400080420282704700BF838999B241F0010256
:1013500082817047838A29B923F008010A04130C9B
:101360008382704799B241F008028282704700BFC1
:10137000038BDAB20283038B9AB242EA0121018322
:10138000704700BF838A29B923F020010A04130C97
:101390008382704799B241F020028282704700BF79
:1013A000838A29B923F010010A04130C8382704741
:1013B00099B241F010028282704700BF838A23F005
:1013C000040213041A0C8282838A9AB21143818226
:1013D000704700BF838A29B923F002010A04130C65
:1013E0008382704799B241F002028282704700BF47
:1013F000838A9BB21AB923EA01018182704719439B
:101400008182704701F01F0310B4C1F3421101241F
:10141000A14204FA03F30DD002290DD014302AB9E9
:10142000026822EA0301016010BC7047026813439E
:101430000360F9E70C30F2E71030F0E70388194257
:101440000CBF002001207047C9438AB20280704758
:1014500010B4C1F34213012401F01F02A34204FAA5
:1014600002F214D0022B0CBF038A838A9BB2134072
:10147000008882B24BB1090A012303FA01F010423D
:101480000CBF0020012010BC70471846FBE7838981
:101490009BB21340ECE700BF090A012303FA01F2F3
:1014A000D1438BB203807047FEE700BF1849194B48
:1014B000994270B51BD2DA1C0C1D151B164825F07D
:1014C0000302161D05680423B3420D60C2F38002B7
:1014D0000DD022B142680823B342226007D01A1D02
:1014E0001D5884585D500833B3428C50F7D10B48D7
:1014F0000B494FF000028842B8BF40F8042BFFF6BA
:10150000FAAF06F02FFDBDE8704000F0FFBB00BF52
:1015100000000020A001002058AE0008A00100201B
:10152000740A0020D0F8E83510B5044618698047E1
:10153000032184F81211002010BD00BF08B590F8F7
:101540001221D0F8E83580F81321042180F8121117
:10155000D8688047002008BD08B5D0F8E435D969BF
:1015600001B18847002008BD08B5D0F8E435196AF4
:101570008847002008BD00BF08B5D0F8E435596A97
:101580008847002008BD00BF002110B50B46044667
:10159000402207F0A7FE802140220023204607F0CA
:1015A000A1FED4F8E835A078012284F81221596808
:1015B0008847002010BD00BF10B582B069460446C0
:1015C00007F038F89DF8001001F01F03012B0FD031
:1015D00009D3022B11D0204601F0800107F0FCFE58
:1015E000002002B010BD2046694606F015FEF7E760
:1015F0002046694606F088FFF2E72046694606F075
:10160000A5FFEDE770B5044649B990F81131022BFA
:1016100019D094F8161101290CD0002070BDD0F813
:10162000E4355B69002BF8D090F81221032AF4D13D
:101630009847F2E721482369026800215A60002098
:1016400084F8161170BDD0F83821D0F824319A42B0
:1016500011D9C078D4F828110128C3EB020208BFC1
:10166000C918C4F8382108BFC4F82811204692B21E
:1016700007F050FFCDE7D0F83C51B5FBF3F603FB84
:1016800016565EB9AB4209D8D0F84021954205D232
:10169000324607F03FFFC4F84061BAE7D4F8E405EA
:1016A000C16819B194F81231032B03D0204607F01A
:1016B00065FFAEE720468847F8E700BF68030020D3
:1016C00010B5044629B990F8111103290CD0002057
:1016D00010BDD0F8E4359B69002BF8D090F81221AA
:1016E000032AF4D19847F2E7D0F89023D0F87C335E
:1016F0009A4214D9C078D4F880130128C3EB0202AF
:1017000008BFC918C4F8902308BFC4F880139A42D0
:1017100028BF1A46204692B207F016FFD7E7D0F846
:10172000E4150B691BB190F81221032A03D020465F
:1017300007F014FFCBE79847F9E700BF2DE9F04128
:10174000069D044616461F46884606F0DDFC2046E8
:101750004146C4F8E475C4F8E855C4F8EC6507F0F0
:1017600071FDD4F8E835186880472046BDE8F0419F
:1017700006F0FABC00207047D0F8E43510B50446F6
:101780001A689047D4F8E80581688847002010BDA2
:1017900008B5D0F8E4355A689047002008BD00BF6E
:1017A00000B540F2480383B0C2F20003009340F258
:1017B0006C3040F2841240F23413C2F20000012176
:1017C000C2F20002C2F20003FFF7B8FF03B000BD8F
:1017D00082B00190019B581E019028B100BF019971
:1017E0004A1E0192002AF9D102B0704782B00190DE
:1017F000019B581C019001994A1E01925AB145F66D
:10180000272300BF00BF00BF033BFAD101994A1E46
:101810000192002AF3D102B0704700BF2DE9F041D8
:101820001F2082B00121002700F0C0FCC4F2020793
:10183000042001214FF40068002400F0E1FCC4F210
:101840000208FF23384669460325012600938DF8D8
:1018500004408DF8074006F0CDF830224046694636
:1018600000928DF805508DF804608DF806408DF8D3
:10187000074006F0BFF807234046694600938DF8FD
:1018800004508DF8074006F0B5F84FF480604FF62D
:1018900007426946C4F2020000928DF805508DF8A7
:1018A00004608DF806408DF8074006F0A3F84FF469
:1018B00080504FF687736946C4F2020000938DF89A
:1018C00005508DF804608DF806408DF8074006F04D
:1018D00091F84FF4406048F2FF326946C4F20200CA
:1018E00000928DF805508DF804608DF806408DF853
:1018F000074006F07FF8F86840F6641540F4AA4106
:10190000C2F2000541F055032846FB6008F072F86A
:101910004FF4006053221323C4F2000029462A80AA
:101920006B602C8108F00EF802B0BDE8F08100BFBA
:1019300010B501218AB04FF480704FF4005400F0CC
:101940006DFCC4F2010400F0BFFD00236846009363
:1019500001938DF814308DF8153007930693049396
:10196000089300F0F1FD04A9204600F0BBFD2046DD
:10197000012100F007FE0AB010BD00BFF0B5012143
:1019800087B007464FF48065102000F047FCC4F292
:1019900002050220012100F009FC00240223C022DC
:1019A0000126694628468DF804308DF805300092EE
:1019B0008DF806408DF8076006F01CF828460621D1
:1019C000072206F001F9072128464FF480550A4600
:1019D000C4F2010506F0F8F8284602A90C23029784
:1019E000ADF80C40ADF80E40ADF81040ADF8144025
:1019F000ADF81230FFF796FB28463146FFF728FC7A
:101A000007B0F0BD38B50B780D46044673B1208899
:101A100000F040018AB2002AF9D029782046FFF769
:101A20004BFC2B7815F8013F002BF0D138BD00BFDF
:101A3000F0B587B0FFF7F2FE4FF48064102001216B
:101A400000F0ECFBC4F202040220012100F0AEFB26
:101A50000026022301252046C02269468DF8043065
:101A60008DF8053000928DF806608DF8075005F06E
:101A7000C1FF20460621072206F0A6F84FF4805742
:101A800007210A462046C4F2010706F09DF847F6F2
:101A90001223384602A9ADF80C60ADF80E60ADF81F
:101AA0001060ADF814600C260293ADF81260FFF7D9
:101AB00039FB38462946FFF7CBFB4FF40060C4F2F0
:101AC00002004FF607424FF440612283C4F2020144
:101AD00030244FF480530483C4F202034FF4407463
:101AE0004FF400660C83C4F200064FF680742A4659
:101AF000304629461C8308F035FC3046294607F05D
:101B0000DBFF4FF46140CEF200004FF080410160F6
:101B100007B0F0BD036819420CBF002001207047D8
:101B200010B54FF40054C4F201040223014601220F
:101B3000204600F05FFD204600F0AAFD23689A07CA
:101B400004D4204600BF01688B07FBD54FF400503A
:101B5000C4F20100022100F089FE4FF40050C4F2EB
:101B60000100BDE8104000F0C3BD00BF01390029ED
:101B7000F0B401DCF0BC7047002423465A1C1EB2AE
:101B800030F8127030F81650BD42D3B204D920F8A4
:101B9000167020F8125001248B42EFDB002CEBD1A1
:101BA000E8E700BF38B54FF40054C4F20104022343
:101BB0000B2101220546204600F01CFD204600F0C6
:101BC00067FD2368980704D4224600BF1068810788
:101BD000FBD54FF400500221C4F2010000F046FE94
:101BE0004FF40050C4F2010000F082FD08490A8859
:101BF0000346824234BFC2EB0000C3EB020080B256
:101C0000A84201D8500938BD0B80C3F34F1038BD2E
:101C1000620900202DE9F04385B0002306460F46F7
:101C20000093019302930393B8B300F1FF395FFA75
:101C300089F84FF400540DEB0300ADF1020500EB01
:101C40004808C4F201044FF400500B210122022382
:101C5000C4F2010000F0CEFC4FF40050C4F20100C9
:101C600000F016FD21688A0703D400BF226893079D
:101C7000FBD54FF400500221C4F2010000F0F6FD44
:101C80004FF40050C4F2010000F032FD25F8020FBD
:101C90004545D8D1B9F1000F15DC7B08F41A0022B4
:101CA0009C4209DD04A800EB4301013331F8100C1C
:101CB000DBB2A3420244F5DBF61BB2FBF6F188B2BD
:101CC00005B0BDE8F08300210B465A1C1CB23DF85C
:101CD00012503DF81400A842D3B204D92DF8145084
:101CE0002DF8120001214B45EFDB0029EBD1D4E7A1
:101CF00010B49DF80440401AE41A04FB00F0521A94
:101D000090FBF2F15B18D8B210BC704708B5FFF732
:101D10008FFEFFF70DFE06F01FF9FFF741FD40F2C1
:101D20009112013A08D045F6272300BF00BF00BF3B
:101D3000033BFAD1013AF6D100F0AEFE0E2000F0DE
:101D40008FFE0B4800F038FF0421022000F04AFF0C
:101D5000084800F031FF4FF44060C4F202004FF435
:101D6000004105F021FF00F051FF07F0E1FCFAE728
:101D700098AD0008A8AD000838B54FF48054C4F2FF
:101D80000104204640F22551FFF762FB10B3A18801
:101D9000134BC9B26E2902D01A780B2A1BD9114DE8
:101DA000287800211970A8B14FF48054C4F20104BE
:101DB000238803F0400290B20028F9D04FF48050FD
:101DC0002978C4F20100FFF777FA2B7815F8011F84
:101DD0000029EDD138BD034C501CA154187038BDFA
:101DE000A0010020200A00204FF4006070B5C4F26A
:101DF0000000012108F0CCFA00B970BD2B4C4FF463
:101E000000600121C4F2000008F0CEFA00F060FF8B
:101E10006388581C81B2B1F57A7F6180EDD94FF4A7
:101E20000055C4F2010501220B2102232846002699
:101E3000668000F0DFFB284600F02AFC2A68900745
:101E400004D42C4600BF23689907FBD54FF40050FB
:101E50000221C4F2010000F009FD4FF40050C4F269
:101E6000010000F045FC124A1388834234BFC3EBE3
:101E70000001C0EB03018CB2202C0E4C84BF1080FB
:101E8000C0F34F13A07898BF5B099842B5D000BF4C
:101E9000DDB2402029460022A57007F02FFC40202B
:101EA00029460022BDE8704000F0F6BAA0010020EB
:101EB00062090020140A00204FF46053C4F20203A8
:101EC0000022196841F0010010B418609A601C6883
:101ED00043F2100024F0A1644FF44051C2F20040DC
:101EE000C2F2000124F480341C605860C3F88410EE
:101EF000186820F480211960DA6010BC704700BFB8
:101F000043F60203C4F2020300221A7018707047ED
:101F100082B04FF4605200230193C4F202021068B1
:101F200083030CD5019A511C0191019B4FF460531E
:101F3000C4F202031868C0F3404002B07047019930
:101F40004B1C01930198B0F5A06FE8D1EEE700BFFC
:101F50004FF46053C4F202031A6822F0F80141EA18
:101F6000C0001860704700BF0023C4F24723186008
:101F7000704700BF43F67003C4F202030022012839
:101F80001A701A7004D0042801D105201870704707
:101F9000187070474FF46863C4F2472318607047A5
:101FA00030B40143029D41EA82125B084FF4605451
:101FB00042EA0565591EC4F2020445EA0140606028
:101FC00030BC70476023C4F247231860704700BFDD
:101FD0004FF460538001C4F2020340EA0171C3F878
:101FE000841070476823C4F247231860704700BF0D
:101FF0004C23C4F247231860704700BF4FF460536E
:10200000C4F202039A6822F0EC6210430143996023
:10201000704700BF4FF46053C4F202039A6822F085
:102020007842104301439960704700BF4FF46053FA
:10203000C4F202039A6822F00301084398607047D3
:102040004FF46053C4F20203986800F00C0070472C
:102050004FF46053C4F202039A6822F0F00108437F
:10206000986070474FF46053C4F202039A6822F4F8
:10207000E0510843986070474FF46053C4F2020384
:102080009A6822F4604141EAC0009860704700BF3E
:102090004FF46053C4F2020310B49A6802F00C01CA
:1020A000042922D0082926D04FF41052C0F2F4029D
:1020B00002604FF46053C4F2020321499C68C4F3E8
:1020C00003140C5D22FA04F242609C68C4F382247B
:1020D0000C5D22FA04F484609B68C3F34233C95C4C
:1020E00022FA01F2C26010BC70474FF49052C0F265
:1020F0007A020260DDE75C68596814F4800F5C685E
:1021000001F03F0214BF4FF490534FF41053C4F347
:1021100088114FF4605414BFC0F27A03C0F2F40384
:10212000C4F20204B3FBF2F303FB01F26168C1F3F2
:1021300001435C1C6100B2FBF1F20260B9E700BF31
:102140003400002000F44073B3F5407F0CD14FF40D
:102150006053C4F2020320F070419A6821F4407188
:1021600022F4F812114399604FF46053C4F2020351
:1021700000051A6F010D11431967704740F63C6363
:10218000C4F24723186070474FF46463C4F24723D6
:10219000186070474FF4AE73C4F24723186070475D
:1021A0004FF48F53C4F24723186070474FF46053C5
:1021B000C4F202031A6B19B922EA000018637047CF
:1021C00010431863704700BF4FF46053C4F202031A
:1021D0005A6B19B922EA00005863704710435863DC
:1021E000704700BF4FF46053C4F202039A6B19B9F1
:1021F00022EA00009863704710439863704700BF5D
:102200004FF46053C4F202031A6C19B922EA0000B9
:102210001864704710431864704700BF4FF4605350
:10222000C4F202035A6C19B922EA000058647047DC
:1022300010435864704700BF4FF46053C4F2020368
:102240001A6919B922EA0000186170471043186131
:10225000704700BF4FF46053C4F202035A6919B9C2
:1022600022EA00005861704710435861704700BF70
:102270004FF46053C4F202039A6919B922EA0000CC
:102280009861704710439861704700BF4FF46053E6
:10229000C4F202031A6A19B922EA000018627047F0
:1022A00010431862704700BF4FF46053C4F202033A
:1022B0005A6A19B922EA00005862704710435862FE
:1022C000704700BF4FF46053C4F202031A6D19B98E
:1022D00022EA00001865704710431865704700BF78
:1022E0004FF46053C4F202035A6D19B922EA000098
:1022F0005865704710435865704700BF4FF46053EE
:10230000C4F202039A6D19B922EA00009865704779
:1023100010439865704700BF4FF46053C4F2020346
:102320001A6E19B922EA0000186670471043186641
:10233000704700BF4FF46053C4F202035A6E19B9DC
:1023400022EA00005866704710435866704700BF85
:1023500043F60D03C4F202031A7819B922EA000009
:102360001870704710431870704700BF4309012B65
:102370000ED04FF46051C4F20201022B0CBF096F62
:10238000496F00F01F0021FA00F303F001007047CD
:102390004FF46052C4F202021168F2E74FF4605346
:1023A000C4F202035A6F42F080705867704700BF52
:1023B0004FF46053C4F20203D96808420CBF0020F6
:1023C0000120704743F60E03C4F2020318707047F1
:1023D000704700BFFEE700BFFEE700BFFEE700BF9B
:1023E000FEE700BF704700BF704700BF704700BFE7
:1023F000704700BF10B50B4CA37A63B14EF6105076
:10240000CEF20000026822F00601016005F0AAFD8C
:102410002046FEF7EFFC4FF48020BDE8104006F0A8
:1024200099BE00BF6C03002040F26C30C2F2000085
:1024300006F056B9704700BFF0B440F63024C2F23F
:10244000000482F06F05A07040F26C30CE09ED43BD
:1024500009278121C2F200002246042327706570FB
:10246000E670F0BC06F09ABFF0B440F63024C2F239
:10247000000482F07F05A07040F26C30CE09ED437D
:1024800008278121C2F200002246042327706570CC
:10249000E670F0BC06F082BF70B440F63024C2F2A1
:1024A000000482F04F05A07040F26C30ED43E17003
:1024B0000B26C2F20000812122460423267065709B
:1024C00070BC06F06BBF00BF08B501214FF48070EF
:1024D000FFF7EAFE4FF480700021BDE80840FFF7E7
:1024E000E3BE00BF42680B79F0B422F0407C0E6876
:1024F000CD680C694F792CF48072164346EA0323A9
:10250000436086682C434FF2FD738D68CCF2FF0365
:1025100044EA05023340134343EA47028260097DDF
:10252000C26A4B1E22F47001DAB241EA0253C3625E
:10253000F0BC704700230121036003714371836085
:10254000C36003610175704770B44FF40C5290E89A
:102550004200C4F2010285685468C06843F2E00397
:102560003143CFF6FC7329432340014341EA030082
:10257000506070BC704700BF0023036043608360FD
:10258000C3607047836819B923F001018160704707
:1025900043F0010282607047436823F4400222F452
:1025A000007319434160704741628262704700BF07
:1025B000436823F01F021143416070474FF40C53EE
:1025C000C4F201035A6818B922F400005860704739
:1025D00042F40001596070474FF40C53C4F20103F8
:1025E0005A6818B922F480005860704742F480019C
:1025F00059607047092970B420D901EB41041E3C91
:10260000C668072505FA04F526EA050503FA04F36A
:1026100045EA0304062AC4601FD90C2A02EB820291
:1026200029D9C46A413A1F2303FA02F324EA0303B7
:1026300001FA02F11943C16270BC704701EB410419
:102640000669072505FA04F526EA050503FA04F3E9
:1026500045EA0304062A0461DFD8531E03EB830214
:10266000446B1F2303FA02F324EA030301FA02F185
:1026700019434163E0E7233A046B1F2303FA02F393
:1026800024EA030301FA02F143EA01020263D3E7F9
:10269000836843F080418160704700BF8068C0F369
:1026A00080507047836819B923F480618160704756
:1026B00043F4806282607047836819B923F0020195
:1026C0008160704743F002028260704743680139BD
:1026D00023F4604242EA413141607047436819B9CE
:1026E00023F400614160704743F400624260704728
:1026F000C06C80B2704700BF42F20833C4F20103DD
:1027000018687047836819B923F480718160704735
:1027100043F4807282607047836819B923F40071B2
:102720008160704743F40072826070474FF40C532D
:10273000C4F201035A6818B922F400505860704777
:1027400042F4005159607047092970B41FD801EB59
:1027500041040669072505FA04F526EA050503FA8A
:1027600004F345EA03040461846BC4F30153D21AF1
:10277000931CDAB202EB82031F2202FA03F224EA6C
:10278000020401FA03F12143816370BC704701EB3D
:1027900041041E3CC668072505FA04F526EA05052E
:1027A00003FA04F345EA0304C460DDE7836B0139EF
:1027B00023F4401242EA01518163704782B0002342
:1027C00001930190019809180191019B1A6002B0D0
:1027D000704700BF836823F4702211438160704703
:1027E000836823F44012114381607047836843F487
:1027F00080018160704700BF8068C0F380507047DF
:10280000436819B923F480614160704743F48062E2
:1028100042607047436819B923F4805141607047A2
:1028200043F480524260704782B0002301930190CC
:102830000198283041180191019A136898B202B0AA
:10284000704700BF0123C9B203FA01F143681AB906
:1028500023EA01024260704719434160704700BF9C
:10286000036819420CBF002001207047C943016072
:10287000704700BF4368006810EA112007D00122AA
:10288000C9B202FA01F018420CBF002001207047C3
:102890006FEA11210160704700F0100310B5DAB241
:1028A00004464FF44060C4F202001021002A35D0E3
:1028B00005F07AF904F02000C3B24FF44060C4F28E
:1028C00002002021002B38D005F06EF904F0400101
:1028D000CAB24FF44060C4F2020040210AB305F0CE
:1028E00063F94FF4406080212306C4F2020021D432
:1028F00005F05CF94FF480500421C4F2020005F0A9
:1029000053F940F2E240FEF763FF4FF48050C4F207
:1029100002000421BDE8104005F048B905F046F971
:10292000C8E705F043F94FF4406080212306C4F264
:102930000200DDD505F038F9DCE705F037F9C5E729
:1029400010B5044601214FF44060E307C4F20200D1
:1029500068D505F029F904F002034FF44060DAB2BB
:10296000C4F202000221002A77D005F01DF904F01C
:102970000400C3B24FF44060C4F202000421002BF3
:1029800068D005F011F904F00801CAB24FF44060B4
:10299000C4F202000821002A59D005F005F904F01C
:1029A0001000C3B24FF44060C4F202001021002BAB
:1029B0004AD005F0F9F804F02001CAB24FF44060A3
:1029C000C4F202002021002A3BD005F0EDF804F00B
:1029D0004000C3B24FF44060C4F20200402123B370
:1029E00005F0E2F84FF4406080212206C4F20200B4
:1029F00024D405F0DBF84FF480500421C4F2020027
:102A000005F0D2F840F2E240FEF7E2FE4FF48050CB
:102A1000C4F20200042105F0C9F80220BDE810400C
:102A2000FEF7E4BE05F0C2F895E705F0BFF84FF4F5
:102A3000406080212206C4F20200DAD505F0B4F825
:102A4000D9E705F0B3F8C2E705F0B0F8B3E705F051
:102A5000ADF8A4E705F0AAF895E705F0A7F886E732
:102A600010B504464FF48050C4F20200012105F075
:102A70009DF82046BDE81040FFF762BF10B5044640
:102A80004FF48050C4F20200012105F08DF8204679
:102A9000BDE81040FFF754BF38B54FF48054C4F27E
:102AA00002040421204605F081F82046012105F0AA
:102AB0007DF84FF4406502212046C4F2020505F07E
:102AC00075F81020FEF792FE1021284605F06CF8EC
:102AD0002846202105F068F82846402105F066F8D0
:102AE0002846802105F062F80421204605F05CF8B4
:102AF00040F2E240FEF76CFE0421204605F056F855
:102B00000520FEF773FE2846102105F04DF82846F3
:102B1000202105F049F82846402105F047F82846CD
:102B2000802105F043F82046042105F03DF840F2ED
:102B3000E240FEF74DFE0421204605F037F8012063
:102B4000FEF754FE2846102105F02EF828462021D5
:102B500005F02AF82846402105F028F8284680216B
:102B600005F024F80421204605F01EF840F2E2406A
:102B7000FEF72EFE2046042105F018F8012120461C
:102B800005F014F83820FFF7DBFE0121204605F0A0
:102B90000DF80820FFF7D4FE0121204605F006F8C5
:102BA0000120FFF7CDFE2046012104F0FFFF0620A3
:102BB000BDE83840FFF7C4BE38B5047874B10546A7
:102BC0004FF480500121C4F2020004F0EDFF2046D2
:102BD000FFF7B6FE15F8014F002CF1D138BD00BF4C
:102BE000704700BF38B505464FF480500C46C4F21C
:102BF0000200012104F0DAFF04EB8510413860F097
:102C00007F01C8B2BDE83840FFF79ABE70B52C4BC3
:102C10001A7A597A914252D02A492B4C087C02F0F8
:102C2000070500F007065D5D31F81660257001327A
:102C300001301A722B0608746680284622D405F0EB
:102C40001FF90146304605F031F9204B1978054649
:102C500059B920782279294606F018FD2078227982
:102C60002946BDE87040FFF7E7BB00F07F0631461C
:102C70005820227906F042FD582031462279FFF78C
:102C80000BFCE6E705F0FCF80146304605F040F99C
:102C90002279014605F07F0006F014FD257866884C
:102CA000284605F0EDF80146304605F031F9227965
:102CB000014605F07F00BDE87040FFF7D5BB70BD51
:102CC0008409002070090020A80100204400002091
:102CD0002DE9F84F4FF48056C4F202060024C4F2E6
:102CE00002044FF4004701207783FEF771FD256948
:102CF0003783236843F4AA4040F05501FF27216041
:102D000067612268ED43130C18043D40206043F0D6
:102D100081802B46A84C62792A4300F0D18015F0BF
:102D2000010202F09586E2884FF6FF70824202D0DF
:102D3000013292B2E280DE0706D521899E48002941
:102D400003F011860027C78005F00200C2B2002AF6
:102D500002F09E8662894FF6FF718A4203D00132EB
:102D6000954E92B2728103F00200C7B237B1A189C9
:102D70009148002904F0DF800027478105F0040016
:102D8000C2B2002A02F0A886E2894FF6FF718A4299
:102D900003D00132884E92B2F28103F00400C7B230
:102DA00037B1218A8448002904F0BB810027C781FC
:102DB00005F00800C2B2002A02F0B286628A4FF61D
:102DC000FF718A4203D001327B4E92B2728203F0CD
:102DD0000800C7B237B1A18A7748002904F08E8075
:102DE0000027478205F01000C2B2002A02F0BC861C
:102DF000E28A4FF6FF718A4203D001326E4E92B2E0
:102E0000F28203F01000C7B237B1218B6A48002963
:102E100003F037840027C78205F02000C2B2002AE1
:102E200002F0C686628B4FF6FF718A4203D00132F0
:102E3000614E92B2728303F02000C7B237B1A18B0A
:102E40005D48002903F0E1830027478305F0400037
:102E5000C2B2002A02F0D086E28B4FF6FF718A429E
:102E600003D00132544E92B2F28303F04000C7B255
:102E700037B1218C5048002903F0DE840027C78336
:102E8000280602F1DA86A08C4B4B002803F016804E
:102E90004A494B4A4F7A567CB3F822C007F00708DC
:102EA00006F0070E4FF09C0900200137013601F8AB
:102EB000089022F81EC04F72567498845884657129
:102EC0004FF48067C4F202070025C4F202054FF4F4
:102ED00000680120A7F81A80FEF77AFC2869A7F895
:102EE00018802B6843F4AA4141F055024FF0FF08C7
:102EF0002A60C5F814802E68C043330C190410EA08
:102F00000806296042F09F87334694F826502A4AE3
:102F100056EA050100F0C98016F0010102F0268290
:102F2000118D4FF6FF75A94202D0013189B211858A
:102F3000DA0706D5628D2048002A04F04D8100276B
:102F4000078506F00200C2B2002A02F03282A28D8A
:102F50004FF6FF718A4203D00132174D92B2AA8513
:102F600003F00200C7B237B1E18D1348002903F026
:102F7000BE840027878506F00400C2B2002A02F052
:102F80003C82228E4FF6FF718A4203D001320A4DF5
:102F900092B22A8603F00400C7B237B1618E0648A8
:102FA000002903F06F870027078606F00800C2B2E9
:102FB000002A02F0468205E0A801002084090020D2
:102FC00070090020A28E4FF6FF718A4203D00132B1
:102FD000B94D92B2AA8603F00800C7B237B1E18EAC
:102FE000B548002903F09B850027878606F010006E
:102FF000C2B2002A02F04982228F4FF6FF718A4244
:1030000003D00132AC4D92B22A8703F01000C7B250
:1030100037B1618FA848002903F0D48600270787BD
:1030200006F02000C2B2002A02F05382A28F4FF6AF
:10303000FF718A4203D001329F4D92B2AA8703F0FA
:103040002000C7B237B1E18F9B48002904F0A0816E
:103050000027878706F04000C2B2002A02F05D8296
:10306000B4F840204FF6FF718A4204D00132924DED
:1030700092B2A5F8402003F04000C7B247B1B4F8BF
:1030800042108D48002903F0E8840027A0F8407022
:10309000370602F16682B4F84600874B002842F0FA
:1030A0006287A3F8440084F826604FF48067C4F276
:1030B00002070025C4F202054FF400580120A7F8CA
:1030C0001A80FEF785FB2E69A7F818802B6843F459
:1030D000AA4040F055014FF0FF082960C5F8148060
:1030E0002A68F643130C180416EA0806286042F012
:1030F0000886334694F848506F4A56EA050100F0B6
:10310000DD8016F0010102F07783B2F84A104FF625
:10311000FF75A94203D0013189B2A2F84A10D8073D
:1031200008D5B4F84C206448002A03F068860027CC
:10313000A0F84A7006F00200C2B2002A02F08283B0
:10314000B4F84E204FF6FF718A4204D001325A4D36
:1031500092B2A5F84E2003F00200C7B247B1B4F80E
:1031600050105548002904F078800027A0F84E70D0
:1031700006F00400C2B2002A02F08B83B4F8522099
:103180004FF6FF718A4204D001324B4D92B2A5F83E
:10319000522003F00400C7B247B1B4F854104648B7
:1031A000002903F0D5810027A0F8527006F008002E
:1031B000C2B2002A02F09483B4F856204FF6FF7191
:1031C0008A4204D001323C4D92B2A5F8562003F059
:1031D0000800C7B247B1B4F858103748002903F0C7
:1031E0002D860027A0F8567006F01000C2B2002A03
:1031F00002F09D83B4F85A204FF6FF718A4204D042
:1032000001322D4D92B2A5F85A2003F01000C7B23A
:1032100047B1B4F85C102848002903F0068700275E
:10322000A0F85A7006F02000C2B2002A02F0A6836D
:10323000B4F85E204FF6FF718A4204D001321E4D71
:1032400092B2A5F85E2003F02000C7B247B1B4F8EF
:1032500060101948002903F0C9860027A0F85E70A5
:1032600006F04000C2B2002A02F0AF83B4F8622038
:103270004FF6FF718A4204D001320F4D92B2A5F889
:10328000622003F04000C7B247B1B4F864100A48A6
:10329000002903F06D860027A0F86270320602F163
:1032A000B883B4F86800044B002842F0E386A3F822
:1032B000660084F8486001E0A80100204FF48067B0
:1032C000C4F202070025C4F202054FF400480120B1
:1032D000A7F81A80FEF77CFA2E69A7F818802B68E9
:1032E00043F4AA4040F055014FF0FF082960C5F8AB
:1032F00014802A68F643130C180416EA080628609E
:1033000042F03A85334694F86A50BF4A56EA0501BE
:1033100000F0DA8016F0010102F04281B2F86C1080
:103320004FF6FF75A94203D0013189B2A2F86C10A3
:10333000DD0708D5B4F86E20B348002A04F0618197
:103340000027A0F86C7006F00200C2B2002A02F05A
:103350004D81B4F870204FF6FF718A4204D00132DB
:10336000A94D92B2A5F8702003F00200C7B247B190
:10337000B4F87210A448002903F020820027A0F8B6
:10338000707006F00400C2B2002A02F05681B4F850
:1033900074204FF6FF718A4204D001329A4D92B2E6
:1033A000A5F8742003F00400C7B247B1B4F8761052
:1033B0009548002903F00E840027A0F8747006F0E9
:1033C0000800C2B2002A02F05F81B4F878204FF6FC
:1033D000FF718A4204D001328B4D92B2A5F8782059
:1033E00003F00800C7B247B1B4F87A108648002944
:1033F00004F048800027A0F8787006F01000C2B2F0
:10340000002A02F06881B4F87C204FF6FF718A42EE
:1034100004D001327C4D92B2A5F87C2003F010005C
:10342000C7B247B1B4F87E107748002903F0B586DB
:103430000027A0F87C7006F02000C2B2002A02F03B
:103440007181B4F880204FF6FF718A4204D00132B6
:103450006D4D92B2A5F8802003F02000C7B247B1AD
:10346000B4F882106848002904F04A800027A0F8C8
:10347000807006F04000C2B2002A02F07A81B4F8EF
:1034800084204FF6FF718A4204D001325E4D92B221
:10349000A5F8842003F04000C7B247B1B4F8861005
:1034A0005948002904F08E800027A0F88470300667
:1034B00002F18381B4F88A00534B002842F0A485BE
:1034C000A3F8880084F86A604FF44067C4F20207EA
:1034D0000025C4F202054FF400780120A7F81A80F5
:1034E000FEF776F92E69A7F818802B6843F4AA40F6
:1034F00040F055014FF0FF082960C5F814802A6894
:10350000F643130C180416EA0806286042F01384E8
:10351000334694F88C503C4A56EA050100F0DD80B1
:1035200016F0010101F0F685B2F88E104FF6FF7526
:10353000A94203D0013189B2A2F88E10DA0708D56A
:10354000B4F890203048002A03F0B2810027A0F898
:103550008E7006F00200C2B2002A01F00186B4F8B3
:1035600092204FF6FF718A4204D00132264D92B26A
:10357000A5F8922003F00200C7B247B1B4F8941046
:103580002148002903F003800027A0F8927006F07C
:103590000400C2B2002A01F00A86B4F896204FF661
:1035A000FF718A4204D00132174D92B2A5F89620DD
:1035B00003F00400C7B247B1B4F8981012480029CC
:1035C00003F090850027A0F8967006F00800C2B2BC
:1035D000002A01F01386B4F89A204FF6FF718A4250
:1035E00004D00132084D92B2A5F89A2003F00800E9
:1035F000C7B25FB1B4F89C100348002903F02280E1
:103600000027A0F89A7001E0A801002006F0100041
:10361000C2B2002A01F01986B4F89E204FF6FF715D
:103620008A4204D00132B04D92B2A5F89E2003F038
:103630001000C7B247B1B4F8A010AB48002903F09E
:103640005C800027A0F89E7006F02000C2B2002A1D
:1036500001F02286B4F8A2204FF6FF718A4204D00E
:103660000132A14D92B2A5F8A22003F02000C7B20A
:1036700047B1B4F8A4109C48002902F0A78700279E
:10368000A0F8A27006F04000C2B2002A01F02B861A
:10369000B4F8A6204FF6FF718A4204D00132924D51
:1036A00092B2A5F8A62003F04000C7B247B1B4F823
:1036B000A8108D48002903F0DC800027A0F8A67030
:1036C000370601F13486B4F8AC00874B002842F08D
:1036D0006584A3F8AA0084F88C604FF40067C4F2F4
:1036E00002070025C4F202054FF010080120A7F8D8
:1036F0001A80FEF76DF82E69A7F818802B6843F43E
:10370000AA4040F055014FF0FF082960C5F8148029
:103710002A68F643130C180416EA0806286042F0DB
:10372000D682334694F8AE506F4A56EA050100F04F
:10373000DD8016F0010101F09582B2F8B0104FF66D
:10374000FF75A94203D0013189B2A2F8B010D807A1
:1037500008D5B4F8B2206448002A03F0C1810027DC
:10376000A0F8B07006F00200C2B2002A01F0A082F8
:10377000B4F8B4204FF6FF718A4204D001325A4D9A
:1037800092B2A5F8B42003F00200C7B247B1B4F872
:10379000B6105548002903F00A840027A0F8B47039
:1037A00006F00400C2B2002A01F0A982B4F8B820E1
:1037B0004FF6FF718A4204D001324B4D92B2A5F808
:1037C000B82003F00400C7B247B1B4F8BA104648B5
:1037D000002902F0D4870027A0F8B87006F008008E
:1037E000C2B2002A01F0B282B4F8BC204FF6FF71D9
:1037F0008A4204D001323C4D92B2A5F8BC2003F0BD
:103800000800C7B247B1B4F8BE103748002903F02A
:10381000B5860027A0F8BC7006F01000C2B2002ADE
:1038200001F0BB82B4F8C0204FF6FF718A4204D089
:1038300001322D4D92B2A5F8C02003F01000C7B29E
:1038400047B1B4F8C2102848002903F00D840027BE
:10385000A0F8C07006F02000C2B2002A01F0C482B5
:10386000B4F8C4204FF6FF718A4204D001321E4DD5
:1038700092B2A5F8C42003F02000C7B247B1B4F853
:10388000C6101948002903F0C9800027A0F8C470A9
:1038900006F04000C2B2002A01F0CD82B4F8C82080
:1038A0004FF6FF718A4204D001320F4D92B2A5F853
:1038B000C82003F04000C7B247B1B4F8CA100A48A4
:1038C000002903F068810027A0F8C870320601F1D2
:1038D000D682B4F8CE00044B002842F0B083A3F89F
:1038E000CC0084F8AE6001E0A80100204FF48067AE
:1038F000C4F202070025C4F202054FF00108404659
:10390000A7F81A80FDF764FF2E69A7F818802B68C6
:1039100043F4AA4040F055014FF0FF092960C5F873
:1039200014902A68F643130C180416EA0906286056
:1039300042F05682334694F8D050BE4A56EA05010A
:1039400000F0DA8016F0010101F0B882B2F8D2106E
:103950004FF6FF75A94203D0013189B2A2F8D21007
:10396000DD0708D5B4F8D420B248002A03F06B85EF
:103970000027A0F8D27006F00200C2B2002A01F0BF
:10398000C382B4F8D6204FF6FF718A4204D00132C8
:10399000A84D92B2A5F8D62003F00200C7B247B1F5
:1039A000B4F8D810A348002903F0B4840027A0F885
:1039B000D67006F00400C2B2002A01F0CC82B4F83E
:1039C000DA204FF6FF718A4204D00132994D92B24B
:1039D000A5F8DA2003F00400C7B247B1B4F8DC1050
:1039E0009448002903F091810027A0F8DA7006F0CE
:1039F0000800C2B2002A01F0D582B4F8DE204FF6EA
:103A0000FF718A4204D001328A4D92B2A5F8DE20BD
:103A100003F00800C7B247B1B4F8E01085480029A8
:103A200003F03A840027A0F8DE7006F01000C2B25E
:103A3000002A01F0DE82B4F8E2204FF6FF718A42DC
:103A400004D001327B4D92B2A5F8E22003F01000C1
:103A5000C7B247B1B4F8E4107648002903F0D48423
:103A60000027A0F8E27006F02000C2B2002A01F0A0
:103A7000E782B4F8E6204FF6FF718A4204D00132A3
:103A80006C4D92B2A5F8E62003F02000C7B247B112
:103A9000B4F8E8106748002903F018810027A0F85F
:103AA000E67006F04000C2B2002A01F0F082B4F8DD
:103AB000EA204FF6FF718A4204D001325D4D92B286
:103AC000A5F8EA2003F04000C7B247B1B4F8EC1003
:103AD0005848002903F079840027A0F8EA703006DE
:103AE00001F1F982B4F8F000524B002842F0208234
:103AF000A3F8EE0084F8D0604FF48057C4F20207B8
:103B00000025C4F202054FF080080120A7F81A80B2
:103B1000FDF75EFE2E69A7F818802B6843F4AA40D3
:103B200040F05501FF2729606F612A68F643130CA6
:103B300018043E40286042F0A081334694F8F250C9
:103B40003C4A56EA050100F0DE8016F0010100F063
:103B50005D87B2F8F4104FF6FF75A94203D001312A
:103B600089B2A2F8F410DA0708D5B4F8F620314883
:103B7000002A03F008810027A0F8F47006F0020084
:103B8000C2B2002A00F06887B4F8F8204FF6FF713F
:103B90008A4204D00132274D92B2A5F8F82003F0F2
:103BA0000200C7B247B1B4F8FA102248002903F066
:103BB000D0830027A0F8F87006F00400C2B2002AF3
:103BC00000F07187B4F8FC204FF6FF718A4204D0F0
:103BD0000132184D92B2A5F8FC2003F00400C7B2E0
:103BE00047B1B4F8FE101348002902F0F886002708
:103BF000A0F8FC7006F00800C2B2002A00F07A8734
:103C0000B4F800214FF6FF718A4204D00132094D09
:103C100092B2A5F8002103F00800C7B267B1B4F86A
:103C200002110448002902F08B850027A0F80071DA
:103C300002E000BFA801002006F01000C2B2002A76
:103C400000F07F87B4F804214FF6FF718A4204D058
:103C50000132B04D92B2A5F8042103F01000C7B2B2
:103C600047B1B4F80611AB48002903F01C820027C5
:103C7000A0F8047106F02000C2B2002A00F0888784
:103C8000B4F808214FF6FF718A4204D00132A14DE9
:103C900092B2A5F8082103F02000C7B247B1B4F8EA
:103CA0000A119C48002903F059820027A0F80871E6
:103CB00006F04000C2B2002A00F09187B4F80C214F
:103CC0004FF6FF718A4204D00132924D92B2A5F8AC
:103CD0000C2103F04000C7B247B1B4F80E118D4873
:103CE000002902F0D4870027A0F80C71370600F1F4
:103CF0009A87B4F81201874B002842F0FE80A3F89F
:103D0000100184F8F2604FF48057C4F202070025D6
:103D1000C4F202054FF400780120A7F81A80FDF7DD
:103D200057FD2E69A7F818802B6843F4AA4040F08D
:103D300055014FF0FF082960C5F814802A68F64342
:103D4000130C180416EA0806286042F02F80334648
:103D500094F814516F4A56EA050100F0DD8016F020
:103D6000010100F02785B2F816114FF6FF75A94240
:103D700003D0013189B2A2F81611D80708D5B4F8DA
:103D800018216448002A03F0DA830027A0F816718E
:103D900006F00200C2B2002A00F03285B4F81A21FF
:103DA0004FF6FF718A4204D001325A4D92B2A5F803
:103DB0001A2103F00200C7B247B1B4F81C115548EC
:103DC000002903F07E830027A0F81A7106F0040092
:103DD000C2B2002A00F03B85B4F81E214FF6FF71F5
:103DE0008A4204D001324B4D92B2A5F81E2103F055
:103DF0000400C7B247B1B4F820114648002902F0C8
:103E0000CF850027A0F81E7106F00800C2B2002A74
:103E100000F04485B4F822214FF6FF718A4204D0A5
:103E200001323C4D92B2A5F8222103F00800C7B23E
:103E300047B1B4F824113748002902F075850027EE
:103E4000A0F8227106F01000C2B2002A00F04D85E1
:103E5000B4F826214FF6FF718A4204D001322D4D6D
:103E600092B2A5F8262103F01000C7B247B1B4F80A
:103E700028112848002902F0CC860027A0F82671D6
:103E800006F02000C2B2002A00F05685B4F82A21BC
:103E90004FF6FF718A4204D001321E4D92B2A5F84E
:103EA0002A2103F02000C7B247B1B4F82C111948F9
:103EB000002902F0A2840027A0F82A7106F0400031
:103EC000C2B2002A00F05F85B4F82E214FF6FF71D0
:103ED0008A4204D001320F4D92B2A5F82E2103F090
:103EE0004000C7B247B1B4F830110A48002902F0C7
:103EF000D3850027A0F82E71320600F16885B4F84A
:103F00003401044B002842F06480A3F8320184F8A5
:103F1000146101E0A80100204FF48057C4F20207A9
:103F20000025C4F202054FF480580120A7F81A803A
:103F3000FDF74EFC2E69A7F818802B6843F4AA40C1
:103F400040F055014FF0FF082960C5F814802A6839
:103F5000F643130C180416EA0806286041F09D8603
:103F6000334694F83651BF4A56EA050100F0DA802C
:103F700016F0010100F0F282B2F838114FF6FF7529
:103F8000A94203D0013189B2A2F83811DD0708D562
:103F9000B4F83A21B348002A02F0D6860027A0F8E8
:103FA000387106F00200C2B2002A00F0FD82B4F8B7
:103FB0003C214FF6FF718A4204D00132A94D92B2E2
:103FC000A5F83C2103F00200C7B247B1B4F83E1196
:103FD000A448002902F03C860027A0F83C7106F0B6
:103FE0000400C2B2002A00F00683B4F840214FF664
:103FF000FF718A4204D001329A4D92B2A5F8402155
:1040000003F00400C7B247B1B4F842119548002943
:1040100002F0A2850027A0F8407106F00800C2B2A5
:10402000002A00F00F83B4F844214FF6FF718A4252
:1040300004D001328B4D92B2A5F8442103F0080060
:10404000C7B247B1B4F846118648002903F043814E
:104050000027A0F8447106F01000C2B2002A00F058
:104060001883B4F848214FF6FF718A4204D0013218
:104070007C4D92B2A5F8482103F01000C7B247B1B9
:10408000B4F84A117748002903F0C8800027A0F847
:10409000487106F02000C2B2002A00F02183B4F873
:1040A0004C214FF6FF718A4204D001326D4D92B21D
:1040B000A5F84C2103F02000C7B247B1B4F84E1167
:1040C0006848002902F0FB860027A0F84C7106F032
:1040D0004000C2B2002A00F02A83B4F850214FF603
:1040E000FF718A4204D001325E4D92B2A5F8502190
:1040F00003F04000C7B247B1B4F852115948002943
:1041000002F0DC820027A0F85071300600F1338302
:10411000B4F85601534B002841F0D486A3F854015B
:1041200084F836614FF48057C4F202070025C4F2C8
:1041300002054FF400680120A7F81A80FDF748FB3C
:104140002E69A7F818802B6843F4AA4040F0550167
:104150004FF0FF082960C5F814802A68F643130C55
:10416000180416EA0806286041F07D85334694F865
:1041700058013C4A56EA000100F0C28016F00101E5
:1041800000F0C080B2F85A114FF6FF70814203D0A0
:10419000013189B2A2F85A11DA0701F1868706F0D7
:1041A0000202D2B2002A00F0D380B4F85E214FF6AA
:1041B000FF718A4204D001322A4892B2A0F85E21EF
:1041C00003F00201C8B2002841F0AA8706F00401FA
:1041D000CAB2002A00F0E380B4F862214FF6FF7102
:1041E0008A4204D001321F4892B2A0F8622103F043
:1041F0000401C8B2002841F09E8706F00801CAB247
:10420000002A00F0F380B4F866214FF6FF718A426D
:1042100004D00132134892B2A0F8662103F00801DD
:10422000C8B2002841F0718706F01001CAB2002A16
:1042300000F00381B4F86A214FF6FF718A4204D07E
:104240000132084892B2A0F86A2103F01001C8B206
:10425000002841F04F8706F02001CAB2002A00F082
:10426000138101E0A8010020B4F86E214FF6FF7120
:104270008A4204D00132B64892B2A0F86E2103F00F
:104280002001C8B2002841F02A8706F04001CAB2D6
:10429000002A00F02081B4F872214FF6FF718A42A3
:1042A00004D00132AA4892B2A0F8722103F0400172
:1042B000C8B2002841F00887300600F13081B4F818
:1042C0007811A34B002901F0F585A249A24A4F7A43
:1042D000557CB3F8768107F0070905F0070E4FF01B
:1042E000EC0A00200137013501F809A022F81E80F0
:1042F0004F725574A3F87801A3F8760184F85861D9
:10430000BDE8F88FB2F85C01002801F0D986914D24
:10431000914895F809B0477CB2F85A91A2F85C111F
:104320000BF0070A07F00708A2F85A1106F002027C
:104330000BF1010C01374FF0E50BD2B205F80AB0D2
:1043400085F809C020F818904774002A7FF42DAF33
:10435000B4F860017E49002801F000877D4D7E4859
:1043600095F809B0477CB1F85E91A1F860210BF097
:10437000070A07F00708A1F85E2106F004010BF117
:10438000010E01374FF0E60BCAB205F80AB085F806
:1043900009E020F818904774002A7FF41DAFB4F8A4
:1043A00064016B49002801F0DD866A4D6A4895F882
:1043B00009B0477CB1F86291A1F864210BF0070ABB
:1043C00007F00708A1F8622106F008010BF1010EC1
:1043D00001374FF0E70BCAB205F80AB085F809E0DB
:1043E00020F818904774002A7FF40DAFB4F86801E4
:1043F0005749002801F0BA86564D574895F809B03C
:10440000477CB1F86691A1F868210BF0070A07F024
:104410000708A1F8662106F010010BF1010E013723
:104420004FF0E80BCAB205F80AB085F809E020F8A9
:1044300018904774002A7FF4FDAEB4F86C0144492B
:10444000002801F08386434D434895F809B0477C26
:10445000B1F86A91A1F86C210BF0070A07F0070880
:10446000A1F86A2106F020010BF1010E01374FF08F
:10447000E90BCAB205F80AB085F809E020F81890EF
:104480004774002A7FF4F0AEB4F870013049002878
:1044900001F070862F4D304895F809B0477CB1F88F
:1044A0006E91A1F870210BF0070A07F00708A1F838
:1044B0006E2106F040010BF1010E01374FF0EA0BBF
:1044C000CAB205F80AB085F809E020F818904774D8
:1044D000002A7FF4E0AEB4F874011D49002801F011
:1044E00039861D481B4D477C95F809B0B1F872918B
:1044F000A1F8742107F007080BF0070A01370BF148
:10450000010E20F818904FF0EB0B4774300605F8B9
:104510000AB085F809E0A1F872217FF5D0AEB4F8B1
:1045200076214FF6FF718A4204D00132084892B2D8
:10453000A0F8762119067FF5E1AEB4F87811044BA6
:10454000002903F07D800020A3F87601D6E600BFA5
:10455000A80100208409002070090020B2F83A0167
:10456000002801F01B869048904D477C95F809A0E3
:10457000B2F83881A2F83A1107F0070C01370AF0B7
:10458000070920F81C80477406F002000AF1010EAA
:10459000A2F838114FF0DD0AC2B205F809A085F87B
:1045A00009E0002A7FF403ADB4F83E518049002DA4
:1045B00001F0EE867C487D4D477C95F809A0B1F866
:1045C0003C81A1F83E2107F0070C01370AF00709EA
:1045D00020F81C80477406F004000AF1010EA1F8CF
:1045E0003C214FF0DE0AC2B205F809A085F809E0C7
:1045F000002A7FF4FAACB4F842516D49002D01F065
:1046000015866948694D477C95F809A0B1F8408145
:10461000A1F8422107F0070C01370AF0070920F83A
:104620001C80477406F008000AF1010EA1F8402131
:104630004FF0DF0AC2B205F809A085F809E0002AA8
:104640007FF4F1ACB4F846515949002D01F0F285E0
:104650005548564D477C95F809A0B1F84481A1F81A
:10466000462107F0070C01370AF0070920F81C80E3
:10467000477406F010000AF1010EA1F844214FF032
:10468000E00AC2B205F809A085F809E0002A7FF423
:10469000E8ACB4F84A514649002D01F0CF854248B4
:1046A000424D477C95F809A0B1F84881A1F84A210C
:1046B00007F0070C01370AF0070920F81C8047743F
:1046C00006F020000AF1010EA1F848214FF0E10A9E
:1046D000C2B205F809A085F809E0002A7FF4DFAC32
:1046E000B4F84E513249002D01F0B2852E482F4DBD
:1046F000477C95F809A0B1F84C81A1F84E2107F04C
:10470000070C01370AF0070920F81C80477406F0EF
:1047100040000AF1010EA1F84C214FF0E20AC2B2AA
:1047200005F809A085F809E0002A7FF4D6ACB4F8B2
:1047300052511F49002D01F017861B481B4D477C25
:1047400095F809A0B1F85081A1F8522107F0070CA3
:104750000AF0070901370AF1010E20F81C804FF01A
:10476000E30A4774300605F809A085F809E0A1F8C6
:1047700050217FF5CDACB4F854214FF6FF718A4239
:1047800004D001320A4892B2A0F8542119067FF5EC
:10479000C7ACB4F85611064B002902F0DD8700259E
:1047A000A3F85451BCE400BF700900208409002024
:1047B000A8010020B2F81801002801F0E384904815
:1047C000904D477C95F809A0B2F81681A2F818110F
:1047D00007F0070C01370AF0070920F81C8047741E
:1047E00006F002000AF1010EA2F816114FF0D50AE8
:1047F000C2B205F809A085F809E0002A7FF4CEAA24
:10480000B4F81C518049002D01F02E857C487D4D67
:10481000477C95F809A0B1F81A81A1F81C2107F08E
:10482000070C01370AF0070920F81C80477406F0CE
:1048300004000AF1010EA1F81A214FF0D60AC2B203
:1048400005F809A085F809E0002A7FF4C5AAB4F8A4
:1048500020516D49002D01F00B856948694D477C59
:1048600095F809A0B1F81E81A1F8202107F0070CE6
:1048700001370AF0070920F81C80477406F0080089
:104880000AF1010EA1F81E214FF0D70AC2B205F8B5
:1048900009A085F809E0002A7FF4BCAAB4F82451E5
:1048A0005949002D01F0E8845548564D477C95F84C
:1048B00009A0B1F82281A1F8242107F0070C0137E3
:1048C0000AF0070920F81C80477406F010000AF16E
:1048D000010EA1F822214FF0D80AC2B205F809A0B2
:1048E00085F809E0002A7FF4B3AAB4F828514649B4
:1048F000002D01F0C5844248424D477C95F809A03F
:10490000B1F82681A1F8282107F0070C01370AF039
:10491000070920F81C80477406F020000AF1010EF8
:10492000A1F826214FF0D90AC2B205F809A085F8EE
:1049300009E0002A7FF4AAAAB4F82C513249002DCC
:1049400001F0A2842E482F4D477C95F809A0B1F8BC
:104950002A81A1F82C2107F0070C01370AF007097A
:1049600020F81C80477406F040000AF1010EA1F8FF
:104970002A214FF0DA0AC2B205F809A085F809E049
:10498000002A7FF4A1AAB4F830511F49002D01F08C
:104990007F841C4D1A4895F809A0477CB1F82E81F8
:1049A000A1F830210AF0070907F0070C0AF1010EFF
:1049B00001374FF0DB0AA1F82E21320605F809A0D5
:1049C00085F809E020F81C8047747FF598AAB4F8B0
:1049D00032214FF6FF718A4204D001320A4892B266
:1049E000A0F832211F067FF592AAB4F83411064BC5
:1049F000002902F079860025A3F83251FFF787BA23
:104A00007009002084090020A8010020B2F8F67087
:104A1000002F01F0BF839048904D477C95F809A086
:104A2000B2F8F480A2F8F61007F0070C01370AF08C
:104A3000070920F81C80477406F002000AF1010EF5
:104A4000A2F8F4104FF0CD0AC2B205F809A085F81B
:104A500009E0002A7FF498A8B4F8FA508049002DA4
:104A600001F06E847C487D4D477C95F809A0B1F833
:104A7000F880A1F8FA2007F0070C01370AF00709BF
:104A800020F81C80477406F004000AF1010EA1F81A
:104A9000F8204FF0CE0AC2B205F809A085F809E067
:104AA000002A7FF48FA8B4F8FE506D49002D01F064
:104AB0004B846948694D477C95F809A0B1F8FC80A2
:104AC000A1F8FE2007F0070C01370AF0070920F8CB
:104AD0001C80477406F008000AF1010EA1F8FC20C2
:104AE0004FF0CF0AC2B205F809A085F809E0002A04
:104AF0007FF486A8B4F802515949002D01F02884AA
:104B00005548564D477C95F809A0B1F80081A1F8A9
:104B1000022107F0070C01370AF0070920F81C8072
:104B2000477406F010000AF1010EA1F800214FF0C1
:104B3000D00AC2B205F809A085F809E0002A7FF47E
:104B400081A8B4F806514649002D01F00584424879
:104B5000424D477C95F809A0B1F80481A1F80621DF
:104B600007F0070C01370AF0070920F81C8047748A
:104B700006F020000AF1010EA1F804214FF0D10A3D
:104B8000C2B205F809A085F809E0002A7FF478A8E8
:104B9000B4F80A513249002D01F0E2832E482F4D1E
:104BA000477C95F809A0B1F80881A1F80A2107F01F
:104BB000070C01370AF0070920F81C80477406F03B
:104BC00040000AF1010EA1F808214FF0D20AC2B24A
:104BD00005F809A085F809E0002A7FF46FA8B4F869
:104BE0000E511F49002D01F0FF821C4D1A4895F807
:104BF00009A0477CB1F80C81A1F80E210AF0070941
:104C000007F0070C01370AF1010E47744FF0D30A81
:104C1000370605F809A085F809E020F81C80A1F8FE
:104C20000C217FF566A8B4F810214FF6FF718A4277
:104C300004D001320A4892B2A0F810211D067FF577
:104C400060A8B4F81211064B002902F01086002566
:104C5000A3F81051FFF755B870090020840900200F
:104C6000A8010020B2F8B200002801F0AA82904802
:104C7000904D477C95F809A0B2F8B080A2F8B21028
:104C800007F0070C01370AF0070920F81C80477469
:104C900006F002000AF1010EA2F8B0104FF0BD0AB2
:104CA000C2B205F809A085F809E0002A7EF460ADDB
:104CB000B4F8B6508049002D01F0EE827C487D4D5D
:104CC000477C95F809A0B1F8B480A1F8B62007F0A8
:104CD000070C01370AF0070920F81C80477406F01A
:104CE00004000AF1010EA1F8B4204FF0BE0AC2B2CE
:104CF00005F809A085F809E0002A7EF457ADB4F85C
:104D0000BA506D49002D01F0CB826948694D477C4E
:104D100095F809A0B1F8B880A1F8BA2007F0070CFF
:104D200001370AF0070920F81C80477406F00800D4
:104D30000AF1010EA1F8B8204FF0BF0AC2B205F87F
:104D400009A085F809E0002A7EF44EADB4F8BE5003
:104D50005949002D01F0A8825548564D477C95F8D9
:104D600009A0B1F8BC80A1F8BE2007F0070C0137FC
:104D70000AF0070920F81C80477406F010000AF1B9
:104D8000010EA1F8BC204FF0C00AC2B205F809A07C
:104D900085F809E0002A7EF445ADB4F8C2504649D2
:104DA000002D01F085824248424D477C95F809A0CC
:104DB000B1F8C080A1F8C22007F0070C01370AF053
:104DC000070920F81C80477406F020000AF1010E44
:104DD000A1F8C0204FF0C10AC2B205F809A085F8B9
:104DE00009E0002A7EF43CADB4F8C6503249002DEB
:104DF00001F0BE822E482F4D477C95F809A0B1F8EE
:104E0000C480A1F8C62007F0070C01370AF0070993
:104E100020F81C80477406F040000AF1010EA1F84A
:104E2000C4204FF0C20AC2B205F809A085F809E013
:104E3000002A7EF433ADB4F8CA501F49002D01F0AA
:104E40009B821C4D1A4895F809A0477CB1F8C88090
:104E5000A1F8CA200AF0070907F0070C0AF1010EB1
:104E600001374FF0C30AA1F8C820320605F809A09F
:104E700085F809E020F81C8047747EF52AADB4F867
:104E8000CC204FF6FF718A4204D001320A4892B218
:104E9000A0F8CC201F067EF524ADB4F8CE10064B4A
:104EA000002902F005840025A3F8CC50FEF719BDB7
:104EB0007009002084090020A8010020B2F8D40065
:104EC000002801F06F819048904D477C95F809A02B
:104ED000B2F8D280A2F8D41007F0070C01370AF01C
:104EE000070920F81C80477406F002000AF1010E41
:104EF000A2F8D2104FF0C50AC2B205F809A085F891
:104F000009E0002A7EF43DADB4F8D8508049002D68
:104F100001F006827C487D4D477C95F809A0B1F8E8
:104F2000D680A1F8D82007F0070C01370AF007094E
:104F300020F81C80477406F004000AF1010EA1F865
:104F4000D6204FF0C60AC2B205F809A085F809E0DC
:104F5000002A7EF434ADB4F8DC506D49002D01F028
:104F6000D7816948694D477C95F809A0B1F8DA8086
:104F7000A1F8DC2007F0070C01370AF0070920F838
:104F80001C80477406F008000AF1010EA1F8DA202F
:104F90004FF0C70AC2B205F809A085F809E0002A57
:104FA0007EF42BADB4F8E0505949002D01F0B481E6
:104FB0005548564D477C95F809A0B1F8DE80A1F818
:104FC000E02007F0070C01370AF0070920F81C80E1
:104FD000477406F010000AF1010EA1F8DE204FF030
:104FE000C80AC2B205F809A085F809E0002A7EF4D3
:104FF00022ADB4F8E4504649002D01F099814248B1
:10500000424D477C95F809A0B1F8E280A1F8E42070
:1050100007F0070C01370AF0070920F81C804774D5
:1050200006F020000AF1010EA1F8E2204FF0C90AB3
:10503000C2B205F809A085F809E0002A7EF419AD8E
:10504000B4F8E8503249002D01F076812E482F4DFA
:10505000477C95F809A0B1F8E680A1F8E82007F0B0
:10506000070C01370AF0070920F81C80477406F086
:1050700040000AF1010EA1F8E6204FF0CA0AC2B2C0
:1050800005F809A085F809E0002A7EF410ADB4F80F
:10509000EC501F49002D01F047811B481B4D477CF8
:1050A00095F809A0B1F8EA80A1F8EC2007F0070C08
:1050B0000AF0070901370AF1010E20F81C804FF0B1
:1050C000CB0A4774300605F809A085F809E0A1F875
:1050D000EA207EF507ADB4F8EE204FF6FF718A4264
:1050E00004D001320A4892B2A0F8EE2019067EF5EB
:1050F00001ADB4F8F010064B002902F09C830025A6
:10510000A3F8EE50FEF7F6BC7009002084090020D9
:10511000A8010020B2F89000002801F04A809048D1
:10512000904D477C95F809A0B2F88E80A2F89010B7
:1051300007F0070C01370AF0070920F81C804774B4
:1051400006F002000AF1010EA2F88E104FF0B50A27
:10515000C2B205F809A085F809E0002A7EF4FFA98B
:10516000B4F894508049002D01F00A817C487D4DAF
:10517000477C95F809A0B1F89280A1F8942007F037
:10518000070C01370AF0070920F81C80477406F065
:1051900004000AF1010EA1F892204FF0B60AC2B243
:1051A00005F809A085F809E0002A7EF4F6A9B4F80C
:1051B00098506D49002D01F08F806948694D477CFA
:1051C00095F809A0B1F89680A1F8982007F0070C8F
:1051D00001370AF0070920F81C80477406F0080020
:1051E0000AF1010EA1F896204FF0B70AC2B205F8F5
:1051F00009A085F809E0002A7EF4EDA9B4F89C50D6
:105200005949002D01F06C805548564D477C95F862
:1052100009A0B1F89A80A1F89C2007F0070C01378B
:105220000AF0070920F81C80477406F010000AF104
:10523000010EA1F89A204FF0B80AC2B205F809A0F1
:1052400085F809E0002A7EF4E7A9B4F8A0504649A1
:10525000002D01F049804248424D477C95F809A055
:10526000B1F89E80A1F8A02007F0070C01370AF0E2
:10527000070920F81C80477406F020000AF1010E8F
:10528000A1F89E204FF0B90AC2B205F809A085F82E
:1052900009E0002A7EF4DEA9B4F8A4503249002DBA
:1052A00001F026802E482F4D477C95F809A0B1F8D3
:1052B000A280A1F8A42007F0070C01370AF0070923
:1052C00020F81C80477406F040000AF1010EA1F896
:1052D000A2204FF0BA0AC2B205F809A085F809E089
:1052E000002A7EF4D5A9B4F8A8501F49002D00F07B
:1052F00073871C4D1A4895F809A0477CB1F8A68021
:10530000A1F8A8200AF0070907F0070C01370AF1F5
:10531000010E47744FF0BB0A370605F809A085F85F
:1053200009E020F81C80A1F8A6207EF5CCA9B4F8ED
:10533000AA204FF6FF718A4204D001320A4892B285
:10534000A0F8AA201D067EF5C6A9B4F8AC10064B3D
:10535000002902F038820025A3F8AA50FEF7BBB955
:105360007009002084090020A8010020508D002829
:1053700000F02F878748884D477C95F809A0B2F840
:105380002880518507F0070C01370AF0070920F83B
:105390001C80477406F002000AF1010E11854FF0DF
:1053A0009D0AC2B205F809A085F809E0002A7DF43B
:1053B000CEADE58D7949002D00F09E877548764D7C
:1053C000477C95F809A0B1F82C80CA8507F0070C36
:1053D00001370AF0070920F81C80477406F0040022
:1053E0000AF1010E8A854FF09E0AC2B205F809A0A3
:1053F00085F809E0002A7DF4C4AD658E6749002D6B
:1054000000F07D876348644D477C95F809A0B1F8AA
:1054100030804A8607F0070C01370AF0070920F8A8
:105420001C80477406F008000AF1010E0A864FF04E
:105430009F0AC2B205F809A085F809E0002A7DF4A8
:10544000C1ADE58E5549002D00F05C875148524DA5
:10545000477C95F809A0B1F83480CA8607F0070C9C
:1054600001370AF0070920F81C80477406F0100085
:105470000AF1010E8A864FF0A00AC2B205F809A00F
:1054800085F809E0002A7DF4B7AD658F4349002D0A
:1054900000F03B873F48404D477C95F809A0B1F8A4
:1054A00038804A8707F0070C01370AF0070920F80F
:1054B0001C80477406F020000AF1010E0A874FF0A5
:1054C000A10AC2B205F809A085F809E0002A7DF416
:1054D000ADADE58F3149002D00F05E872D482E4D92
:1054E000477C95F809A0B1F83C80CA8707F0070C03
:1054F00001370AF0070920F81C80477406F04000C5
:105500000AF1010E8A874FF0A20AC2B205F809A07B
:1055100085F809E0002A7DF4A3ADB4F842501F4994
:10552000002D00F031871C4D1A4895F809A0477CE2
:10553000B1F84080A1F842200AF0070907F0070CF3
:1055400001370AF1010E47744FF0A30A370605F838
:1055500009A085F809E020F81C80A1F840207DF51D
:105560009AADB4F844204FF6FF718A4204D001325C
:105570000A4892B2A0F844201D067DF594ADB4F817
:105580004610064B002902F03A810025A3F844504A
:10559000FDF789BD7009002084090020A8010020C2
:1055A000B2F86E00002800F010869048904D477CBD
:1055B00095F809A0B2F86C80A2F86E1007F0070CFD
:1055C00001370AF0070920F81C80477406F0020032
:1055D0000AF1010EA2F86C104FF0AD0AC2B205F844
:1055E00009A085F809E0002A7DF4B3AEB4F8725042
:1055F0008049002D00F068867C487D4D477C95F8F9
:1056000009A0B1F87080A1F8722007F0070C0137EB
:105610000AF0070920F81C80477406F004000AF11C
:10562000010EA1F870204FF0AE0AC2B205F809A031
:1056300085F809E0002A7DF4AAAEB4F876506D49E9
:10564000002D00F039866948694D477C95F809A01E
:10565000B1F87480A1F8762007F0070C01370AF042
:10566000070920F81C80477406F008000AF1010EB3
:10567000A1F874204FF0AF0AC2B205F809A085F86E
:1056800009E0002A7DF4A1AEB4F87A505949002D02
:1056900000F016865548564D477C95F809A0B1F89C
:1056A0007880A1F87A2007F0070C01370AF0070983
:1056B00020F81C80477406F010000AF1010EA1F8D2
:1056C00078204FF0B00AC2B205F809A085F809E0C9
:1056D000002A7DF498AEB4F87E504649002D00F0C3
:1056E000BB854248424D477C95F809A0B1F87C80C3
:1056F000A1F87E2007F0070C01370AF0070920F80F
:105700001C80477406F020000AF1010EA1F87C20ED
:105710004FF0B10AC2B205F809A085F809E0002AE5
:105720007DF48FAEB4F882503249002D00F0988598
:105730002E482F4D477C95F809A0B1F88080A1F83C
:10574000822007F0070C01370AF0070920F81C80B7
:10575000477406F040000AF1010EA1F880204FF0D6
:10576000B20AC2B205F809A085F809E0002A7DF462
:1057700086AEB4F886501F49002D00F031851B48D5
:105780001B4D477C95F809A0B1F88480A1F88620CC
:1057900007F0070C0AF0070901370AF1010E20F89B
:1057A0001C804FF0B30A4774300605F809A085F84D
:1057B00009E0A1F884207DF57DAEB4F888204FF68D
:1057C000FF718A4204D001320A4892B2A0F88820C0
:1057D00019067DF577AEB4F88A10064B002901F062
:1057E0004B870025A3F88850FDF76CBE7009002098
:1057F00084090020A8010020B2F84C00002800F025
:10580000DC849048904D477C95F809A0B2F84A8016
:10581000A2F84C1007F0070C01370AF0070920F82E
:105820001C80477406F002000AF1010EA2F84A102B
:105830004FF0A50AC2B205F809A085F809E0002AD0
:105840007DF47EACB4F850508049002D00F0D8842F
:105850007C487D4D477C95F809A0B1F84E80A1F8B1
:10586000502007F0070C01370AF0070920F81C80C8
:10587000477406F004000AF1010EA1F84E204FF023
:10588000A60AC2B205F809A085F809E0002A7DF44D
:1058900075ACB4F854506D49002D00F06F84694820
:1058A000694D477C95F809A0B1F85280A1F85420C1
:1058B00007F0070C01370AF0070920F81C8047742D
:1058C00006F008000AF1010EA1F852204FF0A70AD5
:1058D000C2B205F809A085F809E0002A7DF46CAC95
:1058E000B4F858505949002D00F050845548564D91
:1058F000477C95F809A0B1F85680A1F8582007F028
:10590000070C01370AF0070920F81C80477406F0DD
:1059100010000AF1010EA1F856204FF0A80AC2B2F9
:1059200005F809A085F809E0002A7DF463ACB4F815
:105930005C504649002D00F05B844248424D477C54
:1059400095F809A0B1F85A80A1F85C2007F0070C7F
:1059500001370AF0070920F81C80477406F0200080
:105960000AF1010EA1F85A204FF0A90AC2B205F8B7
:1059700009A085F809E0002A7DF45AACB4F860501B
:105980003249002D00F038842E482F4D477C95F881
:1059900009A0B1F85E80A1F8602007F0070C01377C
:1059A0000AF0070920F81C80477406F040000AF14D
:1059B000010EA1F85E204FF0AA0AC2B205F809A0B4
:1059C00085F809E0002A7DF451ACB4F864501F4911
:1059D000002D00F07D841C4D1A4895F809A0477CE5
:1059E000B1F86280A1F864200AF0070907F0070CFB
:1059F0000AF1010E01374FF0AB0AA1F8622032061E
:105A000005F809A085F809E020F81C8047747DF5A9
:105A100048ACB4F866204FF6FF718A4204D00132D8
:105A20000A4892B2A0F866201F067DF542ACB4F891
:105A30006810064B002901F073860025A3F8665014
:105A4000FDF737BC7009002084090020A801002060
:105A50002089002800F0AA83C448C549477A4E7CB3
:105A6000B4F806C0228107F007084FF09509013706
:105A700006F0070E00F80890477205F002000136A4
:105A8000E280C2B221F81EC04E74002A7DF462A9E1
:105A9000A689B849002E00F0BD83B548B34E477CB7
:105AA00096F809A0B1F80A808A8107F0070C01373F
:105AB0000AF0070920F81C80477405F004000AF179
:105AC000010E4A814FF0960AC2B206F809A086F884
:105AD00009E0002A7DF458A9268AA649002E00F084
