:020000040800F2
:1000000004130020090F0008050F0008050F000861
:10001000050F0008050F0008050F0008000000008C
:10002000000000000000000000000000050F0008B4
:10003000050F000800000000050F0008050F00086C
:10004000050F0008050F0008050F0008050F000840
:10005000050F0008050F0008050F0008050F000830
:10006000050F0008050F0008050F0008050F000820
:10007000050F0008050F0008050F0008050F000810
:10008000050F0008050F0008050F0008050F000800
:10009000050F0008050F0008050F0008050F0008F0
:1000A000050F0008050F0008050F0008050F0008E0
:1000B000050F0008050F0008E5150008050F0008EA
:1000C000050F0008050F0008050F0008050F0008C0
:1000D000050F000875150008050F0008050F00083A
:1000E000050F0008050F000839120008050F000869
:1000F000050F0008050F0008050F0008050F000890
:10010000050F0008050F0008050F0008050F00087F
:10011000050F0008050F0008050F0008050F00086F
:10012000050F0008050F0008050F0008050F00085F
:10013000050F0008050F0008050F0008050F00084F
:10014000050F0008050F0008050F00086D120008D4
:10015000050F0008050F0008050F0008050F00082F
:10016000050F0008050F0008050F0008050F00081F
:10017000050F0008050F0008050F0008050F00080F
:10018000050F0008050F000810B4C47814BB00EB7D
:10019000820003339B10D0F8D0001BD051F8042B01
:1001A000026001225C1E0431934204F0010411D06C
:1001B00034B151F8044C022204319342046009D056
:1001C00051F8044C046051F8044B0232043193425C
:1001D0000460F5D1002010BC704700BF033270B43A
:1001E0009510D0F8D0401ED00B4620686A1E43F808
:1001F000040B02F0010001220433954211D030B10A
:100200002068022243F8040C0433954209D0266882
:1002100043F8046C266843F8046B023204339542B9
:10022000F5D101EB8501084670BC70472DE9F00F50
:10023000002301224024012984B0C370827084808D
:1002400000F0BE80002900F098800178427800918B
:100250004FF40064C3600461002A00F0D3804FF4BF
:1002600060654FF488664FF48061039502960191B2
:100270009B464FEA421AAAF1200220230BF5106593
:100280000BF53066C2F34014021D53458561466587
:100290001ED04CB10BF512640BF532614023946112
:1002A00051650432534513D0814603F1200705EB15
:1002B000030806EB030CE8194033F719C2F818805D
:1002C000C2F854C0D061976508325345EDD1484615
:1002D000019C44610099029CC0F8CC40002944D0A4
:1002E0000BF5A06202EB4115AC1A0BF5A463203CA0
:1002F000C0F89020021DAB42C4F3401111D031B1BF
:10030000C2F890300BF5A8630432AB4209D003F178
:100310002004C2F890304033C2F894400832AB4217
:10032000F5D1009C0BF5805202EB0435A91A0BF5B0
:100330000053A1F58051C0F8D020021DAB42C1F39B
:10034000003112D031B1C2F8D03003F580530432FD
:10035000AB420AD003F58054C2F8D03003F5005305
:10036000C2F8D4400832AB42F4D10399C0F80C1162
:10037000002004B0BDE8F00F70470C254FF4A066D4
:100380000023C1720570C6804FF4606100954FF480
:1003900080664FF4886506224FF40064C4F20403BB
:1003A000C4F20401C4F20405C4F2040642700391CD
:1003B00002950196C4F204049B46C360046158E7A9
:1003C00008250226C1724FF4A0710570C180067223
:1003D0004FF4606100954FF480664FF48865042205
:1003E0004FF400644FF0A043C5F20001C5F20005D0
:1003F000C5F200064270039102950196C5F2000411
:100400009B46DAE74FF460634FF488614FF48064F1
:1004100003930291019493465BE700BF70B5027AA3
:100420000023012A044682B01E46C0685ED0C1681F
:1004300041F04005C5600320019302F0EFFCE36842
:100440001A694FF454650192C0F2030510E002F0FE
:10045000E5FCE3681A6901920199032000290DDB8C
:1004600002F0DCFCE3681869013D1946019025D0D3
:1004700001990320002905F1FF35E8DA019840F0E1
:10048000010201920199196118694FF454620190B7
:10049000C0F2030208E0186901900199C90709D563
:1004A0001869013A019005D0019911F0010F02F18C
:1004B000FF32F0D1032002F0B1FCE168627A002A39
:1004C0000CBF4FF434134FF474138B63142002F0F9
:1004D000C1FCE178012906D1E068826822F03E0380
:1004E00043F02A018160002002B070BD816B657A03
:1004F00063F310410DB141F480118163C2686FF361
:1005000086126FF396526FF351426FF3D342C2607B
:1005100000230320009302F081FCE36818694FF484
:1005200054650090C0F203050FE002F077FCE36829
:100530001A6900920099032000290CDB02F06EFC7E
:10054000E3681969013D009124D000990320002936
:1005500005F1FF35E9DA009840F0010200920099B8
:10056000196118694FF454620090C0F2030208E068
:10057000186900900099C80709D51869013A0090D8
:1005800005D0009911F0010F02F1FF32F0D10320E4
:1005900002F044FCE0780128A5D1052262F344066C
:1005A000E36846F020069E6093E700BFC3689A6840
:1005B00042F0010098600020704700BFC3689A684D
:1005C00022F0010098600020704700BF00B583B0A2
:1005D00000230193019A42F020030193019A61F3F1
:1005E0008A1201920199C068016102694FF4546353
:1005F0000192C0F2030308E00269019201998906A1
:1006000009D50269013B019205D0019911F0200F33
:1006100003F1FF33F0D1032002F000FC002003B00F
:1006200000BD00BF00B583B000230193019941F0E4
:1006300010020192019BC268136110694FF4546368
:100640000190C0F2030308E0106901900199C80607
:1006500009D51069013B019005D0019911F0100FE7
:1006600003F1FF33F0D1032002F0D8FB002003B0E8
:1006700000BD00BFC26808B5D36801296FF35D7380
:100680006FF39E7308D049B943F08040D0603220A8
:1006900002F0E0FB002008BD43F000533220D3609D
:1006A00002F0D8FB002008BDC368586900F00101C2
:1006B00081F00100704700BFC3685A699869104013
:1006C000704700BF2DE9F04106460020D6F80C2106
:1006D000316910600C6860F3CC240C600346F07A3A
:1006E000012882B000F0C880F26800230093009CCB
:1006F00044F020000090009B102161F38A130093C6
:10070000009C146110694FF454630090C0F203031D
:1007100008E0146900940098810609D51169013B2D
:10072000009105D0009911F0200F03F1FF33F0D1B3
:10073000032002F073FB00220192019CF06844F058
:1007400010010191019B036102694FF4546301920E
:10075000C0F2030308E001690191019AD40609D5AA
:100760000469013B019405D0019C14F0100F03F1C2
:10077000FF33F0D1032002F051FB306900224FF02B
:10078000FF31026142618161C2617478002C42D004
:100790003146344690464FF0904CFF2709E0C3F8AD
:1007A00000C0C3F810809F60737801320434934214
:1007B00010D9A3691D68C5F3076505F08005EDB282
:1007C000002DECD11D601D619F60737801320434EF
:1007D0009342EED8FBB1002296464FF09047FF259A
:1007E00008E01F60C3F810E09D60737801320431A7
:1007F000934210D94B6D1C68C4F3076404F0800465
:10080000E4B2002CEDD11C601C619D607378013254
:1008100004319342EED8046944F480730361F278A2
:10082000012A07D102F58171C0F20101402464F36D
:1008300059410163F3684FF4006200206FF080417A
:10084000C8F200024FF0FF34986159615C60596151
:100850009A61F278996982420CBF1022024642F4F2
:10086000872242F0081242F4401221EA02011143A9
:10087000996102B0BDE8F0810D68F268C02780245C
:100880004FF4800067F30F0345F003050D6064F338
:100890001F4364F30F004FF4A07154629062C2F8DA
:1008A000043161F30F036FF31F43C2F80831C2F83C
:1008B0000C311AE703699868C0F341014B1E022B03
:1008C00002D8024AD05C704703207047D047000826
:1008D0000369826998681168C0F34100022808D052
:1008E0006FF30A0111605A6842F480715960002068
:1008F0007047032060F30A0111605A6842F4807166
:1009000059600020704700BFF0B44B780C7800228B
:10091000012B21D000EB840501276D6D2B68C3F3FB
:10092000072606F0800607FA04F4F6B264F31F42C5
:1009300076BB8F68CE78CC88016967F30A0366F3CB
:10094000934364F3995343F0805040F400432B6089
:10095000C8690243CA611FE000EB840503FA04F38F
:10096000AD692C68C4F3072606F08006F6B263F37F
:100970000F026EB98F68CE78C98867F30A0466F3F0
:10098000934461F3995444F0805444F400442C603F
:100990000369D8690243DA610020F0BC704700BFE8
:1009A00030B44C780023012C1A4613D00C7801691E
:1009B00000EB840063F3CF33406D03600120CB690B
:1009C00000FA04F464F31F4223EA0202CA61002021
:1009D00030BC70470D78016900EB850063F3CF33BD
:1009E00080690360CB6904FA05F464F30F0223EA1B
:1009F0000202CA61EBE700BFF0B44B78012B47D08D
:100A00000A784D6900EB8204636D1C681A69A4467C
:100A1000EDB18F68EE19751EB5FBF7F5AE05B60D95
:100A200065F3DC4207FB06F666F312021A61C3782F
:100A3000012B16D0CB78012B24D0097800EB810054
:100A400044F00444426D14600020F0BC70478D688F
:100A5000012666F3DC4265F312021A61C278B242E3
:100A6000E8D10A780B6900EB8202526D5361CB78B2
:100A7000012B07D0097800EB81004CF00442436D54
:100A80001A60E1E74A79002A67D044F0005CF1E798
:100A90000C784A6900EB8405AD692E682C69002A40
:100AA00056D08B68CF7802EB030C0CF1FF3C62F35D
:100AB0001204BCFBF3F363F3DC44012F08BF67F3BC
:100AC0005E742C61C478012C51D0CB78012B47D0B7
:100AD00052B103690C785D6B012707FA04F42C43CB
:100AE0005C63CB78012B3BD00C7800EB840346F0A1
:100AF00004469C692660CC78012CA5D1C578CB68CA
:100B00000978002DA0D192B200EB8100D11C8A108F
:100B1000D0F8D00098D053F8041B551E0433012A96
:100B2000016005F0010521468ED035B153F8044C23
:100B3000022104338A42046086D053F8044C0460D6
:100B400053F8044B023104338A420460F5D17BE749
:100B500062F3120463F3DC44B3E744F0805C89E79A
:100B60000469A368DC0509D446F00056BCE70C789C
:100B70000B6900EB8404A4696361B2E746F0805618
:100B8000B2E700BFF0B44B78012B82B02DD00C78C7
:100B90004A6900EB84056B6D1D681E690096F2B111
:100BA0008E689DF802409DF800204E61012766F393
:100BB000060267F3C4048DF802408DF80020009A05
:100BC0001A61C378BB4244D0097800EB810045F03C
:100BD0000445426D1560002002B0F0BC70479DF8DE
:100BE00002409DF800208E68E0E782694C69166833
:100BF00015690095002C3AD08B689C4288BF4B61E8
:100C00009DF800508CBF03F07F0404F07F049DF832
:100C1000023064F30605012464F3C4038DF8005028
:100C20008DF80230009B1361C378012B2CD046F065
:100C300004431360C278002ACDD14B69002BCAD07F
:100C400003690A78596B012000FA02F20A435A63D9
:100C5000C1E70A780B6900EB820245F00445526D4A
:100C60005361097800EB8100436D1D60B3E79DF887
:100C700000709DF8025064F3060763F3C4058DF815
:100C800000708DF80250CDE70C780B6900EB8404FE
:100C9000A4696361CBE700BF4B780978012B00EBB7
:100CA000810006D0436D1A6842F400121A600020D9
:100CB000704783691A68C2F3076101F08000C1B20E
:100CC0000029F1D042F0804040F40011196000206A
:100CD000704700BF4B780A78C978012B00EB82007F
:100CE000A1F1020108D0426D136801296FF3555339
:100CF00008D91360002070478269136801296FF3D7
:100D00005553F6D843F08053F3E700BF03699A695F
:100D1000D8691040000C704700EB810102694B6DEF
:100D2000996850690840704703699869D969084013
:100D300080B2704782B00122002362F3C403002115
:100D40000091C0228DF8023018238DF803208DF811
:100D50000030416D009A0A61C378012B06D100F280
:100D6000CC5048610A684FF080220A6002B0704798
:100D7000837A63B101698A68D10708D5D0F80C314C
:100D8000D0F80C016FF341036FF300030360704769
:100D9000028ACB8822F440521204F0B5120C0446A9
:100DA0001A4348890F898E880D4689892282A38932
:100DB00023F4B05222F00C033E431A040643B3B2AC
:100DC000100C43EA0006A681A28A22F440700304B4
:100DD0001E0C0E4385B0A682684600F06BFC4FF4F3
:100DE0008051C4F201018C42A2892BD04FF4A05053
:100DF000C4F20100844225D016B2002E029B31DBE2
:100E00002D68A68903EB830101EB8100AB0048F25A
:100E10001F52B0FBF3F5C5F2EB12A2FB05314809F6
:100E200036B201016423002E00FB135023DB0301C3
:100E30003233A2FB0302C2F34310014389B2218182
:100E400005B0F0BD12B2002A039B0BDB2E6803EB4A
:100E5000830505EB8501B000B1FBF0F548F21F52A8
:100E6000A689D8E72A6803EB830303EB83065500C2
:100E7000B6FBF5F5F2E7C30048F21F523233C5F274
:100E8000EB12A2FB0303C3F342100143D6E700BFFA
:100E9000838929B923F400510A04130C8381704714
:100EA00099B241F400528281704700BFC905CA0D52
:100EB0008280704710B4C1F34213012401F01F0275
:100EC000A34204FA02F20FD0022B16D0848A0388C0
:100ED000A0B210409BB205D0090A012202FA01F02B
:100EE000184008D110BC704783899BB21A40008813
:100EF00083B2002AF0D11046F4E7038A9BB21A406D
:100F0000F5E700BFFEE700BF1B491C4B994270B5D7
:100F10001BD2DA1C0C1D151B194825F00302161DE7
:100F200005680423B3420D60C2F380020DD022B1E4
:100F300042680823B342226007D01A1D1D58845806
:100F40005D500833B3428C50F7D10E480E494FF034
:100F500000028842B8BF40F8042BFFF6FAAFDFF872
:100F60002C00016841F47001016001F07BFEBDE8D6
:100F7000704000F0C9BA00BF00000020C00300208C
:100F800094480008C0030020080B002088ED00E012
:100F9000D0F8E83510B5044618698047032184F875
:100FA0001211002010BD00BF08B590F81221D0F832
:100FB000E83580F81321042180F81211D8688047A1
:100FC000002008BD08B5D0F8E435D96901B18847DB
:100FD000002008BD08B5D0F8E435196A884700201C
:100FE00008BD00BF08B5D0F8E435596A884700202D
:100FF00008BD00BF002110B50B460446402202F098
:1010000029FD802140220023204602F023FDD4F850
:10101000E835A078012284F8122159688847002019
:1010200010BD00BF10B582B06946044602F044F915
:101030009DF8001001F01F03012B0FD009D3022BE4
:1010400011D0204601F0800102F094FD002002B092
:1010500010BD2046694601F01BFFF7E720466946B0
:1010600002F094F8F2E72046694602F0B1F8EDE7A5
:1010700070B5044649B990F81131022B19D094F893
:10108000161101290CD0002070BDD0F8E4355B6941
:10109000002BF8D090F81221032AF4D19847F2E7F8
:1010A00021482369026800215A60002084F8161143
:1010B00070BDD0F83821D0F824319A4211D9C078C7
:1010C000D4F828110128C3EB020208BFC918C4F8DC
:1010D000382108BFC4F82811204692B202F0CCFD96
:1010E000CDE7D0F83C51B5FBF3F603FB16565EB9DD
:1010F000AB4209D8D0F84021954205D2324602F0E1
:10110000BBFDC4F84061BAE7D4F8E405C16819B181
:1011100094F81231032B03D0204602F0D1FDAEE744
:1011200020468847F8E700BFFC03002010B50446BE
:1011300029B990F8111103290CD0002010BDD0F866
:10114000E4359B69002BF8D090F81221032AF4D1E2
:101150009847F2E7D0F89023D0F87C339A4214D91C
:10116000C078D4F880130128C3EB020208BFC91865
:10117000C4F8902308BFC4F880139A4228BF1A46C7
:10118000204692B202F082FDD7E7D0F8E4150B6951
:101190001BB190F81221032A03D0204602F080FDF3
:1011A000CBE79847F9E700BF2DE9F041069D0446DB
:1011B00016461F46884601F0EBFD20464146C4F81E
:1011C000E475C4F8E855C4F8EC6502F0F3FBD4F814
:1011D000E835186880472046BDE8F04101F008BEB8
:1011E000D0F8E43510B504461A689047D4F8E805FD
:1011F00081688847002010BD08B5D0F8E4355A68EA
:101200009047002008BD00BF00B540F2702383B0B6
:10121000C2F20003009340F2004040F2A43240F2D8
:101220005433C2F200000121C2F20002C2F20003F4
:10123000FFF7BAFF03B000BD10B50B4CA37A63B142
:101240004EF61050CEF20000026822F00601016056
:1012500001F008FD2046FFF78BFD4FF48020BDE82C
:10126000104002F057BB00BF0004002040F20040D5
:10127000C2F2000002F068B882B00190019B581ED3
:10128000019028B100BF01994A1E0192002AF9D1AC
:1012900002B0704782B00190019B581C01900199E7
:1012A0004A1E01925AB145F6272300BF00BF00BF76
:1012B000033BFAD101994A1E0192002AF3D102B0F0
:1012C000704700BF2DE9F0411F2082B001210027A7
:1012D00000F052FAC4F20207042001214FF4006822
:1012E000002400F065FAC4F20208FF23384669467C
:1012F0000325012600938DF804408DF8074001F086
:1013000083FA30224046694600928DF805508DF8E8
:1013100004608DF806408DF8074001F075FA072348
:101320004046694600938DF804508DF8074001F05F
:101330006BFA4FF480604FF607426946C4F2020030
:1013400000928DF805508DF804608DF806408DF8F8
:10135000074001F059FA4FF480504FF68773694601
:10136000C4F2020000938DF805508DF804608DF8EA
:1013700006408DF8074001F047FA4FF4406048F20C
:10138000FF326946C4F2020000928DF805508DF8D4
:1013900004608DF806408DF8074001F035FAF868D2
:1013A00040F6F81540F4AA41C2F2000541F0550399
:1013B0002846FB6002F0F0FD4FF400605322132337
:1013C000C4F2000029462A806B602C8102F06AFD7D
:1013D00002B0BDE8F08100BF10B501218AB04FF422
:1013E00080704FF4005400F0F1F9C4F2010400F0F1
:1013F00051FA00236846009301938DF814308DF85C
:101400001530079306930493089300F079FA04A922
:10141000204600F04DFA2046012100F089FA0AB07A
:1014200010BD00BFF0B587B0FFF74CFF4FF48064EC
:101430001020012100F0CAF9C4F2020402200121A7
:1014400000F09AF90026022301252046C0226946B1
:101450008DF804308DF8053000928DF806608DF817
:10146000075001F0D1F920460621072201F030FA99
:101470004FF4805707210A462046C4F2010701F0C5
:1014800027FA47F61223384602A9ADF80C60ADF8EA
:101490000E60ADF81060ADF814600C260293ADF844
:1014A0001260FFF775FC38462946FFF7F1FC4FF450
:1014B0000060C4F202004FF607424FF440612283FD
:1014C000C4F2020130244FF480530483C4F20203B7
:1014D0004FF440744FF400660C83C4F200064FF6DC
:1014E00080742A46304629461C8302F06DFD304642
:1014F000294602F05BFD4FF46140CEF200004FF050
:101500008041016007B0F0BD08B5FFF78BFFFFF722
:1015100063FF01F0A1FBFFF777FE40F29112013A61
:1015200008D045F6272300BF00BF00BF033BFAD118
:10153000013AF6D100F038FB0E2000F027FB0B48F3
:1015400000F0C2FB0421022000F0D2FB084800F0AA
:10155000BBFB4FF44060C4F202004FF4004101F0C5
:10156000B3F900F0D9FB02F07DFCFAE7D44700089C
:10157000E447000838B54FF48054C4F20104204613
:1015800040F22551FFF796FC10B3A188134BC9B266
:101590006E2902D01A780B2A1BD9114D2878002108
:1015A0001970A8B14FF48054C4F20104238803F0E9
:1015B000400290B20028F9D04FF480502978C4F24C
:1015C0000100FFF773FC2B7815F8011F0029EDD1FE
:1015D00038BD034C501CA154187038BD3000002099
:1015E000B40A00204FF4006070B5C4F2000001217D
:1015F00002F0F4FC00B970BD2B4C4FF400600121E7
:10160000C4F2000002F0F6FC00F0EAFB6388581C0C
:1016100081B2B1F57A7F6180EDD94FF40055C4F203
:10162000010501220B21022328460026668000F0D6
:1016300089F9284600F0D4F92A68900704D42C468A
:1016400000BF23689907FBD54FF400500221C4F274
:10165000010000F0CFF94FF40050C4F2010000F097
:10166000C5F9124A1388834234BFC3EB0001C0EBB3
:1016700003018CB2202C0E4C84BF1080C0F34F139A
:10168000A07898BF5B099842B5D000BFDDB240207A
:1016900029460022A57002F0CBFB402029460022FB
:1016A000BDE8704000F0DEB830000020F6090020F0
:1016B000A80A00204FF46053C4F2020310B49A68E1
:1016C00002F00C0104294FD0082929D059B94FF450
:1016D0001052C0F2F40202604FF46053C4F20203ED
:1016E00024499C6806E04FF41052C0F2F4020260F4
:1016F0009C682049C4F303140C5D22FA04F2426092
:101700009C68C4F382240C5D22FA04F484609B6814
:10171000C3F34233C95C22FA01F2C26010BC7047C5
:101720005C685A6814F4800F5C6814BF4FF49053DF
:101730004FF4105302F03F0114BFC0F27A03C0F21D
:10174000F403B3FBF1F34FF46051C4F20201C4F3AC
:10175000881403FB04F24C68C4F30143591C4C0089
:10176000B2FBF4F20260B7E74FF49052C0F27A0293
:101770000260B1E73C0000204FF46053C4F2020362
:101780001A6B19B922EA00001863704710431863F6
:10179000704700BF4FF46053C4F202035A6B19B98B
:1017A00022EA00005863704710435863704700BF37
:1017B0004FF46053C4F202031A6C19B922EA000014
:1017C0001864704710431864704700BF4FF46053AB
:1017D000C4F202035A6C19B922EA00005864704737
:1017E00010435864704700BF4FF46053C4F20203C3
:1017F0005A6A19B922EA00005862704710435862C9
:10180000704700BFF0B440F6C424C2F2000482F076
:101810006F05A07040F20040CE09ED4309278121F9
:10182000C2F200002246042327706570E670F0BC07
:1018300002F082B9F0B440F6C424C2F2000482F08F
:101840007F05A07040F20040CE09ED4308278121BA
:10185000C2F200002246042327706570E670F0BCD7
:1018600002F06AB970B440F6C424C2F2000482F0F7
:101870004F05A07040F20040ED43E1700B26C2F22C
:1018800000008121224604232670657070BC02F09E
:1018900053B900BF08B501214FF48070FFF7A4FFD2
:1018A0004FF480700021BDE80840FFF79DBF00BFE6
:1018B00042680B79F0B422F0407C0E68CD680C6968
:1018C0004F792CF48072164346EA032343608668FE
:1018D0002C434FF2FD738D68CCF2FF0344EA0502FE
:1018E0003340134343EA47028260097DC26A4B1EBC
:1018F00022F47001DAB241EA0253C362F0BC7047CD
:1019000070B44FF40C5290E84200C4F201028568B2
:101910005468C06843F2E0033143CFF6FC732943B7
:101920002340014341EA0300506070BC704700BF90
:10193000836819B923F001018160704743F0010207
:1019400082607047092970B420D901EB41041E3C24
:10195000C668072505FA04F526EA050503FA04F327
:1019600045EA0304062AC4601FD90C2A02EB82024E
:1019700029D9C46A413A1F2303FA02F324EA030374
:1019800001FA02F11943C16270BC704701EB4104D6
:101990000669072505FA04F526EA050503FA04F3A6
:1019A00045EA0304062A0461DFD8531E03EB8302D1
:1019B000446B1F2303FA02F324EA030301FA02F142
:1019C00019434163E0E7233A046B1F2303FA02F350
:1019D00024EA030301FA02F143EA01020263D3E7B6
:1019E000836843F080418160704700BFC06C80B263
:1019F000704700BFC9430160704700BF10B504467F
:101A000001214FF44060E307C4F2020069D500F001
:101A10005BFF04F00201CAB2002A69D04FF44060B3
:101A20000221C4F2020000F04FFF04F00401CAB228
:101A3000002A69D04FF440600421C4F2020000F093
:101A400043FF04F00801CAB2002A69D04FF4406095
:101A50000821C4F2020000F037FF04F01001CAB2FE
:101A6000002A69D04FF440601021C4F2020000F057
:101A70002BFF04F02001CAB2002A69D04FF4406065
:101A80002021C4F2020000F01FFF04F04001CAB29E
:101A9000002A69D04FF44060C4F20200402100F0F7
:101AA00013FF200669D44FF44060C4F20200802185
:101AB00000F00CFF4FF480500421C4F2020000F04B
:101AC00003FF40F2E240FFF7D7FB4FF48050C4F22F
:101AD0000200042100F0FAFE0220BDE81040FFF7EA
:101AE000D9BB00F0F3FE04F00203D8B2002895D170
:101AF0004FF44060C4F20200022100F0E7FE04F05F
:101B00000403D8B2002895D14FF44060C4F202001B
:101B1000042100F0DBFE04F00803D8B2002895D1C0
:101B20004FF44060C4F20200082100F0CFFE04F040
:101B30001003D8B2002895D14FF44060C4F20200DF
:101B4000102100F0C3FE04F02003D8B2002895D184
:101B50004FF44060C4F20200202100F0B7FE04F010
:101B60004003D8B2002895D14FF440604021C4F220
:101B7000020000F0ABFE210695D54FF44060C4F2A0
:101B80000200802100F0A0FE94E700BF10B50446DB
:101B90004FF48050C4F20200012100F097FE20466D
:101BA000BDE81040FFF72ABF38B54FF48054C4F2A7
:101BB00002040421204600F089FE2046012100F0A5
:101BC00085FE4FF4406502212046C4F2020500F074
:101BD0007DFE1020FFF75EFB1021284600F074FE0A
:101BE0002846202100F070FE2846402100F06EFEBD
:101BF0002846802100F06AFE0421204600F064FEA1
:101C000040F2E240FFF738FB0421204600F05EFE80
:101C10000520FFF73FFB2846102100F055FE28461F
:101C2000202100F051FE2846402100F04FFE2846BA
:101C3000802100F04BFE2046042100F045FE40F2DA
:101C4000E240FFF719FB0421204600F03FFE01208F
:101C5000FFF720FB2846102100F036FE2846202101
:101C600000F032FE2846402100F030FE2846802158
:101C700000F02CFE0421204600F026FE40F2E24057
:101C8000FFF7FAFA2046042100F020FE0121204649
:101C900000F01CFE3820FFF7B1FE0121204600F0C5
:101CA00015FE0820FFF7AAFE0121204600F00EFED7
:101CB0000120FFF7A3FE2046012100F007FE0620C9
:101CC000BDE83840FFF79ABE38B5047874B10546D0
:101CD0004FF480500121C4F2020000F0F5FD2046CF
:101CE000FFF78CFE15F8014F002CF1D138BD00BF75
:101CF00038B505464FF480500C46C4F2020001216D
:101D000000F0E4FD04EB8510413860F07F01C8B2BB
:101D1000BDE83840FFF772BEF8B52D4B1A7A597AF4
:101D2000914253D02B492C4C087C02F0070500F05F
:101D300007065D5D31F816602570013201301A72B8
:101D40002B0608746680284622D400F01DFF234D20
:101D50000146304600F02EFF2B7806465BB920780E
:101D60006A78314602F02CF820786A783146BDE86E
:101D7000F840FFF747BD00F07F07394658206A78E2
:101D800002F056F8582039466A78FFF76BFDE6E70F
:101D900000F0FAFE0146304600F03AFF0F4E0146D1
:101DA000727805F07F0002F027F8257864882846CD
:101DB00000F0EAFE0146204600F02AFF7278014654
:101DC00005F07F00BDE8F840FFF734BDF8BD00BF67
:101DD000180A0020040A0020C00300204C00002044
:101DE0002DE9F00F40F6182140F60423C2F200015D
:101DF000C2F200039B4D487A597C8EB000249C2788
:101E0000224605F1B00399264FF09A094FF09B0A3C
:101E10000A970694079503F1B00B0896CDF8309019
:101E2000CDF82CA0C4F20202A046A44627468D4E4F
:101E3000F519F459AD88658300BF00BF00BF00BF2E
:101E400000BF00BF00BF00BF16692583146844F4BB
:101E5000AA4545F05504FF251460556114686FEAE2
:101E60000609250C2C0419F0FF09146000F05381B9
:101E7000079DAC68AD89658300BF00BF00BF00BF90
:101E800000BF00BF00BF00BF16692583146844F47B
:101E9000AA4545F05504FF25146055611468250CCA
:101EA0006FEA060A2E0419F0010416605FFA8AFA36
:101EB00040F05C826C4EF55B002D40F01184A6F181
:101EC000B004E55309F00205EEB2002E40F0618245
:101ED000BBF80240002C00F0B28300F0070401F0D0
:101EE00007050D9409F004040495E5B20395069ED8
:101EF0000D9CABF8028040F61825C2F200056A3E40
:101F00002E5540F604255C88049EA3F80280C2F298
:101F10000005013025F81640039C0131C0B2C9B25A
:101F2000002C00F049820AF00405ECB2002C40F0CD
:101F30008B839D884FF6FF76B54201D06C1C9C8048
:101F400009F00804E6B2002E40F05F82BBF80640BC
:101F5000002C00F0C38300F0070501F007040D9585
:101F600009F010050494069EABF80680ECB240F62A
:101F700018250394C2F200050D9C683E2E5540F6CC
:101F80000425DC88049EA3F80680C2F20005013017
:101F900025F81640039C0131C0B2C9B2002C00F0F4
:101FA00047820AF01004E6B2002E40F0D8821C8965
:101FB0004FF6FF75AC4201D0661C1E8109F020046B
:101FC000E5B2002D40F05C82BBF80A40002C00F026
:101FD000108301F00706099640F6182600F0070462
:101FE0000C9DABF80A80C2F200060130355509F0AD
:101FF0004004E5B240F604260D95099C5D89A3F8DE
:102000000A80C2F20006013126F814500D9DC0B2BC
:10201000C9B2002D00F047820AF04004E6B2002E5B
:1020200040F077829C894FF6FF75AC4201D0661C68
:102030009E8109F08004E5B2002D40F05B82BBF880
:102040000E40002C00F08481DE89DFF820A0ADF87E
:10205000346001F007040AF80C90099400F00709B5
:1020600006E000BF50000020B00100206002002008
:102070000B9C0A9EDDF828A0069D08340B940C9C4E
:1020800008340C94089C0834089440F61824C2F2D2
:102090000004083604F809A0F6B240F60424ABF8B0
:1020A0000E800835A3F80E80DDF82490BDF834A02A
:1020B0000A96C2F200040B9E24F819A0EDB2079C08
:1020C000DDF820900695F5B20C9E0B950CF1010CF5
:1020D00001300131103410371033F6B25FFA89F94C
:1020E000BCF10B0FC0B2C9B207940BF1100B0C96E8
:1020F000CDF820907FF49BAE40F6182640F60429D8
:10210000C2F20006C2F20009707289F811100EB016
:10211000BDE8F00F7047934E16F80C50002D00F0FC
:10212000EA80A6F1B00A3AF80740F4B1A6F5B07615
:1021300027F80A90F65B40F6182AADF80660069E6E
:1021400000F00705C2F2000A6B3E0AF8056040F68F
:10215000042601F00704BDF80650C2F20006013063
:10216000013126F81450C0B2C9B2DFF8FCA1BBF8A7
:1021700002402AF80780C4B1069EABF8028040F600
:10218000182A00F00705C2F2000A6A3E0AF8056044
:1021900040F6042601F007045D88C2F20006013013
:1021A000013126F81450C0B2C9B2BBF80440A3F8FC
:1021B0000280C4B1069EABF8048040F6182A00F0F5
:1021C0000705C2F2000A693E0AF8056040F60426D7
:1021D00001F007049D88C2F200060130013126F8A3
:1021E0001450C0B2C9B2BBF80640A3F80480C4B111
:1021F000069EABF8068040F6182A00F00705C2F2EA
:10220000000A683E0AF8056040F6042601F007045B
:10221000DD88C2F200060130013126F81450C0B248
:10222000C9B2BBF80840A3F80680BCB140F6182A32
:1022300000F00705089EABF80880C2F2000A01F022
:1022400007040AF8056040F604261D89C2F200065C
:102250000130013126F81450C0B2C9B2BBF80A40AF
:10226000A3F80880BCB140F6182A00F007050C9EC0
:10227000ABF80A80C2F2000A01F007040AF8056010
:1022800040F604265D89C2F200060130013126F8CD
:102290001450C0B2C9B2BBF80C40A3F80A80BCB15C
:1022A00040F6182A00F007050B9EABF80C80C2F22E
:1022B000000A01F007040AF8056040F604269D892B
:1022C000C2F200060130013126F81450C0B2C9B282
:1022D000BBF80E40A3F80C80002C39D0B3F80EA048
:1022E000204DADF834A001F0070605F80C900996D2
:1022F00000F00709BCE61B4E0A9D06F80C9005F19C
:102300000809069D0B9C0C9E08340835099406F1BB
:10231000080AEDB2089E079C0695099D08360CF147
:10232000010C103410375FFA89F91033EDB25FFAFF
:102330008AFAF6B2BCF10B0F0794CDF828900BF196
:10234000100B0B95CDF830A008967FF470ADD3E656
:10235000DC81DFF810A00A9C0AF80C9004F108094F
:10236000CFE700BF60020020000100201AF0010F3B
:1023700040F0E581B34DEC5B4FF6FF76B4423FF49D
:10238000A1AD01347C5309F00205EEB2002E3FF4FA
:102390009FAD0AF00206F5B2002D40F02C815C885A
:1023A0004FF6FF76B44201D0651C5D8009F004044D
:1023B000E5B2002D7FF4B7ADBBF80440002C00F06F
:1023C000678101F00704049409F00804E4B203945F
:1023D000069DABF8048040F6182400F00706C2F210
:1023E0000004693DA55540F604249E88049DA3F889
:1023F0000480C2F20004013024F81560039E01310C
:10240000C0B2C9B2002E3FF4A1AD0AF00806F5B281
:10241000002D40F03F81DC884FF6FF76B44201D0BA
:10242000651CDD8009F01004E5B2002D7FF4B9AD24
:10243000BBF80840002C00F0B68001F007060996B2
:1024400040F6182600F00704089DABF80880C2F299
:1024500000060130355509F02004E5B240F60426A7
:102460000D95099C1D89A3F80880C2F20006013170
:1024700026F814500D9DC0B2C9B2002D3FF4A4AD92
:102480000AF02004E6B2002E40F08F805C894FF6FF
:10249000FF75AC4201D0661C5E8109F04004E5B2D4
:1024A000002D7FF4B9ADBBF80C40002C55D001F0E5
:1024B0000706099640F6182600F007040B9DABF8B6
:1024C0000C80C2F200060130355509F08004E5B2F7
:1024D00040F604260D95099C9D89A3F80C80C2F254
:1024E0000006013126F814500D9DC0B2C9B2002D6E
:1024F0003FF4A5AD0AF08004E5B2002D40F04C8118
:10250000DE894FF6FF7A56453FF4F5AE741CDC8148
:102510001FE7BBF80C40002C7FF48BAD00F00705E3
:1025200001F007060D95013101250391ABF80C5020
:1025300040F61821069D0496C2F200010D9E1B353F
:102540008D5540F604219E89049DC2F200010130A0
:1025500021F81560039EC0B2F1B29C8169E5BBF819
:102560000840002C7FF42AAD00F0070501F00706B3
:102570000D95013101250391ABF8085040F6182163
:10258000069D0496C2F200010D9E19358D5540F648
:1025900004211E89049DC2F20001013021F815605A
:1025A000039EC0B2F1B21C8108E5BBF80A40002CC2
:1025B0007FF473AF00F0070501F007060D950131B8
:1025C00001250391ABF80A5040F61821069D0496A8
:1025D000C2F200010D9E1A358D5540F604215E8928
:1025E000049DC2F20001013021F81560039EC0B2C3
:1025F000F1B25C8151E7BBF80240002C7FF4D6AE0B
:1026000000F0070601F0070501310D96049501263B
:102610000391069DABF8026040F61821C2F200015A
:102620000D9E16358D5540F604215E88049DC2F23C
:102630000001013021F81560039EC0B2F1B25C8048
:10264000B4E600BF00010020BBF80440002C7FF47A
:1026500077AC00F0070501F007060D9501250496FB
:102660000131ABF80450069E039140F61825C2F2E2
:1026700000050D9917366E5440F604259988049E7E
:10268000C2F20005013025F816100399C0B2C9B294
:102690009C8055E4BBF80640002C7FF4C3AE00F0EC
:1026A000070601F0070501310D96049501260391F7
:1026B000069DABF8066040F61821C2F200010D9E9F
:1026C00018358D5540F60421DE88049DC2F20001C4
:1026D000013021F81560039EC0B2F1B2DC80A1E6A2
:1026E00000F0070609963F4E01F007050495F55BDB
:1026F0003D4EADF8165009F00205EDB2BC53013164
:102700000295069E039140F61825C2F2000509992C
:102710006B3E6E5440F60425BDF81610049EC2F2BE
:102720000005013025F816102E4E0399F453029C33
:10273000C0B2C9B2002C7FF42CAEFFF7C9BB2A4D42
:10274000EC5B002C7FF4BEAB00F007060D96254E27
:1027500001F007050495F55BADF81450224D0126F4
:1027600001317E530391069D0D9E40F61821C2F261
:10277000000115358D5540F60421BDF81460049D07
:10278000C2F20001013021F81560164EF453039C8B
:10279000C0B2E1B2FFF796BBBBF80E40002C7FF44D
:1027A000AAAD0125ABF80E50069D01F0070ACDF841
:1027B00024A005F11C0A40F6182500F00706C2F215
:1027C0000005013005F806A040F60425B3F80EA078
:1027D000099EC2F20005013125F816A0C0B2C9B2A7
:1027E000DC81B6E500010020B0010020704700BF89
:1027F000704700BF704700BF704700BF704700BF01
:10280000704700BF704700BF2DE9F00F00220E682F
:10281000134601274FF0030907FA03F404EA0605FB
:10282000A54206D001330232102BF5D1BDE8F00FDE
:102830007047D0F8008091F804C009FA02F4E4432C
:1028400004EA080AC0F800A0D0F800800CFA02FAE6
:102850000CF1FF3C4AEA0808BCF1010FC0F8008007
:102860000ED9C56891F807C02C40C460C5680CFA41
:1028700002F401332C430232102BC460CCD1D5E7D3
:10288000D0F808B091F805A091F8068091F807C03B
:1028900004EA0B0BC0F808B0D0F808B00AFA02FA44
:1028A0004AEA0B0AC0F808A0D0F804A02AEA0505F5
:1028B0004560456808FA03F81FFA88F848EA0505F4
:1028C0004560C568D0E700BF01837047418370470A
:1028D000CB08083301F0070130B4890050F82350C9
:1028E0000F2404FA01F425EA040440F8234050F8C8
:1028F000234002FA01F2144340F8234030BC7047F1
:102900002DE9F04F00238BB082460022D0E9000170
:10291000C4F2340301F054FE0023804689460022AD
:10292000C4F23403DAE9040101F04AFE9AED067BB1
:1029300000230022CDE90001C4F23403DAE90801E2
:102940008DED027BDAE9026701F03AFE3246044679
:102950000D463B46DDE9020101F054FBDDE90023B1
:10296000CDE904014046494601F04CFB2246CDE941
:1029700006012B464046494601F044FB02460B4601
:10298000DDE9040101F0F2FC32463B46CDE90801E5
:10299000DAE90A0101F036FBDDE9062301F0E6FC85
:1029A00002460B46DDE9080101F00AFEDDE90023DD
:1029B00006460F4601F0DAFC02460B462046294641
:1029C00001F020FB002304460D4600223046394624
:1029D000C3F6F07301F016FB02460B46204629466B
:1029E00001F0EEFD40F2C83B06460F46C2F2000B76
:1029F00032463B46DDE90001CBE9006701F004FB0C
:102A0000324604460D463B464046494601F0FCFA34
:102A100002460B46DDE9040101F0A8FC22462B46E4
:102A200001F0A4FCDDE9062301F0CAFD22462B4695
:102A3000CBE9020101F0C4FD02460B46DDE90201CB
:102A400001F0E0FA00230022C4F23403CBE90401D0
:102A5000DAE90C0101F0B4FD00220023804689462A
:102A6000C4F23403DAE9100101F0AAFD9AED120B69
:102A70000023CDE900010022DAE91401C4F2340395
:102A80008DED020BDAE90E6701F09AFD324604463D
:102A90000D463B46DDE9020101F0B4FADDE9002311
:102AA000CDE904014046494601F0ACFA2246CDE9A1
:102AB00006012B464046494601F0A4FA02460B4661
:102AC000DDE9040101F052FC32463B46CDE9080144
:102AD000DAE9160101F096FADDE9062301F046FC79
:102AE00002460B46DDE9080101F06AFDDDE900233D
:102AF00006460F4601F03AFC02460B4620462946A0
:102B000001F080FA002304460D4630463946002283
:102B1000C3F6F07301F076FA02460B4620462946CA
:102B200001F04EFD04460D462246DDE900012B462C
:102B3000CBE9064501F068FA224606460F462B46C9
:102B40004046494601F060FA02460B46DDE90401C1
:102B500001F00CFC32463B4601F008FCDDE906239F
:102B600001F02EFD32463B46CBE9080101F028FD7D
:102B700002460B46DDE9020101F044FACBE90A0105
:102B80000BB0BDE8F08F00BF4AF6AB231538C2F694
:102B9000AA2383FB0021C217C2EB610303EB4301AD
:102BA000A0EB8100012202FA00F240F65220104010
:102BB000704700BF10B5154CC1B101F071FBD4E9ED
:102BC000062301F021FA02460B46D4E9080101F080
:102BD000F7FCD4E90A2301F017FA01F0D9FD43F616
:102BE000FF7380B2984228BF184610BD01F058FB11
:102BF000D4E9002301F008FA02460B46D4E90201A9
:102C000001F0DEFCD4E90423E5E700BFC80300209F
:102C100070B5104B0646C9B1D3E9080102460B4610
:102C200001F0F2F9044630460D4601F039FB024648
:102C30000B462046294601F0C3FC01F0A9FD43F6EE
:102C4000FF7180B2884228BF084670BDD3E90201F7
:102C5000E4E700BFC803002040F29020C2F2000069
:102C6000FFF74EBE4FF46D42CEF200024FF46053B8
:102C7000D2F88810C4F2020341F47000C2F8880050
:102C80001968002241F0010018609A60186843F248
:102C9000100120F0847020F48030C2F200411860EE
:102CA0005960196882B021F480201860DA600092BF
:102CB00001921A6842F480311960184603E00099C5
:102CC000B1F5A06F09D0036803F4003201920099B6
:102CD0004B1C0093019A002AF1D04FF46050C4F2CB
:102CE0000200036813F400320DD001210191019814
:102CF00001280CD04FF46D43CEF200034FF0006179
:102D0000996002B07047019201980128F2D14FF406
:102D10006053C4F202034FF4E042196CC4F20002A3
:102D200041F080501864116841F4404010609A6886
:102D30009A60996841F400409860996845F20842A9
:102D400041F4A050C0F2407298605A60196841F096
:102D500080721A60184601684FF460538A01C4F209
:102D60000203F8D54FF47052C4F2020240F205603B
:102D70001060996821F003029A60986840F002019F
:102D800099609A6802F00C000828FAD1B2E700BFF7
:102D900010B5012082B00146FEF7EEFC00244FF48E
:102DA000C052C4F202040092032200236946204666
:102DB0008DF8052002228DF806308DF807308DF849
:102DC0000420FFF721FD20460B210A22FFF780FD9A
:102DD00020460C210A22FFF77BFD01214FF48040A1
:102DE000FEF7F4FC80200121FEF7D4FC02B010BDF8
:102DF00000B54FF4C06083B000F092FD0123432280
:102E000001A88DF804208DF805308DF806308DF876
:102E1000073000F08FFD03B000BD00BFC0EB001015
:102E200044F62513C200C2F29243A3FB0210111A0A
:102E300000EB51039A0802F0010001213AB110B1F0
:102E400002218A4204D302318A42FCD27047704781
:102E5000704700BF4DF2C042C0F2010244F6251394
:102E600002FB00F0C2F29243A3FB0021401A01EBE7
:102E70005002900800F00101012338B111B1022382
:102E8000984204D302339842FCD27047704770478F
:102E900030B54B7883B00D460446092B16D8DFE8D1
:102EA00003F02236154B15617F159505A978A14DC4
:102EB0000129297007D890F81201022800F04081FA
:102EC000032800F0CB802046802100E0802100F024
:102ED00051FE2046002100F04DFE2046FDF72AFF5E
:102EE000002003B030BD90F81211881E0128EAD8E6
:102EF0009149D4F8183100224A60002B00F00F816C
:102F0000022241F8042F204600F0A6FEE8E790F8E0
:102F10001201831E012BD6D869880129E0D1D4F88B
:102F2000E40500228368C4F8182120462946984702
:102F3000204600F0B5FED3E76B88012B00F014812A
:102F4000022BCDD1A98811F0FF0FC9D10269080A5F
:102F5000431E5268042B00F29980DFE803F0A0A81A
:102F6000A4AC9400A9880029ADD1E8880028AAD192
:102F70006D8894F8122105F07F03032A1D46A2D024
:102F8000204684F81431194600F05EFE204600F019
:102F900087FE002D00F0E480022084F812019FE7F4
:102FA0006888020A531E062B8DD801A151F823F020
:102FB0003D30000801300008EF2F0008C72E000840
:102FC000C72E0008C72E0008C72E0008EA88012A6D
:102FD0007FF479AF90F81211022900F0A68003293E
:102FE0007FF471AF00F5887100F036FE78E7C1B26A
:102FF00005293FF668AFDFE801F08A827A726A62DB
:10300000D4F8E435A0789A6A6946904701460220D0
:103010004870C4F8F015BDF80030002B3FF460AFE5
:10302000EA88002A3FF45CAF934228BF134620464B
:103030001A46ADF8003000F00FFE51E7D4F8EC1559
:10304000A0780B6869469847EA88402A014603D071
:1030500094F812010128DED10823E2E7002900F0EC
:10306000898094F8101101293FF462AF2046FEF7E1
:10307000C3F82978204684F81011FEF7B1F82046ED
:1030800000F00EFE2CE7052161F3061201232B4907
:1030900084F8163120460A6000F002FE20E7012085
:1030A00060F30612F2E7032363F30612EEE7022150
:1030B00061F30612EAE7042060F30612E6E7D4F8AB
:1030C000EC25A0789369694698470146A3E7D4F8B0
:1030D000EC15A0784A696946904701469BE7D4F809
:1030E000EC35A0781A6969469047014693E7D4F811
:1030F000EC15A078CB686946984701468BE7D4F871
:10310000EC25A078936869469847014683E7D4F890
:10311000EC15A0784A686946904701467BE720464F
:103120000431022200F098FDDAE6034900F094FD34
:10313000D6E600BFF8030020F0020020FC030020C8
:1031400000293FF4F5AE0121032384F8101184F81F
:1031500012312046FEF744F8204600F0A1FDBFE6FC
:10316000012184F81211BBE6D0F8E425C0F818312B
:103170009368DAE6022284F8122184F810112046BE
:10318000FEF73AF8204600F08BFDA9E638B590F836
:103190001231032B04460D460BD0802100F0EAFCCF
:1031A0002046002100F0E6FC2046FDF7C3FD00208C
:1031B00038BD0A79012AF0D8D0F8E4359A689047EA
:1031C000E8880028F3D1204600F06AFDEFE700BF51
:1031D00038B54B788A88012B0C460546D1B21CD0F5
:1031E00003D3032B24D0002038BD90F81231022BDA
:1031F00017D0032B22D113064BD401EB810100EB36
:10320000C10090F87633002B4DD1294A93602846AF
:103210002849022200F020FDE5E790F81221022A59
:1032200018D10029DFD08029DDD000F0A3FCDAE737
:1032300090F81221022AF4D0032A20D0802100F035
:1032400099FC0021284600F095FC2846FDF772FD08
:10325000002038BD032AF1D16388002BC3D149B1C6
:10326000802907D000F0B4FCD5F8E41528468A6818
:1032700021469047284600F013FD002038BD6388A2
:10328000002BF1D10029EFD08029EDD000F072FCA5
:10329000EAE702F07F0202EB820100EBC10090F846
:1032A0001E31002BB1D0024B01219960AFE700BF66
:1032B000F0020020F802002090F8CC350B7090F856
:1032C000CD254A7090F8CE3590F8CF2503EB022239
:1032D0004A8090F8D03590F8D12503EB02228A80FD
:1032E00090F8D23590F8D32503EB022293B2CB802D
:1032F0000121C0F8403180F81111704730B4F0B1AD
:103300000378F3B10446002314F8015F0133DBB204
:10331000002DF9D15C00A31CDCB2138003220C70D9
:103320004A7002785AB1022300255C1CE4B2CA54E8
:103330000D5510F8012F0233DBB2002AF5D130BC55
:10334000704702242346E8E72DE9F04F87B0044692
:10335000FDF7AAF910B907B0BDE8F08F2046FDF7D8
:10336000ABF98346002857D0C0F3074808F008009F
:10337000C0B2002840F0278108F004085FFA88F303
:10338000002B40F0CC805FFA8BF505F00201CBB248
:10339000002B43D0CBF30762E36802F080060221E2
:1033A000F2B25961002A40F09F80CBF3072606F065
:1033B0000802D1B200293FD105F00802D1B200299C
:1033C00040F04D8105F01005EAB2002A40F011826C
:1033D00006F01003D9B2002940F04E8106F0200516
:1033E000EAB2002A40F08A81CBF3074505F01003CA
:1033F000D9B2002940F0778105F02002D3B2002B2A
:10340000A9D09C490B6820461A6A9047E0684FF49F
:103410000011416101209EE758469CE7CBF307620B
:1034200002F08006F1B200295ED1CBF3072606F048
:103430000801CBB2002B30D08E4894F812210168DD
:1034400000204B698DF8170020468DF8172098470B
:103450002269E36891684FF400605861A27ADAB19A
:10346000CB0719D594F81531012B15D19DF81710FC
:10347000032911D1D4F80C01026842F00103036062
:1034800001684FF46D42CEF2000241F00303036085
:10349000106940F006011161012005F00802D3B265
:1034A000002B40F0DC8005F01005E9B2002940F067
:1034B0009F8106F01003D9B2002940F0DD8006F0AC
:1034C0002006F6B2002E40F01981CBF3074505F037
:1034D0001003DAB2002A40F0068105F02005EDB2B3
:1034E000002D3FF438AF8CE7A07A40B1D4F80C61DE
:1034F000D4F80C116FF341066FF300060E602369D8
:103500005C4A5868166820F0010159602046B3698A
:103510009847E0684FF000424261012085E720466D
:10352000FDF702FC074600284BD026464FF0000965
:10353000CDF804B0A24615E0B0690823836003F01B
:103540004000C5B2002D30D0B16940238B6003F03C
:103550008003DDB2002D40F0F28004367F0809F1CF
:1035600001092BD0F807F8D5DAF810205FFA89F8AE
:103570001469506B0AEB880120FA08F58869EB01A1
:103580008168DDB225430D40EBB2D90700F1168109
:1035900003F00802D4B2002CCED103F01004E2B242
:1035A000002ACCD0B4691023A36003F00202D0B289
:1035B0000028CCD0B06902228260CEE7DDF804B0EA
:1035C00054460120DFE62046FDF7A0FB0546002813
:1035D00043D0A2462646002705E0013704366D0891
:1035E0000AF1280A39D0EA07F7D55FFA87F92046A9
:1035F0004946FDF791FBC0B2C30716D5736D012193
:103600009960E2788A4200F0298140F20000C2F21B
:1036100000004946036820461A68904794F80390D2
:10362000B9F1010F00F01381012000F00203DAB2BA
:1036300012B1716D0220886000F00803DAB2002A2E
:10364000CBD040F20001C2F2000120460B689A681C
:103650009047716D08208860BFE701208CE605481F
:1036600001682046CA689047E36808205861012035
:1036700019E700BF0000002025696868002720F0D6
:1036800001026A6020463946FCF7A0FF63785BB10F
:1036900023463A46FF2599698D60586D85606178AB
:1036A000013204338A42F6D30125236965F30F07FB
:1036B0000B204FF0FF3165F31F479961DF615861BF
:1036C00018611A686FF30A121A602046FDF732FB80
:1036D0007548E36802684FF48051596120461369C8
:1036E00098472846EBE6704801682046CB69984722
:1036F000E0684FF4801242610120EEE62046FDF7BB
:10370000E7F8E5682046ED68FDF7D4F803280DD00A
:10371000012040220521A070A28061F38D25E1687F
:10372000CD604FF4005501204D61CEE600234FF4EB
:1037300000700922A370A08062F38D25EFE709EBEA
:1037400089010AEBC10404F58E75B1696A69A8693B
:10375000AC68D1F818E0131AA34234BF9C46A446C3
:103760000CF1030C1FFA8EFBBBEB9C0F23D982429A
:1037700021D902B3E968DDF804B004E06C699C4229
:1037800016D9E31AAC689C4228BF1C46A3B2424635
:103790005046FCF7F9FCE968AB690919E318E960E0
:1037A000AB61B0698269033492B2B2EB940FE5D891
:1037B000CDF804B0014680258D60CEE6536B4FF006
:1037C000010B40F200010BFA09F4C2F2000123EAF6
:1037D000040353630D68B3696A68C3F808B05046C0
:1037E000414690479AF803505D4527D05B46D4E6A2
:1037F000E3689F6927F010029A611D6A05F00F00C7
:1038000000EB8001C5F3434204EBC107022A07F530
:103810005D772CD0062A0BD104F2CC512046082229
:10382000FCF7DCFCB869E368C5F30A154119B96116
:10383000986940F010029A6101203AE6B9F1000F50
:1038400003D19AF81111042929D02B46A5E61FB9F6
:1038500094F8111105291ED04846E6E61869DAF8F1
:103860007C33C0F312015A1ACAF88C23CDE647F60E
:10387000F0722A40002ADBD0C5F30A152A46F968FF
:103880002046FCF7ABFCF868BA69E36841195519A2
:10389000F960BD61CCE72046FDF74CFADCE7504605
:1038A000FDF748FAD1E700BF000000200020704774
:1038B00000207047002070470020704700207047AC
:1038C000562340F2FC200B80C2F20000704700BF7C
:1038D00008B5812100F0AAF9002008BD10B58121AA
:1038E000044600F0E7F82046012100F0E3F800204C
:1038F00010BD00BF10B5812180220223044600F0D4
:10390000A9F8204601218022022300F0A3F800201C
:1039100010BD00BF4FF47053C4F2010358617047EB
:103920004FF46D4340F0BF60CEF2000340F400312D
:10393000D9607047C37830B47BB902784FF46143E3
:103940005109CEF2000302F01F022031012000FADB
:1039500002F243F8212030BC70474FF46D44CEF2A0
:1039600000044578E16884780378CA43C2F30222F0
:10397000C2F10401C9B205FA01F10F2545FA02F2BC
:10398000C9B222400A4303F16043110103F56143C8
:10399000CAB283F8002300784FF46143410900F074
:1039A0001F02CEF20003012000FA02F243F82120A8
:1039B000D1E700BF70B50446FCF738FC62780126F9
:1039C000002384F8126184F814318AB31946402523
:1039D00003EB830004EBC00282F81C31A2F8223111
:1039E00082F81D6182F81F11C2F82451C2F8281113
:1039F000C2F83011607801339842E9D8C0B1002391
:103A00001946402503EB830204EBC20080F87433AF
:103A1000A0F87A3380F8751380F87713C0F87C53D8
:103A2000C0F88013C0F88813627801339A42E9D84D
:103A30002046FCF7C3FD2046FCF7F0FC00212046A1
:103A4000FCF718FE2046FCF73DFE2046BDE870401E
:103A5000FCF7ACBD70B50C06054615D401F07F042B
:103A600004EB840600EBC60606F55D7186F8744328
:103A70000024022B06F55C764C708A60CB7014D063
:103A8000FCF742FF002070BD01F07F0000EB8001D9
:103A900005EBC10404F58E7184F81C010124022B8E
:103AA0004C708A60CB70C88001D100230B7128460E
:103AB000E6E700BF01F07F03CAB203EB830110B554
:103AC00000EBC10411060BD404F55D71D20984F832
:103AD00074334A70FCF764FF04F55C74002010BD79
:103AE00004F58E71D20984F81C314A70FCF758FF36
:103AF00004F58C74002010BDF8B501F07F0404EBD0
:103B0000840600EBC60606F55D71002786F874434F
:103B1000CA604B618F614F70C378012B054606F573
:103B20005C7608BF0A611CB1FCF766FF0020F8BD97
:103B3000FDF728F80020F8BD70B501F07F0404EB14
:103B4000840500EBC50505F58E710126CA600A6182
:103B5000002285F81C414E7005F58C758A614B6119
:103B60001CB1FCF749FF002070BDFDF70BF80020E9
:103B700070BD00BFCAB238B5140616D401EB81047B
:103B800000EBC40404F55D73D20901F07F01012547
:103B900084F8765384F8741384F875231946FDF776
:103BA0007BF804F55C74002038BD01F07F0505EB5F
:103BB000850400EBC40303F58E71D20901248C70D7
:103BC00083F81C514A70FDF767F8002038BD00BF2C
:103BD000CAB238B5150616D401EB810400EBC40453
:103BE00004F55D73D20901F07F01002584F8765356
:103BF00084F8741384F875231946FDF76BF804F5FF
:103C00005C74002038BD01F07F0505EB850400EBF6
:103C1000C40303F58E71D20900248C7083F81C5103
:103C20004A70FDF757F8002038BD00BF08B50B06F5
:103C300003D4FCF7F7FC002008BD01F07F01FCF77E
:103C4000C5FC002008BD00BF03690022186861F3AD
:103C50000A1202431A60704713460A46022110B541
:103C6000C0F83C31C0F8383180F811110021044609
:103C7000FFF762FF002010BD10B50C46134600216F
:103C80002246FFF759FF002010BD00BF10B50C46BB
:103C9000134600212246FFF72FFF002010BD00BF72
:103CA00038B50021042504460A460B4680F8115118
:103CB000FFF742FF2046FDF73DF8002038BD00BF6A
:103CC00038B50021052504460A460B4680F81151F7
:103CD000FFF712FF2046FDF72DF8002038BD00BF8A
:103CE000122340F280300B80C2F20000704700BF08
:103CF00004230B80004870479403002010B540F661
:103D0000C824C2F2000444F2F4700A46C0F600006F
:103D10002146FFF7F3FA204610BD00BF08B50A465A
:103D200028B106480649FFF7E9FA054808BD0548E5
:103D30000349FFF7E3FA024808BD00BF184800082E
:103D4000C80A0020FC47000808B50A4628B1064802
:103D50000649FFF7D3FA054808BD05480349FFF7B0
:103D6000CDFA024808BD00BF4C480008C80A002030
:103D70003448000808B50A4628B106480649FFF746
:103D8000BDFA054808BD05480349FFF7B7FA0248E0
:103D900008BD00BF74480008C80A00206448000835
:103DA00010B540F6C824C2F2000444F684000A4666
:103DB000C0F600002146FFF7A1FA204610BD00BF63
:103DC000F0B440F62423C2F2000382F06F0293F8AD
:103DD0008140661CA51C04F07F0706F07F0605F0F5
:103DE0007F05D243C9090334DA5583F881409855D9
:103DF0005955F0BC704700BFF0B440F62423C2F21E
:103E0000000382F07F0293F88140661CA51C04F039
:103E10007F0706F07F0605F07F05D243C90903340A
:103E2000DA5583F8814098555955F0BC704700BF6A
:103E3000F0B440F62423C2F2000382F04F0293F85C
:103E40008140661CA51C04F07F0706F07F0605F084
:103E50007F05D2430334DA5583F88140985559558C
:103E6000F0BC704710B50E4C94F8803094F8812067
:103E70009A4208D04FF48050C4F20100018801F04A
:103E8000400291B201B910BD03F07F03E15CFDF780
:103E90000DF894F88000421C84F8802010BD00BF0B
:103EA000240A002000230288C4F201039842F0B4DF
:103EB00092B239D04FF48064C4F20104A04233D0EE
:103EC000B0F1804F30D04FF48065C4F20005A842B5
:103ED0002AD04FF40065C4F20005A84224D04FF464
:103EE0004065C4F20005A8421ED04FF48055C4F2CC
:103EF0000005A8424DD04FF4A055C4F20005A842D9
:103F00003DD0B1F808C04E680F884FF6FF45154008
:103F100045EA0C0598420580C662078501D0A0429B
:103F200029D1897A018626E04FF480544FF68F73A9
:103F30004D88C4F200041340A04243EA050228D091
:103F40004FF4A053C4F20003984218D04FF6FF4339
:103F50000E894C680D8813400022C4F201023343DD
:103F600090420380C4620585DBD04FF48063C4F2C5
:103F700001039842D5D001228282F0BC70474FF4F1
:103F8000A053C4F200034C681A800988DC621985CA
:103F9000F1E74FF48053F4E700234FF0FF31416025
:103FA0000380038143808372704700BF038829B96F
:103FB00023F001010A04130C0380704799B241F009
:103FC00001020280704700BF83899BB21AB923EABD
:103FD000010181817047194381817047038A828979
:103FE00011EA030092B203D011420CBF002001205D
:103FF000704700BFC9438AB20282704781F0004116
:1040000002E000BF83F0004330B54FEA41044FEABD
:10401000430594EA050F08BF90EA020F1FBF54EA58
:10402000000C55EA020C7FEA645C7FEA655C00F0F4
:10403000E2804FEA5454D4EB5555B8BF6D420CDDC5
:104040002C4480EA020281EA030382EA000083EA48
:10405000010180EA020281EA0303362D88BF30BDE8
:1040600011F0004F4FEA01314FF4801C4CEA11313E
:1040700002D0404261EB410113F0004F4FEA03339D
:104080004CEA133302D0524263EB430394EA050F28
:1040900000F0A780A4F10104D5F1200E0DDB02FA97
:1040A0000EFC22FA05F2801841F1000103FA0EF22B
:1040B000801843FA05F359410EE0A5F120050EF1F1
:1040C000200E012A03FA0EFC28BF4CF0020C43FA22
:1040D00005F3C01851EBE37101F0004507D54FF02F
:1040E000000EDCF1000C7EEB00006EEB0101B1F57F
:1040F000801F1BD3B1F5001F0CD349085FEA3000C5
:104100004FEA3C0C04F101044FEA445212F5800FCF
:1041100080F09A80BCF1004F08BF5FEA500C50F16C
:10412000000041EB045141EA050130BD5FEA4C0C4F
:10413000404141EB010111F4801FA4F10104E9D1D8
:1041400091F0000F04BF01460020B1FA81F308BFCF
:104150002033A3F10B03B3F120020CDA0C3208DD9B
:1041600002F1140CC2F10C0201FA0CF021FA02F176
:104170000CE002F11402D8BFC2F1200C01FA02F1E6
:1041800020FA0CFCDCBF41EA0C019040E41AA2BF0B
:1041900001EB0451294330BD6FEA04041F3C1CDAD3
:1041A0000C340EDC04F11404C4F1200220FA04F0F3
:1041B00001FA02F340EA030021FA04F345EA03019D
:1041C00030BDC4F10C04C4F1200220FA02F001FA5F
:1041D00004F340EA0300294630BD21FA04F02946E1
:1041E00030BD94F0000F83F4801306BF81F480117A
:1041F0000134013D4EE77FEA645C18BF7FEA655CED
:1042000029D094EA050F08BF90EA020F05D054EABE
:10421000000C04BF1946104630BD91EA030F1EBFC3
:104220000021002030BD5FEA545C05D140004941C7
:1042300028BF41F0004130BD14F580043CBF01F5BA
:10424000801130BD01F0004545F0FE4141F47001A0
:104250004FF0000030BD7FEA645C1ABF194610467B
:104260007FEA655C1CBF0B46024650EA013406BF7C
:1042700052EA033591EA030F41F4002130BD00BF3B
:1042800090F0000F04BF0021704730B54FF48064F8
:1042900004F132044FF000054FF0000150E700BF79
:1042A00090F0000F04BF0021704730B54FF48064D8
:1042B00004F1320410F0004548BF40424FF00001C5
:1042C0003EE700BF42004FEAE2014FEA31014FEA08
:1042D00002701FBF12F07F4393F07F4F81F0605157
:1042E000704792F0000F14BF93F07F4F704730B5C6
:1042F0004FF4607401F0004521F0004120E700BF59
:1043000050EA010208BF704730B54FF000050AE0DF
:1043100050EA010208BF704730B511F0004502D5E0
:10432000404261EB41014FF4806404F132045FEAE2
:10433000915C3FF4DCAE4FF003025FEADC0C18BF87
:1043400003325FEADC0C18BF033202EBDC02C2F17D
:10435000200300FA03FC20FA02F001FA03FE40EA0F
:104360000E0021FA02F11444C1E600BF70B54FF00F
:10437000FF0C4CF4E06C1CEA11541DBF1CEA1355F1
:1043800094EA0C0F95EA0C0F00F0DEF82C4481EA59
:10439000030621EA4C5123EA4C5350EA013518BF79
:1043A00052EA033541F4801143F4801338D0A0FB66
:1043B00002CE4FF00005E1FB02E506F00042E0FB13
:1043C00003E54FF00006E1FB03569CF0000F18BF19
:1043D0004EF0010EA4F1FF04B6F5007F64F54074C1
:1043E00004D25FEA4E0E6D4146EB060642EAC62154
:1043F00041EA55514FEAC52040EA5E504FEACE2EC1
:10440000B4F1FD0C88BFBCF5E06F1ED8BEF1004FC3
:1044100008BF5FEA500E50F1000041EB045170BD3F
:1044200006F0004646EA010140EA020081EA030183
:10443000B4EB5C04C2BFD4EB0C0541EA045170BD7F
:1044400041F480114FF0000E013C00F3AB8014F1F9
:10445000360FDEBF002001F0004170BDC4F1000442
:10446000203C35DA0C341BDC04F11404C4F12005C3
:1044700000FA05F320FA04F001FA05F240EA02001E
:1044800001F0004221F0004110EBD37021FA04F654
:1044900042EB06015EEA430E08BF20EAD37070BD0E
:1044A000C4F10C04C4F1200500FA04F320FA05F06D
:1044B00001FA04F240EA020001F0004110EBD3706F
:1044C00041F100015EEA430E08BF20EAD37070BDDF
:1044D000C4F1200500FA05F24EEA020E20FA04F3B8
:1044E00001FA05F243EA020321FA04F001F0004167
:1044F00021FA04F220EA020000EBD3705EEA430ED8
:1045000008BF20EAD37070BD94F0000F0FD101F006
:104510000046400041EB010111F4801F08BF013C3F
:10452000F7D041EA060195F0000F18BF704703F07D
:104530000046520043EB030313F4801F08BF013D04
:10454000F7D043EA0603704794EA0C0F0CEA1355C0
:1045500018BF95EA0C0F0CD050EA410618BF52EA7A
:104560004306D1D181EA030101F000414FF0000080
:1045700070BD50EA410606BF1046194652EA43068E
:1045800019D094EA0C0F02D150EA013613D195EA02
:104590000C0F05D152EA03361CBF104619460AD14A
:1045A00081EA030101F0004141F0FE4141F4700154
:1045B0004FF0000070BD41F0FE4141F4780170BD44
:1045C00070B54FF0FF0C4CF4E06C1CEA11541DBFA9
:1045D0001CEA135594EA0C0F95EA0C0F00F0A7F8AB
:1045E000A4EB050481EA030E52EA03354FEA0131D8
:1045F00000F088804FEA03334FF0805545EA1313EB
:1046000043EA12634FEA022245EA111545EA1065B2
:104610004FEA00260EF000419D4208BF964244F149
:10462000FD0404F5407402D25B084FEA3202B61A68
:1046300065EB03055B084FEA32024FF480104FF43C
:10464000002CB6EB020E75EB030E22BFB61A7546B0
:1046500040EA0C005B084FEA3202B6EB020E75EB43
:10466000030E22BFB61A754640EA5C005B084FEAAB
:104670003202B6EB020E75EB030E22BFB61A754678
:1046800040EA9C005B084FEA3202B6EB020E75EB83
:10469000030E22BFB61A754640EADC0055EA060E44
:1046A00018D04FEA051545EA16754FEA06164FEA87
:1046B000C30343EA52734FEAC2025FEA1C1CC0D133
:1046C00011F4801F0BD141EA00014FF000004FF0C0
:1046D000004CB6E711F4801F04BF01430020B4F181
:1046E000FD0C88BFBCF5E06F3FF6AFAEB5EB030C39
:1046F00004BFB6EB020C5FEA500C50F1000041EB36
:10470000045170BD0EF0004E4EEA113114EB5C0402
:10471000C2BFD4EB0C0541EA045170BD41F48011D5
:104720004FF0000E013C90E645EA060E8DE60CEADD
:10473000135594EA0C0F08BF95EA0C0F3FF43BAFFA
:1047400094EA0C0F0AD150EA01347FF434AF95EAB1
:104750000C0F7FF425AF104619462CE795EA0C0F95
:1047600006D152EA03353FF4FDAE1046194622E762
:1047700050EA410618BF52EA43067FF4C5AE50EA3C
:1047800041047FF40DAF52EA43057FF4EBAE12E72C
:104790004A0011D212F5001211D20DD56FF47873C0
:1047A000B3EB62520ED44FEAC12343F0004343EA15
:1047B000505323FA02F070474FF00000704750EA60
:1047C000013002D14FF0FF3070474FF000007047CA
:1047D0000201020046415441524D494E41544F524C
:1047E0000000000050524F4A454354202076302E9E
:1047F000310000004E656B746F000000466174610B
:10480000726D696E61746F7220496E746572666153
:10481000636520485300000046617461726D696EE3
:1048200061746F7220496E746572666163652046BB
:104830005300000046617461726D696E61746F723D
:1048400020436F6E666967204853000046617461BB
:10485000726D696E61746F7220436F6E6669672056
:10486000465300003030303030303030303131425B
:1048700000000000303030303030303030313143E3
:104880000000000046617461726D696E61746F7240
:044890000000000024
:10489400040000202D1100087110000825100008E4
:1048A400C50F0008F50F0008A90F0008910F0008B4
:1048B400D50F0008E50F000800000000000000000C
:1048C4000000000000000000FFFF000000000000E6
:1048D40001020304010203040607080901000000A1
:1048E4000010024000800000001002400040000060
:1048F400000402400008000000040240000400001C
:1049040000040240002000000004024000100000E7
:104914000004024000800000000402400040000047
:10492400000C024000020000000C024000010000E4
:1049340000080240100000000008024020000000AF
:1049440000040240010000000004024002000000D4
:104954000010024080000000000402400400000037
:10496400001002400002000000100240000100009C
:10497400001002400010000000100240000400007B
:104984000010024000080000001002400020000057
:104994000000000000000000000000000000000013
:1049A4000000000000000000000000000000000003
:1049B40000000000000000000000000000000000F3
:1049C40000000000000000000000000000000000E3
:1049D40000000000000000000000000000000000D3
:1049E40000000000000000000000000000000000C3
:1049F40000000000000000000000000000000000B3
:104A040000000000000000000000000000000000A2
:104A14000000000000000000000000000000000092
:104A24000000000000000000000000000000000082
:104A34000000000000000000000000000000000072
:104A44000000000000000000000000000000000062
:104A54000000000000000000000000000000000052
:104A64000000000000000000000000000000000042
:104A74000000000000000000000000000000000032
:104A84000000000000000000000000000000000022
:104A94000000000000000000000000000000000012
:104AA4000000000000000000000000000000000002
:104AB40000000000000000000000000000000000F2
:104AC40000000000000000000000000000000000E2
:104AD40000000000000000000000000000000000D2
:104AE40000000000000000000000000000000000C2
:104AF40000000000000000000000000000000000B2
:104B0400ED270008F1270008F52700080128000810
:104B140005280008F9270008FD2700080000000008
:104B2400000000000020AC40000000000040CF4026
:104B3400000000000088D340000000000000AF40E7
:104B44000000000080C1F840000000000000604048
:104B5400000000000070A740000000000080CD406D
:104B640000000000001ED440000000000000A4402B
:104B740000000000804FF240000000000000604090
:104B840000000000000000000000000009025600C0
:104B9400020100C0320904000000010100000924E0
:104BA40001000109000101090401000201030000E0
:104BB4000724010001320006240201010009240334
:104BC4000102010201000905010240000000000584
:104BD40025010101090581024000000000052501AD
:104BE40001020000F5380008DD380008AD3800087F
:104BF40000000000B1380008D1380008B5380008BA
:104C0400B938000800000000BD380008C1380008A9
:104C14001201100100000040FFFF0000000101022A
:104C240000010000040309040A0600020000004019
:104C340001000000E13C0008F13C0008FD3C0008D4
:104C4400A13D0008753D0008493D00081D3D0008D0
:0400000508000000EF
:00000001FF
