:020000040800F2
:10000000F4120020DD0D0008D90D0008D90D0008FC
:10001000D90D0008D90D0008D90D00080000000016
:10002000000000000000000000000000D90D0008E2
:10003000D90D000800000000D90D0008D90D0008F6
:10004000D90D0008D90D0008D90D0008D90D0008F8
:10005000D90D0008D90D0008D90D0008D90D0008E8
:10006000D90D0008D90D0008D90D0008D90D0008D8
:10007000D90D0008D90D0008D90D0008D90D0008C8
:10008000D90D0008D90D0008D90D0008D90D0008B8
:10009000D90D0008D90D0008D90D0008D90D0008A8
:1000A000D90D0008D90D0008D90D0008D90D000898
:1000B000D90D0008D90D0008F9140008D90D000861
:1000C000D90D0008D90D0008D90D0008D90D000878
:1000D000D90D0008D90D0008D90D0008D90D000868
:1000E000D90D0008D90D000809120008D90D000823
:1000F000D90D0008D90D0008D90D0008D90D000848
:10010000D90D0008D90D0008D90D0008D90D000837
:10011000D90D0008D90D0008D90D0008D90D000827
:10012000D90D0008D90D0008D90D0008D90D000817
:10013000D90D0008D90D0008D90D0008D90D000807
:10014000D90D0008D90D0008D90D00083D1200088E
:10015000D90D0008D90D0008D90D0008D90D0008E7
:10016000D90D0008D90D0008D90D0008D90D0008D7
:10017000D90D0008D90D0008D90D0008D90D0008C7
:10018000D90D0008D90D000810B4C47814BB00EBD9
:10019000820003339B10D0F8D0001BD051F8042B01
:1001A000026001225C1E0431934204F0010411D06C
:1001B00034B151F8044C022204319342046009D056
:1001C00051F8044C046051F8044B0232043193425C
:1001D0000460F5D1002010BC704700BF033270B43A
:1001E0009510D0F8D0401ED00B4620686A1E43F808
:1001F000040B02F0010001220433954211D030B10A
:100200002068022243F8040C0433954209D0266882
:1002100043F8046C266843F8046B023204339542B9
:10022000F5D101EB8501084670BC70472DE9F00F50
:10023000002301224024012984B0C370827084808D
:1002400000F0BE80002900F098800178427800918B
:100250004FF40064C3600461002A00F0D3804FF4BF
:1002600060654FF488664FF48061039502960191B2
:100270009B464FEA421AAAF1200220230BF5106593
:100280000BF53066C2F34014021D53458561466587
:100290001ED04CB10BF512640BF532614023946112
:1002A00051650432534513D0814603F1200705EB15
:1002B000030806EB030CE8194033F719C2F818805D
:1002C000C2F854C0D061976508325345EDD1484615
:1002D000019C44610099029CC0F8CC40002944D0A4
:1002E0000BF5A06202EB4115AC1A0BF5A463203CA0
:1002F000C0F89020021DAB42C4F3401111D031B1BF
:10030000C2F890300BF5A8630432AB4209D003F178
:100310002004C2F890304033C2F894400832AB4217
:10032000F5D1009C0BF5805202EB0435A91A0BF5B0
:100330000053A1F58051C0F8D020021DAB42C1F39B
:10034000003112D031B1C2F8D03003F580530432FD
:10035000AB420AD003F58054C2F8D03003F5005305
:10036000C2F8D4400832AB42F4D10399C0F80C1162
:10037000002004B0BDE8F00F70470C254FF4A066D4
:100380000023C1720570C6804FF4606100954FF480
:1003900080664FF4886506224FF40064C4F20403BB
:1003A000C4F20401C4F20405C4F2040642700391CD
:1003B00002950196C4F204049B46C360046158E7A9
:1003C00008250226C1724FF4A0710570C180067223
:1003D0004FF4606100954FF480664FF48865042205
:1003E0004FF400644FF0A043C5F20001C5F20005D0
:1003F000C5F200064270039102950196C5F2000411
:100400009B46DAE74FF460634FF488614FF48064F1
:1004100003930291019493465BE700BF70B5027AA3
:100420000023012A044682B01E46C0685ED0C1681F
:1004300041F04005C5600320019302F093FCE3689E
:100440001A694FF454650192C0F2030510E002F0FE
:1004500089FCE3681A6901920199032000290DDBE8
:1004600002F080FCE3681869013D1946019025D02F
:1004700001990320002905F1FF35E8DA019840F0E1
:10048000010201920199196118694FF454620190B7
:10049000C0F2030208E0186901900199C90709D563
:1004A0001869013A019005D0019911F0010F02F18C
:1004B000FF32F0D1032002F055FCE168627A002A95
:1004C0000CBF4FF434134FF474138B63142002F0F9
:1004D00065FCE178012906D1E068826822F03E03DC
:1004E00043F02A018160002002B070BD816B657A03
:1004F00063F310410DB141F480118163C2686FF361
:1005000086126FF396526FF351426FF3D342C2607B
:1005100000230320009302F025FCE36818694FF4E0
:1005200054650090C0F203050FE002F01BFCE36885
:100530001A6900920099032000290CDB02F012FCDA
:10054000E3681969013D009124D000990320002936
:1005500005F1FF35E9DA009840F0010200920099B8
:10056000196118694FF454620090C0F2030208E068
:10057000186900900099C80709D51869013A0090D8
:1005800005D0009911F0010F02F1FF32F0D10320E4
:1005900002F0E8FBE0780128A5D1052262F34406C9
:1005A000E36846F020069E6093E700BFC3689A6840
:1005B00042F0010098600020704700BFC3689A684D
:1005C00022F0010098600020704700BF00B583B0A2
:1005D00000230193019A42F020030193019A61F3F1
:1005E0008A1201920199C068016102694FF4546353
:1005F0000192C0F2030308E00269019201998906A1
:1006000009D50269013B019205D0019911F0200F33
:1006100003F1FF33F0D1032002F0A4FB002003B06C
:1006200000BD00BF00B583B000230193019941F0E4
:1006300010020192019BC268136110694FF4546368
:100640000190C0F2030308E0106901900199C80607
:1006500009D51069013B019005D0019911F0100FE7
:1006600003F1FF33F0D1032002F07CFB002003B044
:1006700000BD00BFC26808B5D36801296FF35D7380
:100680006FF39E7308D009B943F080433220D360E2
:1006900002F084FB002008BD43F00053F6E700BFE2
:1006A000C368586900F0010181F00100704700BF84
:1006B000C3685A6998691040704700BFF0B5054695
:1006C0000020D5F80C21296910600C6860F3CC2457
:1006D0000C60EE7A012E83B0034600F0B580EA6824
:1006E00000230093009C44F020000090009E102105
:1006F00061F38A160096009B136114694FF45463EA
:100700000094C0F2030308E01669009600998E0673
:1007100009D51469013B009405D0009810F0200F12
:1007200003F1FF33F0D1032002F01CFB0022019201
:100730000198EE6840F010010191019C346132692A
:100740004FF454630192C0F2030308E03169019150
:10075000019CE40609D53269013B019205D001985C
:1007600010F0100F03F1FF33F0D1032002F0FAFA7A
:100770002E6900224FF0FF3032617261B061F26188
:100780006978002930D029462C469446FF27A36972
:100790001868C0F3076000F08000C0B2002814BFE2
:1007A0004FF0904000201860C3F810C09F606B7835
:1007B000013204349342EAD8B3B100221746FF2431
:1007C0004B6D1868C0F3076000F08000C0B20028CD
:1007D00014BF4FF09040002018601F619C606B7840
:1007E000013204319342EBD8346944F480703061B3
:1007F000EB78012B07D103F58171C0F20101402292
:1008000062F359413163EB684FF4006200206FF0EE
:100810008041C8F200024FF0FF34986159615C607A
:1008200059619A61EA78996982420CBF10220246A6
:1008300042F4872242F0081242F4401221EA0201F7
:100840001143996103B0F0BD0E68EA68C0278024A7
:100850004FF4800067F30F0346F003060E6064F365
:100860001F4364F30F004FF4A07154629062C2F80A
:10087000043161F30F036FF31F43C2F80831C2F86C
:100880000C312DE703699868C0F341014B1E022B20
:1008900002D8024AD05C704703207047E445000844
:1008A0000369826998681168C0F34100022808D082
:1008B0006FF30A0111605A6842F480715960002098
:1008C0007047032060F30A01F4E700BF70B44B786F
:1008D0000022012B24D00B7800EB8304012505FABC
:1008E00003F3646D63F31F422368C3F3072505F028
:1008F0008005EDB26DB98E68CD78C98866F30A03BC
:1009000065F3934361F3995343F0805343F40041FB
:1009100021600069C3691A43C261002070BC70473E
:100920000C7800EB840503FA04F363F30F02AC695F
:10093000DAE700BF30B44A780023012A1C4613D0FE
:100940000A7800EB8201012505FA02F2496D62F393
:100950001F4400696FF3CF330B60C36923EA0404BB
:10096000C461002030BC7047097800EB810502FAB1
:1009700001F262F30F04A969EBE700BFF0B44B7812
:10098000012B30D00A784D698E6800EB8204636DCC
:100990001C681A690DB3AD19013DB5FBF6F5AD053F
:1009A000AD0D06FB05F626F07F46ADB226F47806BF
:1009B00065F3DC4266F312021A61C378012B77D02B
:1009C000CB78012B6FD0097800EB810044F0044410
:1009D000436D1C600020F0BC704726F07F4525F475
:1009E00078060125E4E70E784A6900EB8605AD69D3
:1009F0002E682C69002A62D08B68CF7802EB030C3A
:100A00000CF1FF3C62F31204BCFBF3F363F3DC4430
:100A1000012F08BF67F35E742C61C478012C5DD090
:100A2000CB78012B53D052B103690C785D6B012751
:100A300007FA04F42C435C63CB78012B47D00C7885
:100A400000EB840346F004469C692660CC78012CB8
:100A5000C0D1C578CB680978002DBBD192B200EB2C
:100A60008100D11C8A10D0F8D000B3D053F8041BF9
:100A7000551E0433012A016005F001052146A9D065
:100A800035B153F8044C022104338A420460A1D0EA
:100A900053F8044C046053F8044B023104338A4287
:100AA0000460F5D196E74A7972B144F000548AE7C0
:100AB0000A780B6900EB8202526D536180E762F3A2
:100AC000120463F3DC44A7E744F080547BE7046935
:100AD000A368DB0509D446F00056B0E70C780B6933
:100AE00000EB8404A4696361A6E746F08056A6E79C
:100AF000F0B44B78012B82B02AD00C784A698F6809
:100B000000EB84056B6D1D681E690096F2B99DF8B7
:100B100002409DF8002007F07F06012766F30602D9
:100B200067F3C4048DF802408DF80020009A1A6122
:100B3000C378BB4240D0097800EB810045F0044205
:100B4000436D1A60002002B0F0BC70474F61DEE7D1
:100B500082694C69166815690095002C33D08B6842
:100B60009C4288BF4B619DF800508CBF03F07F040E
:100B700004F07F049DF8023064F30605012464F359
:100B8000C4038DF800508DF80230009B1361C378C8
:100B9000012B25D046F004431360C278002AD1D13E
:100BA0004B69002BCED003690A78596B012000FAFB
:100BB00002F20A435A63C5E70A780B6900EB820226
:100BC000526D5361B7E79DF800709DF8025064F3D1
:100BD000060763F3C4058DF800708DF80250D4E762
:100BE0000C780B6900EB8404A4696361D2E700BF51
:100BF0004B780978012B00EB810006D0436D1A6811
:100C000042F4001119600020704780690368C3F343
:100C1000076202F08001CAB20AB143F0804343F494
:100C200000110160002070474B78012B0B78C978C8
:100C300000EB83000CBF8269426D1368881E6FF35E
:100C40005553012898BF43F080531360002070472C
:100C500003699A69D8691040000C704700EB810164
:100C600002694B6D9968506908407047036998693B
:100C7000D969084080B2704782B00122002362F334
:100C8000C40300210091C0228DF8023018238DF892
:100C900003208DF80030416D009A0A61C378012B62
:100CA00006D100F2CC5048610A684FF080220A60F9
:100CB00002B07047837A63B101698A68D10708D5A9
:100CC000D0F80C31D0F80C016FF341036FF300033F
:100CD00003607047028ACB8822F440521204F0B5B8
:100CE000120C04461A4348890F898E880D4689895B
:100CF0002282A38923F4B05222F00C033E431A044B
:100D00000643B3B2100C43EA0006A681A28A22F47D
:100D1000407003041E0C0E4385B0A682684600F0A6
:100D200003FC4FF48051C4F201018C422CD04FF4EB
:100D3000A052C4F20102944226D0A089029B06B2BE
:100D4000002E26DB2D6803EB830101EB8102AB0053
:100D5000B2FBF3F148F21F53A089C5F2EB13A3FBDA
:100D60000156720900B264251601002802FB151114
:100D700018DB0D013235A3FB0553C3F34312324395
:100D800091B2218105B0F0BDA089039B06B2002E6F
:100D9000D8DA286803EB830606EB86054200B5FB2C
:100DA000F2F1D7E7C8003230A3FB0013C3F34212BD
:100DB0003243E5E7838929B923F400510A04130C6F
:100DC0008381704799B241F400528281704700BF1D
:100DD000C905CA0D82807047FEE700BF1B491C4B46
:100DE000994270B51BD2DA1C0C1D151B194825F051
:100DF0000302161D05680423B3420D60C2F380028E
:100E00000DD022B142680823B342226007D01A1DD8
:100E10001D5884585D500833B3428C50F7D10E48AA
:100E20000E494FF000028842B8BF40F8042BFFF68D
:100E3000FAAFDFF82C00016841F47001016001F0A5
:100E4000B5FEBDE8704000F021BB00BF00000020EF
:100E500034020020A846000838020020F40A0020CE
:100E600088ED00E010B501218AB04FF480704FF496
:100E7000005400F0DDFBC4F2010400F03DFC00234F
:100E80006846009301938DF814308DF81530079360
:100E900006930493089300F065FC04A9204600F033
:100EA00039FC2046012100F075FC0AB010BD00BFDE
:100EB00070B5284C2388581C81B2B1F57A7F218007
:100EC00000D870BD4FF40055C4F2010501220B217A
:100ED000022328460026268000F066FC284600F003
:100EE000B1FC2A68900704D42C4600BF23689907F8
:100EF000FBD54FF400500221C4F2010000F0ACFC1D
:100F00004FF40050C4F2010000F0A2FC124A138812
:100F1000834234BFC3EB0001C0EB03018CB2202C31
:100F20000E4C84BF1080C0F34F13A07898BF5B09AC
:100F30009842C6D000BFDDB2402029460022A570ED
:100F400002F0A2FE402029460022BDE8704000F0D9
:100F5000BBBB00BF38020020F8030020FC030020C8
:100F6000D0F8E83510B5044618698047032184F8A5
:100F70001211002010BD00BF08B590F81221D0F862
:100F8000E83580F81321042180F81211D8688047D1
:100F9000002008BD08B5D0F8E435D96901B188470B
:100FA000002008BD08B5D0F8E435196A884700204C
:100FB00008BD00BF08B5D0F8E435596A884700205D
:100FC00008BD00BF002110B50B460446402202F0C8
:100FD0009FFC802140220023204602F099FCD4F897
:100FE000E835A078012284F812215968884700204A
:100FF00010BD00BF10B582B06946044602F0FAF891
:101000009DF8001001F01F03012B0FD009D3022B14
:1010100011D0204601F0800102F0F4FC002002B063
:1010200010BD2046694601F0D7FEF7E72046694625
:1010300002F04AF8F2E72046694602F067F8EDE769
:1010400070B5044649B990F81131022B19D094F8C3
:10105000161101290CD0002070BDD0F8E4355B6971
:10106000002BF8D090F81221032AF4D19847F2E728
:1010700021482369026800215A60002084F8161173
:1010800070BDD0F83821D0F824319A4211D9C078F7
:10109000D4F828110128C3EB020208BFC918C4F80C
:1010A000382108BFC4F82811204692B202F010FD82
:1010B000CDE7D0F83C51B5FBF3F603FB16565EB90D
:1010C000AB4209D8D0F84021954205D2324602F011
:1010D000FFFCC4F84061BAE7D4F8E405C16819B16F
:1010E00094F81231032B03D0204602F015FDAEE731
:1010F00020468847F8E700BF0404002010B50446E6
:1011000029B990F8111103290CD0002010BDD0F896
:10111000E4359B69002BF8D090F81221032AF4D112
:101120009847F2E7D0F89023D0F87C339A4214D94C
:10113000C078D4F880130128C3EB020208BFC91895
:10114000C4F8902308BFC4F880139A4228BF1A46F7
:10115000204692B202F0C6FCD7E7D0F8E4150B693E
:101160001BB190F81221032A03D0204602F0C4FCE0
:10117000CBE79847F9E700BF2DE9F041069D04460B
:1011800016461F46884601F0A7FD20464146C4F892
:10119000E475C4F8E855C4F8EC6502F069FBD4F8CE
:1011A000E835186880472046BDE8F04101F0C4BD2D
:1011B000D0F8E43510B504461A689047D4F8E8052D
:1011C00081688847002010BD08B5D0F8E4355A681A
:1011D0009047002008BD00BF00B540F2F40383B083
:1011E000C2F20003009340F2084040F2182240F29D
:1011F000C813C2F200000121C2F20002C2F20003D1
:10120000FFF7BAFF03B000BD10B50B4CA37A63B172
:101210004EF61050CEF20000026822F00601016086
:1012200001F0C4FC2046FFF745FD4FF48020BDE8E7
:10123000104002F0CDBA00BF0804002040F2084080
:10124000C2F2000002F01EB882B00190019B581E4D
:10125000019028B100BF01994A1E0192002AF9D1DC
:1012600002B0704782B00190019B581C0190019917
:101270004A1E01925AB145F6272300BF00BF00BFA6
:10128000033BFAD101994A1E0192002AF3D102B020
:10129000704700BF2DE9F0411F2082B001210027D7
:1012A00000F09CF9C4F20207042001214FF4006809
:1012B000002400F0AFF9C4F20208FF233846694663
:1012C0000325012600938DF804408DF8074001F0B6
:1012D000F3F930224046694600928DF805508DF8AA
:1012E00004608DF806408DF8074001F0E5F907230A
:1012F0004046694600938DF804508DF8074001F090
:10130000DBF94FF480604FF607426946C4F20200F1
:1013100000928DF805508DF804608DF806408DF828
:10132000074001F0C9F94FF480504FF687736946C2
:10133000C4F2020000938DF805508DF804608DF81A
:1013400006408DF8074001F0B7F94FF4406048F2CD
:10135000FF326946C4F2020000928DF805508DF804
:1013600004608DF806408DF8074001F0A5F9F86893
:1013700040F6002540F4AA41C2F2000541F05503B1
:101380002846FB6002F012FD4FF400605322132345
:10139000C4F2000029462A806B602C8102F0AEFC6A
:1013A00002B0BDE8F08100BFF0B587B0FFF772FF73
:1013B0004FF480641020012100F03AF9C4F20204D5
:1013C0000220012100F00AF900260223012520460F
:1013D000C02269468DF804308DF8053000928DF8F2
:1013E00006608DF8075001F067F9204606210722B4
:1013F00001F00EFA4FF4805707210A462046C4F246
:10140000010701F005FA47F61223384602A9ADF8A4
:101410000C60ADF80E60ADF81060ADF814600C26ED
:101420000293ADF81260FFF755FC38462946FFF7E6
:10143000C1FC4FF40060C4F202004FF607424FF4C3
:1014400040612283C4F2020130244FF480530483AC
:10145000C4F202034FF440744FF400660C83C4F2EC
:1014600000064FF680742A46304629461C8302F057
:10147000B5FC3046294602F0A3FC4FF46140CEF2A1
:1014800000004FF08041016007B0F0BD08B5FFF7E4
:101490008BFFFFF7E7FC01F083FBFFF79DFE40F2B7
:1014A0009112013A08D045F6272300BF00BF00BFC4
:1014B000033BFAD1013AF6D100F070FA0E2000F0A9
:1014C0005FFA0B4800F0FAFA0421022000F00AFB50
:1014D000084800F0F3FA4FF44060C4F202004FF401
:1014E000004101F091F900F011FB02F0E7FBFAE78F
:1014F000E8450008F84500084FF4006008B5C4F25C
:101500000000012102F074FC00B908BD4FF4006036
:10151000C4F20000012102F077FC00F059FBBDE8A5
:101520000840FFF7C5BC00BF4FF46053C4F202038C
:1015300010B49A6802F00C01042922D0082926D0A0
:101540004FF41052C0F2F40202604FF46053C4F240
:10155000020321499C68C4F303140C5D22FA04F2CF
:1015600042609C68C4F382240C5D22FA04F4846017
:101570009B68C3F34233C95C22FA01F2C26010BC1B
:1015800070474FF49052C0F27A020260DDE75C6867
:10159000596814F4800F5C6801F03F0214BF4FF4E7
:1015A00090534FF41053C4F388114FF4605414BF98
:1015B000C0F27A03C0F2F403C4F20204B3FBF2F304
:1015C00003FB01F26168C1F301435C1C6100B2FBE3
:1015D000F1F20260B9E700BF300000204FF4605321
:1015E000C4F202031A6B19B922EA000018637047AB
:1015F00010431863704700BF4FF46053C4F20203F6
:101600005A6B19B922EA00005863704710435863B7
:10161000704700BF4FF46053C4F202031A6C19B94B
:1016200022EA00001864704710431864704700BF36
:101630004FF46053C4F202035A6C19B922EA000055
:101640005864704710435864704700BF4FF46053AC
:10165000C4F202035A6A19B922EA000058627047BC
:1016600010435862704700BFF0B440F6B024C2F295
:10167000000482F06F05A07040F20840CE09ED43EF
:1016800009278121C2F200002246042327706570D9
:10169000E670F0BC02F098B9F0B440F6B024C2F2A3
:1016A000000482F07F05A07040F20840CE09ED43AF
:1016B00008278121C2F200002246042327706570AA
:1016C000E670F0BC02F080B970B440F6B024C2F20B
:1016D000000482F04F05A07040F20840ED43E17035
:1016E0000B26C2F200008121224604232670657079
:1016F00070BC02F069B900BF08B501214FF48070D9
:10170000FFF7A4FF4FF480700021BDE80840FFF709
:101710009DBF00BF42680B79F0B422F0407C0E6898
:10172000CD680C694F792CF48072164346EA032386
:10173000436086682C434FF2FD738D68CCF2FF0343
:1017400044EA05023340134343EA47028260097DBD
:10175000C26A4B1E22F47001DAB241EA0253C3623C
:10176000F0BC704770B44FF40C5290E84200C4F2E1
:10177000010285685468C06843F2E0033143CFF644
:10178000FC7329432340014341EA0300506070BCCD
:10179000704700BF836819B923F001018160704769
:1017A00043F0010282607047092970B420D901EB2F
:1017B00041041E3CC668072505FA04F526EA05051E
:1017C00003FA04F345EA0304062AC4601FD90C2A6D
:1017D00002EB820229D9C46A413A1F2303FA02F3B9
:1017E00024EA030301FA02F11943C16270BC704795
:1017F00001EB41040669072505FA04F526EA05050B
:1018000003FA04F345EA0304062A0461DFD8531EF1
:1018100003EB8302446B1F2303FA02F324EA03035E
:1018200001FA02F119434163E0E7233A046B1F23F5
:1018300003FA02F324EA030301FA02F143EA010284
:101840000263D3E7836843F080418160704700BF43
:10185000C06C80B2704700BFC9430160704700BFD1
:1018600010B5044601214FF44060E307C4F20200C2
:1018700068D500F0C9FF04F002034FF44060DAB20B
:10188000C4F202000221002A77D000F0BDFF04F06C
:101890000400C3B24FF44060C4F202000421002BE4
:1018A00068D000F0B1FF04F00801CAB24FF4406004
:1018B000C4F202000821002A59D000F0A5FF04F06C
:1018C0001000C3B24FF44060C4F202001021002B9C
:1018D0004AD000F099FF04F02001CAB24FF44060F2
:1018E000C4F202002021002A3BD000F08DFF04F05A
:1018F0004000C3B24FF44060C4F20200402123B361
:1019000000F082FF4FF4406080212206C4F2020002
:1019100024D400F07BFF4FF480500421C4F2020075
:1019200000F072FF40F2E240FFF78EFC4FF480506F
:10193000C4F20200042100F069FF0220BDE810405B
:10194000FFF790BC00F062FF95E700F05FFF4FF4F7
:10195000406080212206C4F20200DAD500F054FF74
:10196000D9E700F053FFC2E700F050FFB3E700F003
:101970004DFFA4E700F04AFF95E700F047FF86E738
:1019800010B504464FF48050C4F20200012100F06B
:101990003DFF2046BDE81040FFF762BF38B54FF469
:1019A0008054C4F202040421204600F02FFF204698
:1019B000012100F02BFF4FF4406502212046C4F2C4
:1019C000020500F023FF1020FFF74CFC10212846F1
:1019D00000F01AFF2846202100F016FF284640217B
:1019E00000F014FF2846802100F010FF042120465B
:1019F00000F00AFF40F2E240FFF726FC04212046F7
:101A000000F004FF0520FFF72DFC2846102100F010
:101A1000FBFE2846202100F0F7FE2846402100F07A
:101A2000F5FE2846802100F0F1FE2046042100F05A
:101A3000EBFE40F2E240FFF707FC0421204600F0F5
:101A4000E5FE0120FFF70EFC2846102100F0DCFE29
:101A50002846202100F0D8FE2846402100F0D6FE7E
:101A60002846802100F0D2FE0421204600F0CCFE62
:101A700040F2E240FFF7E8FB2046042100F0C6FEFA
:101A80000121204600F0C2FE3820FFF7E9FE0121C7
:101A9000204600F0BBFE0820FFF7E2FE01212046B1
:101AA00000F0B4FE0120FFF7DBFE2046012100F02C
:101AB000ADFE0620BDE83840FFF7D2BE38B5047849
:101AC00074B105464FF480500121C4F2020000F0C9
:101AD0009BFE2046FFF7C4FE15F8014F002CF1D104
:101AE00038BD00BF38B505464FF480500C46C4F2EF
:101AF0000200012100F08AFE04EB8510413860F0FD
:101B00007F01C8B2BDE83840FFF7AABE70B52C4BC4
:101B10001A7A597A914252D02A492B4C087C02F009
:101B2000070500F007065D5D31F81660257001328B
:101B300001301A722B0608746680284622D400F001
:101B4000C3FF0146304600F0D5FF204B197805460B
:101B500059B920782279294602F05EF82078227956
:101B60002946BDE87040FFF77FBD00F07F06314693
:101B70005820227902F088F8582031462279FFF760
:101B8000A3FDE6E700F0A0FF0146304600F0E4FFC9
:101B90002279014605F07F0002F05AF82578668820
:101BA000284600F091FF0146304600F0D5FF22792B
:101BB000014605F07F00BDE87040FFF76DBD70BDC8
:101BC000200A00200C0A00203C02002040000020D7
:101BD0002DE9F00F40F6202040F60C23C2F2000061
:101BE000C2F200038CB04FF00009447ADFF834A051
:101BF000587C0B4BCDF818A04A4699259A274FF0F0
:101C00009B084FF09C0C03F1B0010B950A97CDF89F
:101C10002480CDF820C04E46CB46C4F202023CE1FF
:101C20004402002044000020DDF818C0DCF80870F1
:101C3000BCF80C80A7F81A8000BF00BF00BF00BF2F
:101C400000BF00BF00BF00BF00BF00BF00BFD2F891
:101C500010A0A7F81880176847F4AA4747F055075F
:101C60001760FF27576117683F0C3F046FEA0A0CA3
:101C7000176015F001075FFA8CFA40F0CC82DFF8AC
:101C8000D88438F806C0BCF1000F40F0AC83A8F14E
:101C9000B00727F806C005F00207FFB2002F40F09A
:101CA0008382B1F80280B8F1000F40F08384A3F87A
:101CB000028005F00407FFB2002F40F08982B1F8DE
:101CC00004C0BCF1000F40F01E84A3F804C005F06E
:101CD0000807FFB2002F40F08F82B1F806C0BCF1B8
:101CE000000F40F0A982A3F806C005F01007FFB26C
:101CF0000397002F40F03482B1F808C0BCF1000F08
:101D00001CD000F0070740F6202804F0070C0497C9
:101D1000C2F200080B9F08F80C7040F60C28DDF8A2
:101D200010C01F89C2F20008013428F81C70DDF8C9
:101D30000CC00130E4B2C0B2A1F808C0A3F808C0DA
:101D400005F02007FFB20397002F40F01E82B1F884
:101D50000AC0BCF1000F1CD000F0070740F6202895
:101D600004F0070C0497C2F200080A9F08F80C70F0
:101D700040F60C28DDF810C05F89C2F2000801347B
:101D800028F81C70DDF80CC00130E4B2C0B2A1F834
:101D90000AC0A3F80AC005F04007FFB20397002F5E
:101DA00040F0C681B1F80CC0BCF1000F1CD000F0AF
:101DB000070740F6202804F0070C0497C2F2000839
:101DC000099F08F80C7040F60C28DDF810C09F89B8
:101DD000C2F20008013428F81C70DDF80CC0013094
:101DE000E4B2C0B2A1F80CC0A3F80CC005F08007A3
:101DF000FFB2002F40F08D81B1F80EA0BAF1000FB4
:101E000000F0848100F0070ACDF81CA040F6202ADB
:101E100004F00708DDF820C0CF81C2F2000A0134C7
:101E20000AF808C040F60C2AB3F80E80DDF81CC092
:101E3000C2F2000A01302AF81C80E4B2C0B2DF818D
:101E4000C34FDDF820A007F80B50099D0A9F05F14C
:101E5000080C0B9D0AF1080805F1080A069D0837D1
:101E60000BF1010B103509F1080910365FFA88F8FB
:101E7000103310315FFA8CFCFFB25FFA8AFABBF1C3
:101E80000B0F0695CDF820805FFA89F9CDF824C0B4
:101E90000A97CDF82CA000F0EE83AE4FBD19BF59C4
:101EA000B5F804A0A7F81AA000BF00BF00BF00BF8C
:101EB00000BF00BF00BF00BF00BF00BF00BF15696B
:101EC000A7F818A0176847F4AA4747F05507176006
:101ED000FF2757611768ED433F0C3F0415F0FF05DE
:101EE00017607FF4A1AEDFF8688218F80B70002F3E
:101EF000A6D0A8F1B00A3AF80670FFB1A8F5B078FC
:101F000026F80A5038F8068040F6202A04F0070C1C
:101F1000C2F2000AADF80A80A9F16B080AF80C8039
:101F200040F60C2800F00707BDF80AC0C2F200080E
:101F30000134013028F817C0E4B2C0B2DFF81CC287
:101F40004F884FF0000A2CF806A0CFB1A1F802A0EC
:101F500040F6202A04F0070CC2F2000AA9F16A0830
:101F60000AF80C8040F60C2800F00707B3F802C00E
:101F7000C2F200080134013028F817C0E4B2C0B240
:101F80008F884FF0000AA3F802A0CFB1A1F804A0F7
:101F900040F6202A04F0070CC2F2000AA9F16908F1
:101FA0000AF80C8040F60C2800F00707B3F804C0CC
:101FB000C2F200080134013028F817C0E4B2C0B200
:101FC000CF884FF0000AA3F804A0CFB1A1F806A073
:101FD00040F6202A04F0070CC2F2000AA9F16808B2
:101FE0000AF80C8040F60C2800F00707B3F806C08A
:101FF000C2F200080134013028F817C0E4B2C0B2C0
:102000000F894FF0000AA3F806A0D7B140F6202AA6
:1020100004F0070CDDF82C80C2F2000A00F007077C
:102020000AF80C8040F60C28B3F808C0C2F2000889
:102030000134013028F817C04FF00007E4B2C0B2F5
:102040000F814F894FF0000AA3F808A0D7B140F6DE
:10205000202A04F0070CDDF82880C2F2000A00F004
:1020600007070AF80C8040F60C28B3F80AC0C2F241
:1020700000080134013028F817C04FF00007E4B21F
:10208000C0B24F818F894FF0000AA3F80AA0D7B1E0
:1020900040F6202A04F0070CDDF82480C2F2000A82
:1020A00000F007070AF80C8040F60C28B3F80CC0C3
:1020B000C2F200080134013028F817C04FF00007C1
:1020C000E4B2C0B28F81CF894FF0000AA3F80CA010
:1020D000D7B140F6202A04F0070CDDF82080C2F2C8
:1020E000000A00F007070AF80C8040F60C28B3F845
:1020F0000EC0C2F200080134013028F817C04FF0BA
:102100000007E4B2C0B2CF814FF0000AA3F80EA0DE
:1021100096E60AF08007FFB2002F40F0B480DF8916
:102120004FF6FF7847453FF48BAE0137DF8187E6F6
:102130000AF04007FFB2002F40F0F9809F894FF668
:10214000FF7847453FF452AE01379F814EE600BF0E
:10215000A403002044000020F402002044020020D8
:102160000AF01007FFB2002F40F0B3801F894FF62E
:10217000FF7847453FF4E4AD01371F8105F02007A4
:10218000FFB20397002F3FF4E2AD0AF02007FFB241
:10219000002F40F05B815F894FF6FF7847453FF4A1
:1021A000FAAD01375F81F6E50AF00207FFB2002FB2
:1021B00040F0D1815F884FF6FF7C67453FF479ADF1
:1021C00001375F8005F00407FFB2002F3FF477ADC1
:1021D0000AF00407FFB2002F40F0D7809F884FF627
:1021E000FF7C67453FF473AD01379F8005F008071A
:1021F000FFB2002F3FF471AD0AF00807FFB2002FC5
:1022000040F05281DF884FF6FF7C67453FF46DADAB
:102210000137DF8069E51AF0010F40F0F381DFF844
:10222000748438F806704FF6FF7C67453FF433AD91
:10223000013726F808702EE504F0070800F0070CB7
:10224000CDF81080CDF80CC0A9F16808013040F637
:10225000202C0190C2F2000C4046DDF81080CF80A7
:102260000CF8080040F60C2CB3F806800398C2F274
:10227000000C01342CF81080DDF80480DF80E4B21B
:102280005FFA88F031E5CF89002F7FF4D9AD00F0F7
:10229000070CCDF81CC040F6202C04F007084FF0C6
:1022A000010AC2F2000CA1F80EA009F11C0A0CF8F8
:1022B00008A040F60C2CB3F80EA0DDF81C80C2F28A
:1022C000000C013401302CF818A0E4B2C0B2DF8158
:1022D000B6E50F89002F7FF433AD04F0070CCDF87D
:1022E00010C000F007084FF0010CCDF80C80A1F8E9
:1022F00008C009F11908013040F6202C0190C2F203
:10230000000C4046DDF810800CF8080040F60C2C5C
:10231000B3F808800398C2F2000C01342CF8108046
:10232000DDF804801F81E4B25FFA88F008E58F8948
:10233000002F7FF45BAD04F0070CCDF810C000F067
:1023400007084FF0010CCDF80C80A1F80CC009F182
:102350001B08013040F6202C0190C2F2000C4046D0
:10236000DDF810800CF8080040F60C2CB3F80C8057
:102370000398C2F2000C01342CF81080DDF80480C0
:102380009F81E4B25FFA88F030E58F88002F7FF4F8
:102390009EAC00F0070C04F00708CDF80CC001302B
:1023A00009F1170CCDF8108001904FF0010860463C
:1023B00040F6202CA1F80480C2F2000CDDF8108059
:1023C0000CF8080040F60C2CB3F804800398C2F215
:1023D000000C01342CF81080DDF804809F80E4B2FA
:1023E0005FFA88F073E404F00708CDF81080DFF896
:1023F000A48200F0070CCDF80CC038F806C0DFF856
:102400009882ADF816C00130A9F16B0C01906046BE
:1024100040F6202CC2F2000C26F80870DDF810807F
:102420000CF8080040F60C2CBDF816800398C2F298
:10243000000C01342CF81080DDF80480DFF854C261
:10244000E4B25FFA88F02CF8067024E44F89002F7C
:102450007FF4A1AC04F0070CCDF810C000F0070821
:102460004FF0010CCDF80C80A1F80AC009F11A0850
:10247000013040F6202C0190C2F2000C4046DDF8FD
:1024800010800CF8080040F60C2CB3F80A80039872
:10249000C2F2000C01342CF81080DDF804805F815A
:1024A000E4B25FFA88F076E4CF88002F7FF41DACA9
:1024B00000F0070C04F00708CDF80CC0013009F15A
:1024C000180CCDF8108001904FF00108604640F6DE
:1024D000202CA1F80680C2F2000CDDF810800CF868
:1024E000080040F60C2CB3F806800398C2F2000CEA
:1024F00001342CF81080DDF80480DF80E4B25FFA4C
:1025000088F0FFF7F2BB04F0070800F0070CCDF8E5
:102510001080CDF80CC0A9F16908013040F6202CDC
:102520000190C2F2000C4046DDF810808F800CF85C
:10253000080040F60C2CB3F804800398C2F2000C9B
:1025400001342CF81080DDF804809F80E4B25FFA3B
:1025500088F0FFF7BCBB4F88002F7FF4AAAB00F0D8
:10256000070C04F00708CDF80CC0013009F1160C77
:10257000CDF8108001904FF00108604640F6202C05
:10258000A1F80280C2F2000CDDF810800CF80800FF
:1025900040F60C2CB3F802800398C2F2000C013410
:1025A0002CF81080DDF804805F80E4B25FFA88F0D8
:1025B000FFF77FBB04F0070CCDF810C000F0070850
:1025C000A9F16A0C01300190604640F6202CCDF84C
:1025D0000C80C2F2000CDDF810804F800CF808006F
:1025E00040F60C2CB3F802800398C2F2000C0134C0
:1025F0002CF81080DDF804805F80E4B25FFA88F088
:10260000FFF757BBDFF8908038F80670002F7FF493
:1026100042AB04F0070CCDF810C0DFF878C000F032
:102620000708CDF80C803CF80680ADF81480DFF880
:1026300068804FF0010C26F808C0013009F1150C34
:102640000190604640F6202CC2F2000CDDF81080AC
:102650000CF8080040F60C2C0398BDF81480C2F268
:10266000000C01342CF810800A488753019FE4B213
:10267000F8B2FFF710BB40F6202740F60C28C2F254
:102680000007C2F200087C7288F811000CB0BDE8A7
:10269000F00F704744020020F4020020704700BF92
:1026A000704700BF704700BF704700BF704700BF52
:1026B000704700BF704700BF2DE9F00F0E6884B06F
:1026C0000022884613464FF0010B00968A4607E029
:1026D000DDF80490A14539D04B1CAA1C102B54D016
:1026E000009E0BFA03F5591C05EA060C0BFA01F4DF
:1026F0002640AC45019602F10205E9D1032606FA0F
:1027000002F907689AF804806FEA09094E463E40CC
:1027100006600768CDF80C9008FA02F908F1FF3856
:1027200049EA0709B8F1010FC0F8009031D9C36830
:10273000039F9AF807C0DDF804903B40C360C3686C
:102740000CFA02F21A43A145C260C5D10323046802
:102750009AF80420AB40DB431C400460046802FA92
:1027600005FC013A4CEA0404012A046033D9C2682A
:102770009AF807401340C360C26804FA05F3134394
:10278000C3604B1CAA1C102BAAD104B0BDE8F00FEB
:102790007047D0F80880039E9AF806709AF8059062
:1027A00006EA0808C0F80880D0F8088009FA02F99B
:1027B00049EA0808C0F80880D0F8048028EA0C0C20
:1027C000C0F804C0D0F8049007FA03F39FB247EAB8
:1027D00009034360ABE786689AF805709AF806200B
:1027E0001E408660846807FA05FC4CEA0406866091
:1027F0004768019E27EA06074760446802FA01F22B
:1028000092B222434260B2E701837047418370472E
:10281000CB08083301F0070130B4890050F8235089
:102820000F2404FA01F425EA040440F8234050F888
:10283000234002FA01F2144340F8234030BC7047B1
:102840002DE9F04F00238BB082460022D0E9000131
:10285000C4F2340301F0BEFD002380468946002205
:10286000C4F23403DAE9040101F0B4FD9AED067B09
:1028700000230022CDE90001C4F23403DAE90801A3
:102880008DED027BDAE9026701F0A4FD32460446D1
:102890000D463B46DDE9020101F0BEFADDE9002309
:1028A000CDE904014046494601F0B6FA2246CDE999
:1028B00006012B464046494601F0AEFA02460B4659
:1028C000DDE9040101F05CFC32463B46CDE908013C
:1028D000DAE90A0101F0A0FADDE9062301F050FC73
:1028E00002460B46DDE9080101F074FDDDE9002335
:1028F00006460F4601F044FC02460B462046294698
:1029000001F08AFA002304460D460022304639467B
:10291000C3F6F07301F080FA02460B4620462946C2
:1029200001F058FD40F2B83B06460F46C2F2000BDC
:1029300032463B46DDE90001CBE9006701F06EFA63
:10294000324604460D463B464046494601F066FA8B
:1029500002460B46DDE9040101F012FC22462B463B
:1029600001F00EFCDDE9062301F034FD22462B4682
:10297000CBE9020101F02EFD02460B46DDE9020122
:1029800001F04AFA00230022C4F23403CBE9040127
:10299000DAE90C0101F01EFD002200238046894681
:1029A000C4F23403DAE9100101F014FD9AED120BC0
:1029B0000023CDE900010022DAE91401C4F2340356
:1029C0008DED020BDAE90E6701F004FD3246044694
:1029D0000D463B46DDE9020101F01EFADDE9002368
:1029E000CDE904014046494601F016FA2246CDE9F8
:1029F00006012B464046494601F00EFA02460B46B8
:102A0000DDE9040101F0BCFB32463B46CDE908019B
:102A1000DAE9160101F000FADDE9062301F0B0FB66
:102A200002460B46DDE9080101F0D4FCDDE9002394
:102A300006460F4601F0A4FB02460B4620462946F7
:102A400001F0EAF9002304460D46304639460022DB
:102A5000C3F6F07301F0E0F902460B462046294622
:102A600001F0B8FC04460D462246DDE900012B4684
:102A7000CBE9064501F0D2F9224606460F462B4621
:102A80004046494601F0CAF902460B46DDE9040119
:102A900001F076FB32463B4601F072FBDDE906238E
:102AA00001F098FC32463B46CBE9080101F092FC6C
:102AB00002460B46DDE9020101F0AEF9CBE90A015D
:102AC0000BB0BDE8F08F00BF4AF6AB231538C2F655
:102AD000AA2383FB0021C217C2EB610303EB43016E
:102AE000A0EB8100012202FA00F240F652201040D1
:102AF000704700BF10B5174CC1B101F0DBFAD4E943
:102B0000062301F08BF902460B46D4E9080101F0D7
:102B100061FCD4E90A2301F081F901F043FD80B2A0
:102B200043F6FF73984228BF184610BD01F0C2FA61
:102B3000D4E9002301F072F902460B46D4E9020100
:102B400001F048FCD4E9042301F068F901F02AFD02
:102B500080B2E5E7B803002070B5104B0646C9B156
:102B6000D3E9080102460B4601F058F90446304605
:102B70000D4601F09FFA02460B462046294601F019
:102B800029FC01F00FFD43F6FF7180B2884228BF97
:102B9000084670BDD3E90201E4E700BFB803002096
:102BA00040F21010C2F20000FFF74ABE4FF46D422F
:102BB000CEF200024FF46053D2F88810C4F2020340
:102BC00041F47000C2F888001968002241F0010049
:102BD00018609A60186843F2100120F0847020F4A5
:102BE0008030C2F2004118605960196882B021F447
:102BF00080201860DA60009201921A6842F48031F5
:102C00001960184603E00099B1F5A06F09D0036878
:102C100003F40032019200994B1C0093019A002AA0
:102C2000F1D04FF46050C4F20200036813F4003294
:102C30000DD001210191019801280CD04FF46D4372
:102C4000CEF200034FF00061996002B0704701922C
:102C500001980128F2D14FF46053C4F202034FF4FB
:102C6000E042196CC4F2000241F08050186411680F
:102C700041F4404010609A689A60996841F40040BD
:102C80009860996845F2084241F4A050C0F2407241
:102C900098605A60196841F080721A60184601689D
:102CA0004FF460538A01C4F20203F8D54FF4705216
:102CB000C4F2020240F205601060996821F003023C
:102CC0009A60986840F0020199609A6802F00C00DE
:102CD0000828FAD1B2E700BF10B5012082B0014642
:102CE000FEF77CFC00244FF4C052C4F202040092B0
:102CF00003220023694620468DF8052002228DF824
:102D000006308DF807308DF80420FFF7D5FC2046FB
:102D10000B210A22FFF77CFD20460C210A22FFF737
:102D200077FD01214FF48040FEF782FC80200121D5
:102D3000FEF762FC02B010BD00B54FF4C06083B076
:102D400000F04CFD0123432201A88DF804208DF8EA
:102D500005308DF806308DF8073000F049FD03B0DE
:102D600000BD00BFC0EB001044F62513C200C2F244
:102D70009243A3FB0210111A00EB51039A0802F0D0
:102D8000010001213AB110B102218A4204D302317B
:102D90008A42FCD270477047704700BF4DF2C04274
:102DA000C0F2010244F6251302FB00F0C2F2924386
:102DB000A3FB0021401A01EB5002900800F0010132
:102DC000012338B111B10223984204D3023398424F
:102DD000FCD270477047704730B54B7883B00D46D2
:102DE0000446092B16D8DFE803F02235154A156092
:102DF0007E159505A978A54D0129297007D890F869
:102E00001201022800F03281032800F0CB80204616
:102E1000802100E0802100F0F5FD2046002100F037
:102E2000F1FD2046FDF728FF002003B030BD90F8EB
:102E30001211881E0128EAD8944BD4F818210021D9
:102E400099600AB10220986020469149022200F060
:102E50002FFEE9E790F81201831E012BD7D869886D
:102E60000129E1D1D4F8E40500228368C4F81821CF
:102E7000204629469847204600F03EFED4E76B885E
:102E8000012B00F00F81022BCED1A98811F0FF0F8A
:102E9000CAD10269080A431E5268042B00F29980C5
:102EA000DFE803F0A0A8A4AC9400A9880029AED163
:102EB000E8880028ABD16D8894F8122105F07F03D3
:102EC000032A1D46A3D0204684F81431194600F089
:102ED000E7FD204600F010FE002D00F0DF8002200C
:102EE00084F81201A0E76888020A531E062B8ED8C8
:102EF00001A151F823F000BF852F0008492F0008D9
:102F0000372F00080F2E00080F2E00080F2E000884
:102F10000F2E0008EA88012A7FF479AF90F8121189
:102F2000022900F09F8003297FF471AF00F58871BA
:102F300000F0BEFD78E7C1B205293FF668AFDFE8D3
:102F400001F0898179716961D4F8E435A0789A6AD1
:102F500069469047014602204870C4F8F015BDF854
:102F60000030002B3FF460AFEA88002A3FF45CAFEA
:102F7000934228BF134620461A46ADF8003000F0B1
:102F800097FD51E7D4F8EC15A0780B68694698478F
:102F9000EA88402A014603D094F812010128DED1C4
:102FA0000823E2E7002900F0838094F8101101293A
:102FB00008D02046FEF708F92978204684F8101139
:102FC000FEF7F6F8204600F097FD2DE7052161F3A6
:102FD000061201232F4984F8163120460A6000F0BA
:102FE0008BFD21E7012060F30612F2E7032363F370
:102FF0000612EEE7022161F30612EAE7042060F30D
:103000000612E6E7D4F8EC25A0789369694698475C
:103010000146A4E7D4F8EC15A0784A6969469047C0
:1030200001469CE7D4F8EC35A0781A6969469047C8
:10303000014694E7D4F8EC15A078CB686946984728
:1030400001468CE7D4F8EC25A07893686946984748
:10305000014684E7D4F8EC15A0784A6869469047A1
:1030600001467CE70C4900F023FDDDE60029A9D0EC
:103070000121032384F8101184F812312046FEF751
:1030800097F8204600F038FDCEE600BFE8030020A8
:10309000F003002004040020EC030020012184F848
:1030A0001211C1E6D0F8E425C0F818319368DFE6C4
:1030B000022284F8122184F810112046FEF784F8C9
:1030C000204600F019FDAFE638B590F81231032B19
:1030D00004460D460BD0802100F094FC20460021D0
:1030E00000F090FC2046FDF7C7FD002038BD0A79AE
:1030F000012AF0D8D0F8E4359A689047E88800288B
:10310000F3D1204600F0F8FCEFE700BF38B54B786C
:103110008A88012B0C460546D1B21CD003D3032B61
:1031200024D0002038BD90F81231022B17D0032B89
:1031300022D113064BD401EB810100EBC10090F8C2
:103140007633002B4DD1294AD360284628490222E4
:1031500000F0AEFCE5E790F81221022A18D1002910
:10316000DFD08029DDD000F04DFCDAE790F81221A5
:10317000022AF4D0032A20D0802100F043FC002151
:10318000284600F03FFC2846FDF776FD002038BDBC
:10319000032AF1D16388002BC3D149B1802907D01C
:1031A00000F050FCD5F8E41528468A68214690477F
:1031B000284600F0A1FC002038BD6388002BF1D127
:1031C0000029EFD08029EDD000F01CFCEAE702F0E6
:1031D0007F0202EB820100EBC10090F81E31002B50
:1031E000B1D0024B0121D960AFE700BFE803002056
:1031F000F403002090F8CC350B7090F8CD254A7080
:1032000090F8CE3590F8CF2503EB02224A8090F853
:10321000D03590F8D12503EB02228A8090F8D23580
:1032200090F8D32503EB022293B2CB800121C0F8A2
:10323000403180F81111704730B4F0B10378F3B128
:103240000446002314F8015F0133DBB2002DF9D1ED
:103250005C00A31CDCB2138003220C704A7002785D
:103260005AB1022300255C1CE4B2CA540D5510F873
:10327000012F0233DBB2002AF5D130BC70470224A3
:103280002346E8E72DE9F04F85B00446FDF708FA3C
:1032900018B9002005B0BDE8F08F2046FDF708FA08
:1032A00083460028F5D0C0F3074808F00800C0B2F4
:1032B000002840F0B68008F004085FFA88F3002B7D
:1032C00048D15FFA8BF505F00203DAB212B1E1687A
:1032D00002264E61CBF3076303F08002D1B20029CE
:1032E00040F04E81CBF3072606F00803D9B200293F
:1032F00040F0148105F00802D3B2002B40F00481A5
:1033000005F01005E9B2002940F0D78006F010035F
:10331000D9B2002940F0748106F02006F6B2002EE2
:1033200040F05681CBF3074505F01003DAB2002ACE
:1033300040F0418105F02005EDB2002DAAD0A3494F
:103340000B6820461A6A9047E0684FF4001141610B
:1033500001209FE72046FDF789FC074600285ED044
:1033600026464FF00009CDF804B0A24626E003F04F
:103370000801CCB214B1B0690823836003F01002D5
:10338000D5B215B1B16910238B6003F04004E0B2EF
:1033900010B1B2694023936003F00205E9B211B1A4
:1033A000B4690223A36003F08000C2B2002A40F097
:1033B0007C8104367F0809F101092DD0F807F8D582
:1033C000DAF810205FFA89F81469506B0AEB88016B
:1033D00020FA08F58869EB018168DDB225430D40CC
:1033E000EBB2D907C3D540F20004C2F20004536B1C
:1033F0002168012404FA09F023EA00035363B56944
:103400004A68AC605046414690479AF80350A5423E
:1034100000F086812346AAE7DDF804B05446012077
:103420004FE72046FDF714FC0546002843D0A2468E
:103430002646002705E0013704366D080AF1280A00
:1034400039D0EA07F7D55FFA87F920464946FDF7F4
:1034500005FCC0B2C30716D5736D01219960E278EF
:103460008A4200F06D8140F20000C2F2000049463D
:10347000036820461A68904794F80390B9F1010F49
:1034800000F05781012000F00203DAB212B1716D31
:103490000220886000F00803DAB2002ACBD040F2A4
:1034A0000001C2F2000120460B689A689047716DD6
:1034B00008208860BFE70120FDE6E3689F6927F0E8
:1034C00010029A611D6A05F00F0000EB8001C5F340
:1034D000434204EBC107022A07F55D7700F0C7807D
:1034E000062A0BD104F2CC5120460822FCF776FEC6
:1034F000B869E368C5F30A154119B961986940F0E4
:1035000010029A61012001E7304801682046CA682C
:103510009047E368082058610120F1E62B4894F8B1
:103520001221036800215B698DF80F1020468DF889
:103530000F2098472269E06891684FF40063436167
:10354000A27ADAB1CB0719D594F81501012815D163
:103550009DF80F10032911D1D4F80C311A6842F0EC
:103560000100186019684FF46D42CEF2000241F07C
:1035700003001860136943F0060111610120B9E6E8
:10358000A07A40B1D4F80C61D4F80C316FF3410645
:103590006FF300061E6020690C4A4168166821F02E
:1035A00001034360B16920468847E0684FF000425C
:1035B0004261012096E6054801682046CB6998479C
:1035C000E0684FF4801242610120B3E60000002061
:1035D0002046FDF765F9E5682046ED68FDF752F9EC
:1035E000032859D0012040220521A070A28061F358
:1035F0008D25E168CD604FF4005501204D6191E6C5
:1036000025696868002720F001026A602046394673
:10361000FCF7DCFF63785BB123463A46FF259969E6
:103620008D60586D85606178013204338A42F6D32B
:103630000125236965F30F070B204FF0FF3165F378
:103640001F479961DF61586118611A686FF30A12A8
:103650001A602046FDF710FB4248E36802684FF409
:1036600080515961204613699847284654E647F629
:10367000F0722A40002A3FF441AFC5F30A152A46EA
:10368000F9682046FCF7AAFDF868BA69E3684119B1
:103690005519F960BD6131E700234FF4007009222C
:1036A000A370A08062F38D25A3E709EB89050AEBDF
:1036B000C50101F58E75B1696A69A869AC68D1F870
:1036C00018C0131AA34234BF9B46A3460BF1030E46
:1036D0001FFA8CFCBCEB9E0F1FD982421DD9E2B1B0
:1036E000E96804E06C699C4216D9E31AAC689C4214
:1036F00028BF1C46A3B242465046FCF745FDE96888
:10370000AB690919E318E960AB61B06982690334F8
:1037100092B2B2EB940FE5D8014680258D6048E661
:10372000B9F1000F03D19AF81131042B15D02B46B3
:103730001DE61FB994F8111105290AD04846A2E6E2
:103740001869DAF87C33C0F312015A1ACAF88C23CC
:1037500089E62046FDF790FAF0E75046FDF78CFA2F
:10376000E5E700BF00000020002070470020704700
:10377000002070470020704700207047562340F219
:1037800070100B80C2F20000704700BF08B58121A5
:1037900000F078F9002008BD10B58121044600F042
:1037A000DDF82046012100F0D9F8002010BD00BF4F
:1037B00010B5812180220223044600F0A9F820469A
:1037C00001218022022300F0A3F8002010BD00BFD9
:1037D0004FF47053C4F20103586170474FF46D43C6
:1037E00040F0BF60CEF2000340F40031D960704772
:1037F000C37830B47BB902784FF461435109CEF2FB
:10380000000302F01F022031012000FA02F243F807
:10381000212030BC70474FF46D44CEF2000445784F
:10382000E16884780378CA43C2F30222C2F104013A
:10383000C9B205FA01F10F2545FA02F2C9B22240D8
:103840000A4303F16043110103F56143CAB283F8EF
:10385000002300784FF46143410900F01F02CEF2CB
:103860000003012000FA02F243F82120D1E700BF53
:1038700070B50446FCF7DAFC62780126002384F870
:10388000126184F814318AB31946402503EB830092
:1038900004EBC00282F81C31A2F8223182F81D61CB
:1038A00082F81F11C2F82451C2F82811C2F8301151
:1038B000607801339842E9D8C0B100231946402509
:1038C00003EB830204EBC20080F87433A0F87A3370
:1038D00080F8751380F87713C0F87C53C0F8801314
:1038E000C0F88813627801339A42E9D82046FCF781
:1038F00065FE2046FCF792FD00212046FCF7BAFE4B
:103900002046FCF7DBFE2046BDE87040FCF74EBECB
:1039100038B501F07F0404EB8405090600EBC5050A
:1039200011D405F55D7185F87443002405F55C75C7
:103930004C708A60CB70022B01D100230B71FCF715
:10394000C5FF002038BD05F58E7185F81C410125A5
:103950004D708A60CB70CC80EDE700BF08B501F0F8
:103960007F03CAB203EB830100EBC10112F0800FA9
:1039700014BF01F58E7101F55D71D2090B704A70AB
:10398000FCF7D8FF002008BD70B501F07F0404EB00
:10399000840500EBC50505F55D71002685F87443C7
:1039A000CA604B618E614E70C378012B05F55C7562
:1039B00008BF0A611CB1FCF7E1FF002070BDFDF7F4
:1039C00097F8002070BD00BF70B501F07F0404EBD4
:1039D000840500EBC50505F58E710126CA600A61F4
:1039E000002285F81C414E7005F58C758A614B618B
:1039F0001CB1FCF7C3FF002070BDFDF779F8002073
:103A000070BD00BFCAB2130610B511D401EB81031B
:103A100000EBC30404F55D7301F07F01D2090124BA
:103A200019709C705A701946FDF7E2F8002010BD1D
:103A300001F07F0101EB810400EBC40303F58E73F9
:103A4000ECE700BFCAB210B5140611D401EB810334
:103A500000EBC30404F55D7301F07F010024D2097B
:103A600019709C705A701946FDF7DEF8204610BD9B
:103A700001F07F0101EB810400EBC40303F58E73B9
:103A8000ECE700BF08B50B0603D4FCF7CBFD002024
:103A900008BD01F07F01FCF799FD002008BD00BFC3
:103AA00003690022186861F30A1202431A60704722
:103AB00013460A46022110B5C0F83C31C0F838312F
:103AC00080F8111100210446FFF77EFF002010BD91
:103AD00010B50C46134600212246FFF775FF002063
:103AE00010BD00BF10B50C46134600212246FFF75B
:103AF0004BFF002010BD00BF38B50021042504464F
:103B00000A460B4680F81151FFF75EFF2046FDF78D
:103B1000B3F8002038BD00BF38B5002105250446A4
:103B20000A460B4680F81151FFF72EFF2046FDF79D
:103B3000A3F8002038BD00BF122340F2F4100B8020
:103B4000C2F20000704700BF04230B80004870479A
:103B50000802002010B540F6B424C2F2000444F27A
:103B600008600A46C0F600002146FFF765FB2046C4
:103B700010BD00BF08B50A4628B106480649FFF740
:103B80005BFB054808BD05480349FFF755FB0248A4
:103B900008BD00BF2C460008B40A002010460008EB
:103BA00008B50A4628B106480649FFF745FB05480F
:103BB00008BD05480349FFF73FFB024808BD00BFA9
:103BC00060460008B40A00204846000808B50A46C6
:103BD00028B106480649FFF72FFB054808BD0548F0
:103BE0000349FFF729FB024808BD00BF88460008CB
:103BF000B40A00207846000810B540F6B424C2F29A
:103C0000000444F298600A46C0F600002146FFF71F
:103C100013FB204610BD00BFF0B440F62C23C2F2C7
:103C2000000382F06F0293F88140661CA51C04F02B
:103C30007F0706F07F0605F07F05D243C9090334EC
:103C4000DA5583F8814098555955F0BC704700BF4C
:103C5000F0B440F62C23C2F2000382F07F0293F806
:103C60008140661CA51C04F07F0706F07F0605F066
:103C70007F05D243C9090334DA5583F8814098554A
:103C80005955F0BC704700BFF0B440F62C23C2F287
:103C9000000382F04F0293F88140661CA51C04F0DB
:103CA0007F0706F07F0605F07F05D2430334DA551F
:103CB00083F8814098555955F0BC704710B50E4CAB
:103CC00094F8803094F881209A4208D04FF48050C4
:103CD000C4F20100018801F0400291B201B910BDA7
:103CE00003F07F03E15CFDF773F894F88000421C59
:103CF00084F8802010BD00BF2C0A00200022038819
:103D0000C4F20102904270B49BB21AD04FF48062A8
:103D1000C4F20102904214D0B0F1804F11D04FF4A0
:103D20008062C4F2000290420BD04FF40062C4F2F1
:103D30000002904205D04FF44062C4F2000290426B
:103D400005D14FF68F724C881A4042EA04034FF4B3
:103D50008052C4F20002904221D04FF4A052C4F22B
:103D6000000290421BD04FF6FF420E894C680D882E
:103D70001A400023C4F20103324398420280C46215
:103D8000058509D04FF48062C4F20102904203D04D
:103D90000123838270BC7047897A0186F8E703802B
:103DA0004A680988C2620185F2E700BF00234FF02C
:103DB000FF3141600380038143808372704700BFFD
:103DC000038829B923F001010A04130C038070470A
:103DD00099B241F001020280704700BF83899BB213
:103DE0001AB923EA01018181704719438181704723
:103DF000038A828911EA030092B203D011420CBFF8
:103E000000200120704700BFC9438AB20282704778
:103E100081F0004102E000BF83F0004330B54FEA7B
:103E200041044FEA430594EA050F08BF90EA020FE8
:103E30001FBF54EA000C55EA020C7FEA645C7FEA7B
:103E4000655C00F0E2804FEA5454D4EB5555B8BF9E
:103E50006D420CDD2C4480EA020281EA030382EA0F
:103E6000000083EA010180EA020281EA0303362DA1
:103E700088BF30BD11F0004F4FEA01314FF4801C74
:103E80004CEA113102D0404261EB410113F0004F86
:103E90004FEA03334CEA133302D0524263EB43033D
:103EA00094EA050F00F0A780A4F10104D5F1200EDB
:103EB0000DDB02FA0EFC22FA05F2801841F1000136
:103EC00003FA0EF2801843FA05F359410EE0A5F10A
:103ED00020050EF1200E012A03FA0EFC28BF4CF03B
:103EE000020C43FA05F3C01851EBE37101F00045F1
:103EF00007D54FF0000EDCF1000C7EEB00006EEBFE
:103F00000101B1F5801F1BD3B1F5001F0CD3490887
:103F10005FEA30004FEA3C0C04F101044FEA4452DE
:103F200012F5800F80F09A80BCF1004F08BF5FEA65
:103F3000500C50F1000041EB045141EA050130BD45
:103F40005FEA4C0C404141EB010111F4801FA4F1E8
:103F50000104E9D191F0000F04BF01460020B1FA3D
:103F600081F308BF2033A3F10B03B3F120020CDA75
:103F70000C3208DD02F1140CC2F10C0201FA0CF053
:103F800021FA02F10CE002F11402D8BFC2F1200CB8
:103F900001FA02F120FA0CFCDCBF41EA0C0190406E
:103FA000E41AA2BF01EB0451294330BD6FEA0404B7
:103FB0001F3C1CDA0C340EDC04F11404C4F12002A2
:103FC00020FA04F001FA02F340EA030021FA04F3B4
:103FD00045EA030130BDC4F10C04C4F1200220FA0B
:103FE00002F001FA04F340EA0300294630BD21FA49
:103FF00004F0294630BD94F0000F83F4801306BF0F
:1040000081F480110134013D4EE77FEA645C18BF02
:104010007FEA655C29D094EA050F08BF90EA020F99
:1040200005D054EA000C04BF1946104630BD91EA91
:10403000030F1EBF0021002030BD5FEA545C05D194
:104040004000494128BF41F0004130BD14F58004D3
:104050003CBF01F5801130BD01F0004545F0FE4147
:1040600041F470014FF0000030BD7FEA645C1ABF7C
:10407000194610467FEA655C1CBF0B46024650EAB3
:10408000013406BF52EA033591EA030F41F40021DF
:1040900030BD00BF90F0000F04BF0021704730B565
:1040A0004FF4806404F132044FF000054FF000013A
:1040B00050E700BF90F0000F04BF0021704730B5FB
:1040C0004FF4806404F1320410F0004548BF4042D0
:1040D0004FF000013EE700BF42004FEAE2014FEA25
:1040E00031014FEA02701FBF12F07F4393F07F4F00
:1040F00081F06051704792F0000F14BF93F07F4F32
:10410000704730B54FF4607401F0004521F0004174
:1041100020E700BF50EA010208BF704730B54FF0FA
:1041200000050AE050EA010208BF704730B511F0FF
:10413000004502D5404261EB41014FF4806404F137
:1041400032045FEA915C3FF4DCAE4FF003025FEAB9
:10415000DC0C18BF03325FEADC0C18BF033202EB41
:10416000DC02C2F1200300FA03FC20FA02F001FA9B
:1041700003FE40EA0E0021FA02F11444C1E600BF3A
:1041800070B54FF0FF0C4CF4E06C1CEA11541DBFED
:104190001CEA135594EA0C0F95EA0C0F00F0DEF8B8
:1041A0002C4481EA030621EA4C5123EA4C5350EA9D
:1041B000013518BF52EA033541F4801143F48013EE
:1041C00038D0A0FB02CE4FF00005E1FB02E506F07F
:1041D0000042E0FB03E54FF00006E1FB03569CF0D4
:1041E000000F18BF4EF0010EA4F1FF04B6F5007FDA
:1041F00064F5407404D25FEA4E0E6D4146EB06064C
:1042000042EAC62141EA55514FEAC52040EA5E50D4
:104210004FEACE2EB4F1FD0C88BFBCF5E06F1ED87E
:10422000BEF1004F08BF5FEA500E50F1000041EBB5
:10423000045170BD06F0004646EA010140EA020062
:1042400081EA0301B4EB5C04C2BFD4EB0C0541EA84
:10425000045170BD41F480114FF0000E013C00F399
:10426000AB8014F1360FDEBF002001F0004170BDBD
:10427000C4F10004203C35DA0C341BDC04F11404D6
:10428000C4F1200500FA05F320FA04F001FA05F262
:1042900040EA020001F0004221F0004110EBD3702F
:1042A00021FA04F642EB06015EEA430E08BF20EA5B
:1042B000D37070BDC4F10C04C4F1200500FA04F3FE
:1042C00020FA05F001FA04F240EA020001F0004190
:1042D00010EBD37041F100015EEA430E08BF20EA03
:1042E000D37070BDC4F1200500FA05F24EEA020E4B
:1042F00020FA04F301FA05F243EA020321FA04F07A
:1043000001F0004121FA04F220EA020000EBD37030
:104310005EEA430E08BF20EAD37070BD94F0000F30
:104320000FD101F00046400041EB010111F4801F64
:1043300008BF013CF7D041EA060195F0000F18BF15
:10434000704703F00046520043EB030313F4801F51
:1043500008BF013DF7D043EA0603704794EA0C0F0B
:104360000CEA135518BF95EA0C0F0CD050EA410621
:1043700018BF52EA4306D1D181EA030101F000419E
:104380004FF0000070BD50EA410606BF10461946C6
:1043900052EA430619D094EA0C0F02D150EA0136D2
:1043A00013D195EA0C0F05D152EA03361CBF104613
:1043B00019460AD181EA030101F0004141F0FE41B2
:1043C00041F470014FF0000070BD41F0FE4141F436
:1043D000780170BD70B54FF0FF0C4CF4E06C1CEA36
:1043E00011541DBF1CEA135594EA0C0F95EA0C0FEB
:1043F00000F0A7F8A4EB050481EA030E52EA0335A6
:104400004FEA013100F088804FEA03334FF08055C6
:1044100045EA131343EA12634FEA022245EA1115F3
:1044200045EA10654FEA00260EF000419D4208BFA4
:10443000964244F1FD0404F5407402D25B084FEA51
:104440003202B61A65EB03055B084FEA32024FF4FD
:1044500080104FF4002CB6EB020E75EB030E22BF5A
:10446000B61A754640EA0C005B084FEA3202B6EB1A
:10447000020E75EB030E22BFB61A754640EA5C00C9
:104480005B084FEA3202B6EB020E75EB030E22BF59
:10449000B61A754640EA9C005B084FEA3202B6EB5A
:1044A000020E75EB030E22BFB61A754640EADC0019
:1044B00055EA060E18D04FEA051545EA16754FEA7B
:1044C00006164FEAC30343EA52734FEAC2025FEA99
:1044D0001C1CC0D111F4801F0BD141EA00014FF028
:1044E00000004FF0004CB6E711F4801F04BF0143F9
:1044F0000020B4F1FD0C88BFBCF5E06F3FF6AFAE15
:10450000B5EB030C04BFB6EB020C5FEA500C50F1A4
:10451000000041EB045170BD0EF0004E4EEA113127
:1045200014EB5C04C2BFD4EB0C0541EA045170BD2E
:1045300041F480114FF0000E013C90E645EA060E72
:104540008DE60CEA135594EA0C0F08BF95EA0C0FA0
:104550003FF43BAF94EA0C0F0AD150EA01347FF4E8
:1045600034AF95EA0C0F7FF425AF104619462CE7BF
:1045700095EA0C0F06D152EA03353FF4FDAE104622
:10458000194622E750EA410618BF52EA43067FF473
:10459000C5AE50EA41047FF40DAF52EA43057FF403
:1045A000EBAE12E74A0011D212F5001211D20DD56E
:1045B0006FF47873B3EB62520ED44FEAC12343F029
:1045C000004343EA505323FA02F070474FF00000D3
:1045D000704750EA013002D14FF0FF3070474FF082
:1045E000000070470201020046415441524D494EBD
:1045F00041544F520000000050524F4A454354204E
:104600002076302E310000004E656B746F00000084
:1046100046617461726D696E61746F7220496E7467
:1046200065726661636520485300000046617461ED
:10463000726D696E61746F7220496E746572666125
:10464000636520465300000046617461726D696EB7
:1046500061746F7220436F6E666967204853000073
:1046600046617461726D696E61746F7220436F6E22
:1046700066696720465300003030303030303030CB
:1046800030313142000000003030303030303030D6
:10469000303131430000000046617461726D696E13
:0846A00061746F72000000005C
:1046A80004000020FD10000841100008F50F000864
:1046B800950F0008C50F0008790F0008610F000862
:1046C800A50F0008B50F000800000000000000005A
:1046D80000000000010203040102030406070809A0
:1046E800010000000010024000800000001002409D
:1046F80000400000000402400008000000040240DE
:1047080000040000000402400020000000040240F1
:104718000010000000040240008000000004024075
:1047280000400000000C024000020000000C0240A3
:1047380000010000000802401000000000080240CC
:1047480020000000000402400100000000040240B4
:104758000200000000100240800000000004024037
:104768000400000000100240000200000010024097
:10477800000100000010024000100000001002407C
:104788000004000000100240000800000010024071
:10479800002000009D260008A1260008A526000884
:1047A800B1260008B5260008A9260008AD2600088D
:1047B800000000000020AC40000000000040CF4096
:1047C800000000000088D340000000000000AF4057
:1047D8000000000080C1F8400000000000006040B8
:1047E800000000000070A740000000000080CD40DD
:1047F80000000000001ED440000000000000A4409B
:1048080000000000804FF2400000000000006040FF
:1048180009025600020100C032090400000001012B
:104828000000092401000109000101090401000236
:1048380001030000072401000132000624020101DF
:1048480000092403010201020100090501024000D8
:104858000000000525010101090581024000000052
:104868000005250101020000B1370008993700084A
:1048780069370008000000006D3700088D37000810
:104888007137000875370008000000007937000804
:104898007D3700081201100100000040FFFF0000F2
:1048A8000001010200010000040309040A060002D5
:1048B8000000004001000000393B0008493B0008A7
:1048C800553B0008F93B0008CD3B0008A13B000818
:0448D800753B000824
:0400000508000000EF
:00000001FF
